:0400000053EF22F0A8
:1000080000C016F001C015F09DAA09D09EAA07D01D
:100018009E9AB3EC21F000C0F6F0010E356E16C0C2
:0800280000F015C001F0110009
:080030000AAE029E000E120050
:100038000B840BAE27EF00F0010E036E026A016A13
:0A004800006A0A360232FF0E1200B1
:0E005200026A016A006A086A036A000E120060
:100060000B820BAE3AEF00F003680268016800688B
:080070000A360232FF0E1200F5
:100078000CB07EEF00F00CA224EF01F00E6A000E27
:10008800026495EF00F0F00E0214D8A460EF00F0BF
:10009800023A01380F0B02260138F00B016E0038C6
:1000A8000F0B01260038F00B006E08380F0B0026E6
:1000B8000838F00B086E0E84D89002BE79EF00F075
:1000C80008360036013602360E2A02BE79EF00F0F5
:1000D80008360036013602360E2A02BE79EF00F0E5
:1000E80008360036013602360E2A0E5003641AEF1F
:1000F80001F0035E0BBC08AE1FEF01F0D880800E44
:1001080008640030000E002201220222D8A01FEF4E
:1001180001F0023201320032034A24EF01F01FEFEE
:1001280001F001C002F000C001F008C000F0086A48
:10013800000E0E860264CCEF00F0F00E0214D8A474
:10014800B4EF00F0023A01380F0B02260138F00B29
:10015800016E00380F0B01260038F00B006E0E847C
:10016800D89002BE79EF00F00036013602360E2A2A
:1001780002BE79EF00F00036013602360E2A02BEC2
:1001880079EF00F00036013602360E2A79EF00F0DA
:1001980001C002F000C001F0006A000E0E960E8841
:1001A8000264F9EF00F0F00E0214D8A4E4EF00F0B6
:1001B800023A01380F0B02260138F00B016E0E844B
:1001C800D89002BE79EF00F0013602360E2A02BE40
:1001D80079EF00F0013602360E2A02BE79EF00F000
:1001E800013602360E2A79EF00F001C002F0016AEA
:1001F800000E0E86026429EF01F0F00E0214D8A456
:1002080008EF01F0023A0E84D89002BE79EF00F0B0
:1002180002360E2A02BE79EF00F002360E2A02BE1E
:1002280079EF00F002360E2A79EF00F0010E0C6E1D
:10023800FFDE2CEF01F0020E0C6EF6DE2CEF01F063
:10024800040E0C6E09DF2CEF01F0080E0C6EFDDEBB
:02025800120092
:10025A000D6A086A0050D8B4000C04180A6E0ABE67
:10026A000D1E0B6A04AE02D0041E042A00AE02D090
:10027A00001E002A005004100A6E0ABE1FD0045045
:10028A00085E003600340836045008260036060E8A
:10029A000C6E00340836045000B0085E00A0082630
:1002AA0000360C2EF6D700A008260BB015D00DAEDE
:1002BA00000C001E002A081E082A000C04AE09D0F1
:1002CA0000BE04D00050086E006AF1D7006A002A06
:1002DA00000C001E0B2AD3D7082A0450085CD8A4A5
:0E02EA00E6D7086A002A00AEE2D7FF0C120029
:1002F8000134083609360450085E0550D8A0053C7C
:10030800095E003601360F0E0C6E013408360936C8
:10031800045000A006D0085E0550D8A0053C095E30
:1003280005D008260550D8B0053C09260036013608
:100338000C2EEBD700B006D0045008260550D8B0D4
:08034800053C0926000012002B
:10035000086A080E0C6E003408360450085ED8B0E7
:0E03600002D00826D89000360C2EF5D71200D9
:10036E00086A096A000E076203643CEF02F002504D
:10037E0006180A6E075003267E0ED8A0CDEF01F0A8
:10038E00035ED8B040EF02F0D1EF01F0035ED8A0CB
:10039E0044EF02F0028E068E02C00EF001C00BF08A
:1003AE0000C00DF000500402F4CF0CF00150050215
:1003BE00F4CF00F0F3CF08F00402F3500C26F45003
:1003CE000822000E00220D500502F3500C26F450A8
:1003DE000822000E002202500402F3500826F450A8
:1003EE00002202500502016A000E0122F35000267F
:1003FE00F45001220D500602F3500826F45000224C
:10040E00026A000E012202220B500602F350002651
:10041E00F4500122000E02220E500602F350012665
:10042E00F450022202BE24EF02F0083600360136E6
:10043E0002360306D8B444EF02F037EF02F0D8804C
:10044E00800E08640030000E002201220222D8A085
:10045E0037EF02F0023201320032034A40EF02F06F
:10046E000AAE029E000E46EF02F0010EEBDD46EFE5
:10047E0002F0020EEEDD46EF02F0040ED6DD1200A3
:10048E00025006180E6E086A096A0B6A035007645A
:10049E003AEF03F006500A6E068E028E03500B6E74
:1004AE000750036E000E0B648AEF02F00B50075ECE
:1004BE00D8B42BEF03F0070E0764F9EF02F0075ED6
:1004CE0000C008F001C000F002C001F0026A074E41
:1004DE002BEF03F00764CEEF02F0075E00C008F0CA
:1004EE0001C000F0016A074E2BEF03F00764ACEF7A
:1004FE0002F0075E00C008F0006A074E2BEF03F013
:10050E00076493EF02F00AC002F005C001F004C0C8
:10051E0000F0086A57EF04F0030E07649EEF02F036
:10052E00075E08380F0B086E074E2BEF03F0D890BE
:10053E000832074E2BEF03F0D8900832074E2BEF00
:10054E0003F0D89008322BEF03F0030E0764BDEFD3
:10055E0002F0075E08380F0B086E0038F00B082605
:10056E0000380F0B006E074E2BEF03F0D8900032C1
:10057E000832074E2BEF03F0D89000320832074EA8
:10058E002BEF03F0D890003208322BEF03F0030E5E
:10059E000764E5EF02F0075E08380F0B086E0038AF
:1005AE00F00B082600380F0B006E0138F00B0026FA
:1005BE0001380F0B016E074E2BEF03F0D89001326E
:1005CE0000320832074E2BEF03F0D8900132003282
:1005DE000832074E2BEF03F0D8900132003208326A
:1005EE002BEF03F0030E076416EF03F0075E0838D7
:1005FE000F0B086E0038F00B082600380F0B006E3C
:10060E000138F00B002601380F0B016E0238F00B8B
:10061E00012602380F0B026E074E2BEF03F0D89017
:10062E000232013200320832074E2BEF03F0D8901F
:10063E000232013200320832074E2BEF03F0D8900F
:10064E000232013200320832096A000E0EAE1FEF7E
:10065E0004F0081E001E011E021E082A002201229E
:10066E0002221FEF04F00750D8A440EF03F057EF1B
:10067E0004F0096A02C00AF0028E068E0750035C6F
:10068E00076ED8B412EF04F0070E0764E0EF03F024
:10069E00075E0450096E0550046E0650056E066A1C
:1006AE00074E12EF04F0070E0764B5EF03F0075E76
:1006BE000450096E0550046E056A074E12EF04F0E1
:1006CE00070E076493EF03F0075E0450096E046A89
:1006DE00074E12EF04F0070E07647AEF03F00AC01C
:1006EE0002F057EF04F0030E076485EF03F0075E88
:1006FE0009380F0B096E074E12EF04F0D89009322D
:10070E00074E12EF04F0D8900932074E12EF04F0A4
:10071E00D890093212EF04F0030E0764A4EF03F031
:10072E00075E09380F0B096E0438F00B09260438E2
:10073E000F0B046E074E12EF04F0D89004320932FC
:10074E00074E12EF04F0D89004320932074E12EF22
:10075E0004F0D8900432093212EF04F0030E07644D
:10076E00CCEF03F0075E09380F0B096E0438F00B5F
:10077E00092604380F0B046E0538F00B04260538D5
:10078E000F0B056E074E12EF04F0D89005320432AF
:10079E000932074E12EF04F0D890053204320932B6
:1007AE00074E12EF04F0D89005320432093212EFE0
:1007BE0004F0030E0764FDEF03F0075E09380F0B1C
:1007CE00096E0438F00B092604380F0B046E053839
:1007DE00F00B042605380F0B056E0638F00B0526B8
:1007EE0006380F0B066E074E12EF04F0D890063245
:1007FE00053204320932074E12EF04F0D890063259
:10080E00053204320932074E12EF04F0D890063248
:10081E00053204320932086A000E0EAE1FEF04F0E4
:10082E00091E041E051E061E092A04220522062282
:10083E0009500826045000220550012206500222BB
:10084E000EBE36EF04F0D8A045EF04F002320132AE
:10085E0000320832033E45EF04F051EF04F0D8B0F9
:10086E004BEF04F0000E081E001E011E021E082A89
:10087E000022012202220A7E4BEF04F0010E0C6EC2
:10088E003CEC00F059EF04F0020E0C6E3CEC00F064
:10089E0059EF04F0040E0C6E30EC00F059EF04F03A
:0608AE00000E0C6E1200AA
:1008B4000B800BAE66EF04F0026A0AAEFF0E026E06
:0C08C400016E006E0A360232FF0E1200B8
:0808D0000B6A0B86FF0E1200FB
:1008D8000450000A12E10550000A0FE10650000A10
:1008E8000CE10750000A09E1FF0E006EFF0E016ED1
:1008F8007F0E026EFF0E036EA7D0086A096A0750C2
:10090800D8B417EF05F00350D8B41BEF05F0025028
:1009180006180A6E028E068E0E6A02C008F001C022
:100928000CF000C00DF004500D5E0550D8A0053C39
:100938000C5E0650D8A0063C085E086A0C6A0D6A70
:10094800D8A0AEEF04F0D89002320132003208325B
:10095800010E0E6E0750035ED8A0BBEF04F07E0EAA
:100968000E240326D8B020EF05F0C1EF04F07E0E68
:100978000E240326D8A025EF05F0180E0B6E0D36B1
:100988000C3608360036013602360E360450005E44
:100998000550D8A0053C015E0650D8A0063C025E72
:1009A80006340E120EA0DCEF04F00D80E7EF04F021
:1009B800045000260550D8B0053C01260650D8B092
:1009C800062802260D900B2EC3EF04F00DEF05F05C
:1009D800D8900036013602360E360450005E0550B7
:1009E800D8A0053C015E0650D8A0063C025E06343D
:1009F8000E10010B0D26D8B00C2AD8B4082AD8A49A
:100A08000DEF05F008320C320D32032AD8B420EF6E
:100A180005F00AAE089E0850026E0C50016E0D508B
:100A2800006E28EF05F0010E4FDF28EF05F0020EEB
:100A380029EC00F028EF05F0040E30EC00F028EF68
:0A0A480005F0080E1CEC00F012008F
:100A5200800E01014E19006E800E000A005CD8B0B3
:100A62006DD14E510008016E01C04EF1800E011889
:100A7200006E800E6E0A005CD8A0C0D0640E046EB8
:100A82004EC100F02DEC01F0120E0024056E000E96
:100A920000BEFF0E066E000E062205C000F006C064
:100AA20001F0000E06BEFF0E026E036E00360090CD
:100AB200013602360336003600900136023603361E
:100AC200910E0024F66E450E0120F76E000E0220F4
:100AD200F86E0900F5CF4FF10900F5CF50F109008A
:100AE200F5CF51F10900F5CF52F1640E046E4EC1FB
:100AF20000F02DEC01F008C000F00A0E046E2DEC9F
:100B020001F0090E0024056E000E00BEFF0E066EF7
:100B1200000E062205C000F006C001F0000E06BE5F
:100B2200FF0E026E036E0036009001360236033667
:100B320000360090013602360336910E0024F66E1E
:100B4200450E0120F76E000E0220F86E0900F5CF67
:100B520000F00900F5CF01F00900F5CF02F009001D
:100B6200F5CF03F04FC104F050C105F051C106F0BA
:100B720052C107F0B7EC01F000C04FF101C050F1D3
:100B820002C051F103C052F10A0E046E4EC100F0D0
:100B92002DEC01F008C000F000C001F0000E00BE14
:100BA200FF0E026E036E046E0136019002360336AA
:100BB200043601360190023603360436910E0124C2
:100BC200F66E450E0220F76E000E0320F86E090045
:100BD200F5CF00F00900F5CF01F00900F5CF02F0E2
:100BE2000900F5CF03F04FC104F050C105F051C127
:100BF20006F052C107F0B7EC01F007D2800E0A0AE4
:100C0200006E800E4E19005C71E20A0E046E4EC137
:100C120000F02DEC01F0090E0024056E000E00BE5E
:100C2200FF0E066E000E062205C000F006C001F09F
:100C3200000E06BEFF0E026E036E003600900136F5
:100C42000236033600360090013602360336910E24
:100C52000024F66E450E0120F76E000E0220F86E9B
:100C62000900F5CF4FF10900F5CF50F10900F5CF9A
:100C720051F10900F5CF52F10A0E046E4EC100F097
:100C82002DEC01F008C000F000C001F0000E00BE23
:100C9200FF0E026E036E046E0136019002360336B9
:100CA200043601360190023603360436910E0124D1
:100CB200F66E450E0220F76E000E0320F86E090054
:100CC200F5CF00F00900F5CF01F00900F5CF02F0F1
:100CD2000900F5CF03F04FC104F050C105F051C136
:100CE20006F052C107F0B7EC01F08FD14EC100F00F
:100CF200000E4EBFFF0E016E026E036E00360090B4
:100D020001360236033600360090013602360336CB
:100D1200910E0024F66E450E0120F76E000E0220A1
:100D2200F86E0900F5CF00F00900F5CF01F00900D7
:100D3200F5CF02F00900F5CF03F067D1800E4E190E
:100D4200006E800E6E0A005CD8A0C0D0640E046EE5
:100D52004EC100F02DEC01F0120E0024056E000EC3
:100D620000BEFF0E066E000E062205C000F006C091
:100D720001F0000E06BEFF0E026E036E00360090FA
:100D8200013602360336003600900136023603364B
:100D9200C50E0024F66E450E0120F76E000E0220ED
:100DA200F86E0900F5CF4FF10900F5CF50F10900B7
:100DB200F5CF51F10900F5CF52F1640E046E4EC128
:100DC20000F02DEC01F008C000F00A0E046E2DECCC
:100DD20001F0090E0024056E000E00BEFF0E066E25
:100DE200000E062205C000F006C001F0000E06BE8D
:100DF200FF0E026E036E0036009001360236033695
:100E020000360090013602360336C50E0024F66E17
:100E1200450E0120F76E000E0220F86E0900F5CF94
:100E220000F00900F5CF01F00900F5CF02F009004A
:100E3200F5CF03F04FC104F050C105F051C106F0E7
:100E420052C107F0B7EC01F000C04FF101C050F100
:100E520002C051F103C052F10A0E046E4EC100F0FD
:100E62002DEC01F008C000F000C001F0000E00BE41
:100E7200FF0E026E036E046E0136019002360336D7
:100E8200043601360190023603360436C50E0124BB
:100E9200F66E450E0220F76E000E0320F86E090072
:100EA200F5CF00F00900F5CF01F00900F5CF02F00F
:100EB2000900F5CF03F04FC104F050C105F051C154
:100EC20006F052C107F0B7EC01F09FD0800E0A0A7B
:100ED200006E800E4E19005C71E20A0E046E4EC165
:100EE20000F02DEC01F0090E0024056E000E00BE8C
:100EF200FF0E066E000E062205C000F006C001F0CD
:100F0200000E06BEFF0E026E036E00360090013622
:100F12000236033600360090013602360336C50E1D
:100F22000024F66E450E0120F76E000E0220F86EC8
:100F32000900F5CF4FF10900F5CF50F10900F5CFC7
:100F420051F10900F5CF52F10A0E046E4EC100F0C4
:100F52002DEC01F008C000F000C001F0000E00BE50
:100F6200FF0E026E036E046E0136019002360336E6
:100F7200043601360190023603360436C50E0124CA
:100F8200F66E450E0220F76E000E0320F86E090081
:100F9200F5CF00F00900F5CF01F00900F5CF02F01E
:100FA2000900F5CF03F04FC104F050C105F051C163
:100FB20006F052C107F0B7EC01F027D04EC100F0A5
:100FC200000E4EBFFF0E016E026E036E00360090E1
:100FD20001360236033600360090013602360336F9
:100FE200C50E0024F66E450E0120F76E000E02209B
:100FF200F86E0900F5CF00F00900F5CF01F0090005
:0C100200F5CF02F00900F5CF03F012005A
:10100E000B6A0C6A0A6A086A0350D8B48FEF08F0AC
:10101E00028E9E0E035E03BE1AEF08F0D8B41AEFCE
:10102E0008F07FEF08F0036C080E035CD8A04CEFBD
:10103E0008F0036E083600C008F001C000F002C0D0
:10104E0001F0026A080E035CD8A04CEF08F0036EA4
:10105E00083600C008F001C000F0016A080E035CFB
:10106E00D8A04CEF08F0036E083600C008F0006AF6
:10107E00080E035CD8A04CEF08F0036E0836086A21
:10108E000350D8A4D89058EF08F00350D8B458EFB6
:10109E0008F0D8900232013200320832032E50EF9F
:1010AE0008F00BBC08A069EF08F0D8A069EF08F0B3
:1010BE00082AD8B4002AD8B4012AD8B4022A02BE0B
:1010CE0093EF08F00AAE8FEF08F0021E011E001E0D
:1010DE00081E082AD8B4002AD8B4012AD8B4022A85
:1010EE008FEF08F0026A016A006A086A8FEF08F053
:1010FE000B800BAE99EF08F0026A0AAE99EF08F07A
:10110E00026E016E006E086E0A36023299EF08F01A
:10111E00000E0C6A9AEF08F0010E0C6E5AEC04F0F9
:10112E009AEF08F0FF0E0250036E0150026E00504F
:08113E00016E0850006E120062
:08114600067E47EC02F01200E6
:10114E000050086E0150006E0250016E0350026E88
:10115E00036A0B6A0C6A9E0E036E0A6A020E0C6E0E
:06116E003CEC00F0120051
:101174000B6A0A6A096A00500402F4CF09F0F3CF3B
:1011840008F001500502F4CF0BF0F3CF0AF0005041
:101194000502F3500926F4500A22E86A0B22015092
:1011A4000402F3500926F4500A22E86A0B2208C00C
:1011B40000F009C001F00AC002F00BC003F01200F5
:1011C40001014E51390806E3300E4E5D03E3010E72
:0811D400006E01D0006A120058
:1011DC000A6A0350D8A40A800750D8A40A820A507D
:1011EC00D8B451EF09F0030AD8B40AEF09F00AB0E9
:1011FC0005EF09F006AE4FEF09F04DEF09F002AE26
:10120C004DEF09F04FEF09F00250800B0A6E029E71
:10121C000650800B069E0A18D8B41BEF09F00A5032
:10122C00D8B44DEF09F04FEF09F00750035CD8B478
:10123C0025EF09F0D8A041EF09F047EF09F006506F
:10124C00025CD8B42FEF09F0D8A041EF09F047EFBA
:10125C0009F00550015CD8B439EF09F0D8A041EF82
:10126C0009F047EF09F00450005CD8B451EF09F0D5
:10127C00D8B047EF09F00A52D8B44FEF09F04DEF50
:10128C0009F00A52D8B44DEF09F04FEF09F0D880AD
:0E129C001200D8901200D880D88412001200E0
:1012AA000450000A08E10550000A05E1FF0E006E2D
:1012BA007F0E016E58D00D6A096A086A0150001043
:1012CA00D8B4000C015005180A6E0ABE0D1E0B6A2E
:1012DA0005AE05D0041E051E042AD8B4052A01AE9F
:1012EA0005D0001E011E002AD8B4012A015005109B
:1012FA000A6E0ABE10D07CEC01F00BB020D00DAE05
:10130A00000C001E011E002AD8B4012A081E091E5C
:10131A00082AD8B4092A000C05AE0DD001BE07D0A0
:10132A000150096E0050086E016A006AE8D7016A26
:10133A00006A002A000C011E001E0B2ADDD7082AAB
:10134A00D8B4092A0450085CD8A4D9D70550095C36
:10135A00D8A4D5D7096A086A002AD8B4012A01AEE6
:08136A00CED70000FF0C1200B9
:1013720003500718D8A4CDEF09F002500618D8A4DC
:10138200CDEF09F001500518D8A4CDEF09F00050B7
:0E1392000418D8B4D8841200D89412001200A7
:1013A0000B6A0C6A086A0350D8B454EF0AF002C002
:1013B0000AF0028E9E0E035E03AE44EF0AF0036C49
:1013C000080E035CD8A011EF0AF0036E083600C0C7
:1013D00008F001C000F002C001F0026A080E035CD0
:1013E000D8A011EF0AF0036E083600C008F001C063
:1013F00000F0016A080E035CD8A011EF0AF0036E3A
:10140000083600C008F0006A080E035CD8A011EF8F
:101410000AF0036E0836086A0350D8A4D8901DEF6E
:101420000AF00350D8B41DEF0AF0D890023201320E
:1014300000320832032E15EF0AF00BBC08A02EEF85
:101440000AF0D8A02EEF0AF0082AD8B4002AD8B49F
:10145000012AD8B4022A02BE58EF0AF00AAE54EFAD
:101460000AF0021E011E001E081E082AD8B4002A17
:10147000D8B4012AD8B4022A54EF0AF0026A016AE9
:10148000006A086A54EF0AF00B800BAE5FEF0AF0B7
:10149000026A0AAE5FEF0AF0026E016E006E086E1D
:1014A0000A3602325FEF0AF00C6A000E60EF0AF0B3
:1014B000010E0C6E000E5AEC04F060EF0AF0FF0E05
:1014C0000250036E0150026E0050016E0850006E13
:0214D000120008
:1014D2006E0E01014E5DD8A0CAD0640E046E4EC1DC
:1014E20000F0A8EC01F0120E0024056E066A000E50
:1014F200062205C000F006C001F0000E06BEFF0E77
:10150200026E036E00360090013602360336003654
:101512000090013602360336910E0024F66E450E17
:101522000120F76E000E0220F86E0900F5CF00F0E0
:101532000900F5CF01F00900F5CF02F00900F5CF5F
:1015420003F0000E046E000E056E000E066E7E0E97
:10155200076EB7EC01F000C04FF101C050F102C0BC
:1015620051F103C052F1640E046E4EC100F0A8ECBA
:1015720001F008C000F00A0E046EA8EC01F0090E9A
:101582000024056E066A000E062205C000F006C0A1
:1015920001F0000E06BEFF0E026E036E00360090D2
:1015A2000136023603360036009001360236033623
:1015B200910E0024F66E450E0120F76E000E0220F9
:1015C200F86E0900F5CF00F00900F5CF01F009002F
:1015D200F5CF02F00900F5CF03F04FC104F050C17E
:1015E20005F051C106F052C107F0B7EC01F000C09E
:1015F2004FF101C050F102C051F103C052F10A0E85
:10160200046E4EC100F0A8EC01F008C000F000C06A
:1016120001F0000E026E036E046E01360190023676
:101622000336043601360190023603360436910E33
:101632000124F66E450E0220F76E000E0320F86EAE
:101642000900F5CF00F00900F5CF01F00900F5CF50
:1016520002F00900F5CF03F04FC104F050C105F0CC
:1016620051C106F052C107F0B7EC01F0B1D04E51B2
:101672000A08D8B07ED00A0E046E4EC100F0A8EC63
:1016820001F0090E0024056E066A000E062205C04E
:1016920000F006C001F0000E06BEFF0E026E036EE1
:1016A20000360090013602360336003600900136CD
:1016B20002360336910E0024F66E450E0120F76EB7
:1016C200000E0220F86E0900F5CF00F00900F5CFF8
:1016D20001F00900F5CF02F00900F5CF03F0000E8A
:1016E200046E000E056E000E066E7E0E076EB7ECDF
:1016F20001F000C04FF101C050F102C051F103C02E
:1017020052F10A0E046E4EC100F0A8EC01F008C0BE
:1017120000F000C001F0000E026E036E046E01368E
:101722000190023603360436013601900236033642
:101732000436910E0124F66E450E0220F76E000E5D
:101742000320F86E0900F5CF00F00900F5CF01F093
:101752000900F5CF02F00900F5CF03F04FC104F004
:1017620050C105F051C106F052C107F0B7EC01F0CB
:101772002FD04EC100F0000E016E026E036E0036D5
:1017820000900136023603360036009001360236EA
:101792000336910E0024F66E450E0120F76E000E00
:1017A2000220F86E0900F5CF00F00900F5CF01F034
:1017B2000900F5CF02F00900F5CF03F0000E046E28
:1017C200000E056E000E066E7E0E076EB7EC01F07F
:0217D200120003
:1017D4000B6A0A6A096A086A0E6A033408360450F6
:1017E400085E0550D8A0053C095E0650D8A0063C0A
:1017F4000A5E0750D8A0073C0B5EE86AD8A0010E29
:101804000E5E0336070E0C6E0334083609360A36AC
:101814000B360E36045003A012D0085E0550D8A033
:10182400053C095E0650D8A0063C0A5E0750D8A0C5
:10183400073C0B5EE86AD8A0010E0E5E11D00826A4
:101844000550D8B0053C09260650D8B0063C0A26F7
:101854000750D8B0073C0B26E86AD8B0010E0E2614
:1018640003360C2ED1D70234083609360A360B3625
:101874000E36045003A012D0085E0550D8A0053CD3
:10188400095E0650D8A0063C0A5E0750D8A0073C63
:101894000B5EE86AD8A0010E0E5E11D00826055032
:1018A400D8B0053C09260650D8B0063C0A26075095
:1018B400D8B0073C0B26E86AD8B0010E0E260236D3
:1018C400070E0C6E0234083609360A360B360E360D
:1018D400045002A012D0085E0550D8A0053C095E51
:1018E4000650D8A0063C0A5E0750D8A0073C0B5E01
:1018F400E86AD8A0010E0E5E11D008260550D8B0B3
:10190400053C09260650D8B0063C0A260750D8B034
:10191400073C0B26E86AD8B0010E0E2602360C2EC0
:10192400D1D70134083609360A360B360E36045040
:1019340002A012D0085E0550D8A0053C095E0650EE
:10194400D8A0063C0A5E0750D8A0073C0B5EE86AA4
:10195400D8A0010E0E5E11D008260550D8B0053C63
:1019640009260650D8B0063C0A260750D8B0073CD2
:101974000B26E86AD8B0010E0E260136070E0C6E4F
:101984000134083609360A360B360E36045001A0E7
:1019940012D0085E0550D8A0053C095E0650D8A0B8
:1019A400063C0A5E0750D8A0073C0B5EE86AD8A044
:1019B400010E0E5E11D008260550D8B0053C09264C
:1019C4000650D8B0063C0A260750D8B0073C0B2670
:1019D400E86AD8B0010E0E2601360C2ED1D7003499
:1019E400083609360A360B360E36045001A012D0DA
:1019F400085E0550D8A0053C095E0650D8A0063CF8
:101A04000A5E0750D8A0073C0B5EE86AD8A0010E16
:101A14000E5E11D008260550D8B0053C09260650A4
:101A2400D8B0063C0A260750D8B0073C0B26E86A13
:101A3400D8B0010E0E260036070E0C6E00340836A0
:101A440009360A360B360E36045000A012D0085E52
:101A54000550D8A0053C095E0650D8A0063C0A5E95
:101A64000750D8A0073C0B5EE86AD8A0010E0E5EB2
:101A740011D008260550D8B0053C09260650D8B028
:101A8400063C0A260750D8B0073C0B26E86AD8B0B3
:101A9400010E0E2600360C2ED1D700B00ED0045005
:101AA40008260550D8B0053C09260650D8B0063C97
:0C1AB4000A260750D8B0073C0B26120091
:101AC0000101466B476B3A6B3B6B28C100F029C1A3
:101AD00001F02AC102F0010E2827000E29232A2333
:101AE00000C0F6FF01C0F7FF02C0F8FF0900F5CF04
:101AF00000F000C037F10052D8B46EEF1DF037513E
:101B0000250A0BE026C1E1FF27C1E2FF37C1E6FF4E
:101B1000264B272B464B472BD8D7386B396B3A6B64
:101B20003B6B23D03A87010E2827000E29232A2356
:101B300059D03A81010E2827000E29232A2352D09A
:101B40003A83010E2827000E29232A234BD03B87F6
:101B5000010E2827000E29232A2344D03A85010E9E
:101B60002827000E29232A233DD028C1F6FF29C1AA
:101B7000F7FF2AC1F8FF0900F5CF01F001502D0A47
:101B8000D1E028C1F6FF29C1F7FF2AC1F8FF0900FB
:101B9000F5CF01F00150200ACCE028C1F6FF29C1A1
:101BA000F7FF2AC1F8FF0900F5CF01F001502B0A19
:101BB000C7E028C1F6FF29C1F7FF2AC1F8FF0900D5
:101BC000F5CF01F00150230AC2E028C1F6FF29C178
:101BD000F7FF2AC1F8FF0900F5CF01F00150300AE4
:101BE000BDE001D09ED73AA301D03A913AA701D0E7
:101BF0003A9528C1F6FF29C1F7FF2AC1F8FF09006D
:101C0000F5CF00F0000E016E00C04EF1E2EC08F0DE
:101C1000005236E0386B396B38C100F039C101F041
:101C20000A0E046E000E056EBAEC08F028C1F6FF2D
:101C300029C1F7FF2AC1F8FF0900F5CF02F00250D1
:101C40000024386F000E0120396F300E385F000E0F
:101C5000395B010E2827000E29232A2328C1F6FF0D
:101C600029C1F7FF2AC1F8FF0900F5CF00F0000EE7
:101C7000016E00C04EF1E2EC08F00052CDE133D02D
:101C800028C1F6FF29C1F7FF2AC1F8FF0900F5CFE7
:101C900001F001502A0A27E12BC1E9FF2CC1EAFF1C
:101CA000EECF00F0EECF01F000C0E9FF01C0EAFF87
:101CB000EECF38F1EECF39F12BC1E9FF2CC1EAFFAD
:101CC000020EEE24006E000EEE20016E2BC1E1FF2D
:101CD0002CC1E2FF00C0E6FF01C0E6FF010E28278D
:101CE000000E29232A2328C1F6FF29C1F7FF2AC1A4
:101CF000F8FF0900F5CF01F001502E0A70E1010E46
:101D00002827000E29232A2328C1F6FF29C1F7FF1F
:101D10002AC1F8FF0900F5CF01F001502A0A28E195
:101D20002BC1E9FF2CC1EAFFEECF00F0EECF01F0AE
:101D300000C0E9FF01C0EAFFEECF35F1EECF36F18A
:101D40002BC1E9FF2CC1EAFF020EEE24006E000E4B
:101D5000EE20016E2BC1E1FF2CC1E2FF00C0E6FFC7
:101D600001C0E6FF010E2827000E29232A2336D0C2
:101D7000356B366B28C1F6FF29C1F7FF2AC1F8FF82
:101D80000900F5CF00F0000E016E00C04EF1E2EC4C
:101D900008F0005223E035C100F036C101F00A0E10
:101DA000046E000E056EBAEC08F028C1F6FF29C1DA
:101DB000F7FF2AC1F8FF0900F5CF02F00250002416
:101DC000356F000E0120366F300E355F000E365B2A
:101DD000010E2827000E29232A23CCD703D0356BE8
:101DE000366B3B8928C100F029C101F02AC102F0FD
:101DF000010E2827000E29232A2300C0F6FF01C068
:101E0000F7FF02C0F8FF0900F5CF37F1F9D046C15E
:101E100000F047C101F072EF1DF03A89E3D73B852E
:101E20002ED13A8B3B812BD13B8329D13A8D27D1BF
:101E300026D13A8B3A8F23D12BC1E9FF2CC1EAFF7F
:101E4000EECF00F0EECF01F000C0E9FF01C0EAFFE5
:101E5000EECF42F1EECF43F12BC1E9FF2CC1EAFFF7
:101E6000020EEE24006E000EEE20016E2BC1E1FF8B
:101E70002CC1E2FF00C0E6FF01C0E6FF000E4319DF
:101E800002E1000E421904E16D0E426F000E436F35
:101E9000446B456B44514225E96E45514321EA6E3E
:101EA000EE520BE0010E4425006E000E4521016E3E
:101EB00000C044F101C045F1EDD7355136110AE0BB
:101EC0004551365D02E14451355D04E235C144F1CE
:101ED00036C145F13951455D02E13851445D05E2B5
:101EE0004451385F4551395B02D0386B396B3AB792
:101EF00016D038C100F039C101F0010E385F000E74
:101F0000395B005001100BE026C1E1FF27C1E2FF61
:101F1000200EE66E264B272B464B472BEAD744C1B3
:101F200002F045C103F0010E445D006E000E4559FC
:101F3000016E00C044F101C045F10250031019E0E8
:101F400042C1E9FF43C1EAFF26C1E1FF27C1E2FF29
:101F5000EECFE6FF264B272B010E4225006E000E2A
:101F60004321016E00C042F101C043F1464B472BB3
:101F7000D6D73AA716D038C100F039C101F0010E0A
:101F8000385F000E395B005001100BE026C1E1FF05
:101F900027C1E2FF200EE66E264B272B464B472B30
:101FA000EAD793D52BC1E9FF2CC1EAFFEECF00F0B1
:101FB000EECF01F000C0E9FF01C0EAFFEECF37F13C
:101FC0002BC1E9FF2CC1EAFF020EEE24006E000EC9
:101FD000EE20016E2BC1E1FF2CC1E2FF00C0E6FF45
:101FE00001C0E6FF370E426F010E436F010E446FD2
:101FF000000E456F62D7C00E3A13000E3B133FD060
:102000003751000AD8B403D737516C0AD8B405D772
:1020100037514C0AD8B401D73751660AD8B4FFD625
:102020003751450AD8B4FDD63751650AD8B4FAD627
:102030003751670AD8B4F8D637516F0AD8B4F6D6F4
:102040003751640AD8B4F4D63751690AD8B4F0D6F7
:102050003751700AD8B4EDD63751580AD8B4E9D6FA
:102060003751780AD8B4E6D63751730AD8B4E4D6D3
:102070003751630A97E03751750ABDE0B3D7000EB8
:102080003A15006E3B51070B016E00500110D8B499
:1020900015EF19F03BA904D0060E356F000E366F10
:1020A0002BC1E9FF2CC1EAFFEECF00F0EECF01F02B
:1020B00000C0E9FF01C0EAFFEECF3CF1EECF3DF1F9
:1020C000EECF3EF1EECF3FF12BC1E9FF2CC1EAFF8D
:1020D000040EEE24006E000EEE20016E2BC1E1FF17
:1020E0002CC1E2FF00C0E6FF01C0E6FF046A056AFA
:1020F000066A076A3CC100F03DC101F03EC102F032
:102100003FC103F0EEEC08F0010ED8B0000E006EF7
:10211000005205E03E7F030E3A13000E3B13406B66
:10212000416B3CC100F03DC101F03EC102F03FC136
:1021300003F0046A056A066A076AB9EC09F0000E42
:10214000D8A4010E006E0052D8B48AD03FC100F06E
:10215000016A026A036AFF0E0016000E01167E0E67
:10216000005E000E015A00C040F101C041F1010EB5
:10217000005E000E015A00C040F101C041F1030EA3
:10218000046E000E056EBAEC08F000C040F101C00C
:1021900041F10A0E046E000E056E55EC09F000C008
:1021A00040F101C041F1800E0118026E800E025C08
:1021B00002E1000E005C05E2010E0101405F000E2D
:1021C000415B0101405100084E6F29EC05F03CC114
:1021D00004F03DC105F03EC106F03FC107F0B7EC89
:1021E00001F000C042F101C043F102C044F103C05C
:1021F00045F1000E046E000E056E000E066E7F0E99
:10220000076E42C100F043C101F044C102F045C174
:1022100003F0EEEC08F0010ED8B0000E006E005294
:1022200005E0010E405F000E415B1AD0000E046E07
:10223000000E056E200E066E820E076E42C100F083
:1022400043C101F044C102F045C103F0EEEC08F0D7
:10225000000ED8B0010E006E005202E0404B412B40
:10226000800E006E800E4119005C02E140510008B2
:1022700003E3010E376F02D040C137F13BB118D0F4
:102280003BA315D0800E4119006E7F0E005C02E169
:10229000FC0E405D0BE3800E4119006E800E361976
:1022A000005C02E13551405D01E201D001D0EFD385
:1022B0003551361106E03BA304D0010E355F000E08
:1022C000365B3651000802E13551080803E2080E7A
:1022D000376F02D035C137F13CC100F03DC101F08C
:1022E0003EC102F03FC103F0046A056A066A076A4C
:1022F000B9EC09F0000ED8A4010E006E0052D8B45B
:102300004BD140C14EF129EC05F000C004F001C0F2
:1023100005F002C006F003C007F03CC100F03DC16B
:1023200001F03EC102F03FC103F06CEC04F000C0CC
:102330003CF101C03DF102C03EF103C03FF101019B
:10234000375100084E6F29EC05F000C004F001C0C1
:1023500005F002C006F003C007F03CC100F03DC12B
:1023600001F03EC102F03FC103F06CEC04F000C08C
:1023700048F101C049F102C04AF103C04BF148C124
:102380003CF149C13DF14AC13EF14BC13FF148C169
:1023900000F049C101F04AC102F04BC103F007EC63
:1023A00008F0A7EC08F000C004F001C005F002C07E
:1023B00006F003C007F048C100F049C101F04AC16E
:1023C00002F04BC103F0A3EC08F0000E046E000E07
:1023D000056E000E066E7E0E076EEEEC08F0000E27
:1023E000D8B0010E006E00521AE03CC100F03DC1B1
:1023F00001F03EC102F03FC103F0000E046E000E7A
:10240000056E000E066E7E0E076E47EC02F000C0F1
:102410003CF101C03DF102C03EF103C03FF13CC1BF
:1024200000F03DC101F03EC102F03FC103F007ECF6
:1024300008F001013751010F096E0A6A000E0A22E5
:1024400009C004F00AC005F0000E0ABEFF0E066EB9
:10245000076E0436049005360636073604360490B7
:10246000053606360736290E0424F66E460E05207C
:10247000F76E000E0620F86E0900F5CF05F0090092
:10248000F5CF06F00900F5CF07F00900F5CF08F009
:102490000850035C08E10750025C05E10650015C4E
:1024A00002E10550005C1EE301013CC100F03DC1AA
:1024B00001F03EC102F03FC103F0CD0E046ECC0E20
:1024C000056E4C0E066E7B0E076EB7EC01F000C079
:1024D0003CF101C03DF102C03EF103C03FF1404B71
:1024E000412B5AD03CC100F03DC101F03EC102F089
:1024F0003FC103F007EC08F037C104F0000E056E91
:10250000066E076E04360490053606360736043626
:102510000490053606360736290E0424F66E460E5C
:102520000520F76E000E0620F86E0900F5CF05F0C5
:102530000900F5CF06F00900F5CF07F00900F5CF47
:1025400008F00850035C08E10750025C05E1065002
:10255000015C02E10550005C1FE201013CC100F09A
:102560003DC101F03EC102F03FC103F0000E046E18
:10257000000E056E200E066E820E076EB7EC01F09F
:1025800000C03CF101C03DF102C03EF103C03FF18B
:10259000010E405F000E415B01013BA393D03BB7AE
:1025A00091D0800E000A006E800E3619005C02E1A8
:1025B00035510A0804E20A0E356F000E366F3CC131
:1025C00000F03DC101F03EC102F03FC103F007EC55
:1025D00008F000C042F101C043F102C044F103C061
:1025E00045F1425143114411451142E00A0E046E77
:1025F000000E056E066E076E42C100F043C101F089
:1026000044C102F045C103F0EAEC0BF008C000F051
:1026100009C001F00AC002F00BC003F0000E046E06
:10262000031808E10450021805E10450011802E102
:102630000050000A1DE1010E355F000E365B0A0EE8
:10264000046E000E056E066E076E42C100F043C1B7
:1026500001F044C102F045C103F0EAEC0BF000C008
:1026600042F101C043F102C044F103C045F1B9D7C2
:10267000800E3619006E800E005C02E13751355D28
:1026800021E23551375D4E6F29EC05F000C004F0B2
:1026900001C005F002C006F003C007F03CC100F025
:1026A0003DC101F03EC102F03FC103F06CEC04F00B
:1026B00000C03CF101C03DF102C03EF103C03FF15A
:1026C00035C137F1050E01013525006E000E3621AA
:1026D000016E0050385F0150395B3551361103E10E
:1026E0003BB701D004D0010E385F000E395B030EFA
:1026F0003A15006E3BC101F0000E011600500110AA
:1027000004E0010E385F000E395B3AA539D03AA3D8
:1027100012D03AA103D02D0E2D6F02D02B0E2D6FAB
:1027200026C1E1FF27C1E2FF2DC1E6FF264B272B83
:10273000464B472B0CD03AA10AD026C1E1FF27C156
:10274000E2FF200EE66E264B272B464B472B800ED2
:10275000006E800E3919005C02E1385100080FE26A
:1027600026C1E1FF27C1E2FF300EE66E264B272B84
:10277000464B472B010E385F000E395BE8D73AD045
:102780003AB718D0800E006E800E3919005C02E155
:10279000385100080FE226C1E1FF27C1E2FF200EF9
:1027A000E66E264B272B464B472B010E385F000E5B
:1027B000395BE8D73AA312D03AA103D02D0E2E6F81
:1027C00002D02B0E2E6F26C1E1FF27C1E2FF2EC1E2
:1027D000E6FF264B272B464B472B0CD03AA10AD0BD
:1027E00026C1E1FF27C1E2FF200EE66E264B272B14
:1027F000464B472B3CC100F03DC101F03EC102F009
:102800003FC103F007EC08F000C042F101C043F102
:1028100002C044F103C045F137C100F0000E016E63
:10282000026E036E00360090013602360336003623
:102830000090013602360336290E0024F66E460E4D
:102840000120F76E000E0220F86E0900F5CF04F0AB
:102850000900F5CF05F00900F5CF06F00900F5CF26
:1028600007F042C100F043C101F044C102F045C18C
:1028700003F0EAEC0BF0300E002626C1E1FF27C181
:10288000E2FF00C0E6FF264B272B464B472B355176
:10289000361103E13BB701D06FD026C1E1FF27C15C
:1028A000E2FF2E0EE66E264B272B464B472B375169
:1028B000355F000E365B37534DE0370737C100F008
:1028C000000E016E026E036E003600900136023675
:1028D000033600360090013602360336290E0024F6
:1028E000F66E460E0120F76E000E0220F86E09000B
:1028F000F5CF04F00900F5CF05F00900F5CF06F09B
:102900000900F5CF07F042C100F043C101F044C116
:1029100002F045C103F0EAEC0BF00A0E046E000E63
:10292000056E066E076EEAEC0BF008C000F009C0F9
:1029300001F00AC002F00BC003F0300E002626C1E1
:10294000E1FF27C1E2FF00C0E6FF264B272B464BE5
:10295000472BB1D7355136110FE026C1E1FF27C112
:10296000E2FF300EE66E264B272B464B472B010E1F
:10297000355F000E365BEED73AAB0BD026C1E1FFD8
:1029800027C1E2FF450EE66E264B272B464B472B11
:102990000AD026C1E1FF27C1E2FF650EE66E264B95
:1029A000272B464B472B800E4119006E800E005C92
:1029B00002E1000E405D11E240510008406F4151BC
:1029C000000E415726C1E1FF27C1E2FF2D0EE66E42
:1029D000264B272B464B472B0AD026C1E1FF27C1A8
:1029E000E2FF2B0EE66E264B272B464B472B0A0E9B
:1029F000046E000E056E40C100F041C101F055ECBF
:102A000009F0300E002626C1E1FF27C1E2FF00C019
:102A1000E6FF0101264B272B464B472B0A0E046E7F
:102A2000000E056E40C100F041C101F055EC09F007
:102A300008C000F009C001F0300E002626C1E1FFF9
:102A400027C1E2FF00C0E6FF0101264B272B464BC2
:102A5000472B3AA71AD0800E006E800E3919005C01
:102A600002E13851000811E226C1E1FF27C1E2FF6F
:102A7000200EE66E264B272B464B472B010E385F68
:102A8000000E395B38513911EFE165EF0DF03BA3D2
:102A9000F3D0800E4119006E800E005C02E1000E42
:102AA000405D0AE2010E405D006E000E4159016E6C
:102AB0000050355F0150365B3CC100F03DC101F074
:102AC0003EC102F03FC103F007EC08F000C042F144
:102AD00001C043F102C044F103C045F1010E376F5C
:102AE00037510A0A34E037C100F0000E016E026E61
:102AF000036E003600900136023603360036009031
:102B0000013602360336290E0024F66E460E0120E9
:102B1000F76E000E0220F86E0900F5CF01F00900F3
:102B2000F5CF02F00900F5CF03F00900F5CF04F06E
:102B30000450455D08E10350445D05E10250435DEA
:102B400002E10150425D01E202D0372BC9D7375173
:102B5000355D4C6F000E36594D6F4CC135F14DC18E
:102B600036F142C100F043C101F044C102F045C159
:102B700003F0A7EC08F000C004F001C005F002C0AB
:102B800006F003C007F03CC100F03DC101F03EC1BA
:102B900002F03FC103F0A3EC08F000C048F101C00F
:102BA00049F102C04AF103C04BF14CC14EF129EC8E
:102BB00005F048C104F049C105F04AC106F04BC117
:102BC00007F0B7EC01F0000E046E000E056E000E6B
:102BD000066E7E0E076E47EC02F007EC08F000C0B0
:102BE00042F101C043F102C044F103C045F1355147
:102BF000361142E00A0E046E000E056E066E076E78
:102C000042C100F043C101F044C102F045C103F0EC
:102C1000EAEC0BF008C000F009C001F00AC002F0B5
:102C20000BC003F0000E046E031808E104500218F4
:102C300005E10450011802E10050000A1DE10A0EEE
:102C4000046E000E056E066E076E42C100F043C1B1
:102C500001F044C102F045C103F0EAEC0BF000C002
:102C600042F101C043F102C044F103C045F1010E3D
:102C7000355F000E365BBBD7800E006E800E3619B6
:102C8000005C02E135510C0816E335C14EF169ECE8
:102C90000AF03CC104F03DC105F03EC106F03FC161
:102CA00007F047EC02F000C03CF101C03DF102C06A
:102CB0003EF103C03FF13CC100F03DC101F03EC117
:102CC00002F03FC103F0046A056A066A076AB9ECBC
:102CD00009F0000ED8A4010E006E0052D8B477D0CF
:102CE0003CC100F03DC101F03EC102F03FC103F024
:102CF00007EC08F0000E046E031808E104500218F7
:102D000005E10450011802E10050000A60E1800E64
:102D1000006E800E4119005C02E14051010857E24B
:102D200040C14EF129EC05F000C004F001C005F0EF
:102D300002C006F003C007F03CC100F03DC101F045
:102D40003EC102F03FC103F06CEC04F05F0E046E74
:102D5000700E056E090E066E810E076EEEEC08F021
:102D6000010ED8B0000E006E005206E0090E0101FF
:102D7000405F000E415B05D00101080E405F000E70
:102D8000415B40C14EF129EC05F000C004F001C0E8
:102D900005F002C006F003C007F03CC100F03DC1E1
:102DA00001F03EC102F03FC103F06CEC04F007EC0F
:102DB00008F000C042F101C043F102C044F103C079
:102DC00045F101013C6B3D6B3E6B3F6B38D03CC124
:102DD00000F03DC101F03EC102F03FC103F007EC3D
:102DE00008F000C042F101C043F102C044F103C049
:102DF00045F142C100F043C101F044C102F045C1B8
:102E000003F0A7EC08F000C004F001C005F002C018
:102E100006F003C007F03CC100F03DC101F03EC127
:102E200002F03FC103F0A3EC08F000C03CF101C088
:102E30003DF102C03EF103C03FF1406B416B010E1A
:102E4000376F37510A0A34E037C100F0000E016EC7
:102E5000026E036E003600900136023603360036ED
:102E60000090013602360336290E0024F66E460E17
:102E70000120F76E000E0220F86E0900F5CF01F078
:102E80000900F5CF02F00900F5CF03F00900F5CFF6
:102E900004F00450455D08E10350445D05E1025033
:102EA000435D02E10150425D01E202D0372BC9D7F8
:102EB00037513525006E000E3621016E4051002637
:102EC000415101220050385F0150395B3BB704D0BB
:102ED0003551361101E104D0010E385F000E395B27
:102EE000030E3A15006E3BC101F0000E01160050B2
:102EF000011004E0010E385F000E395B3AA539D0AD
:102F00003AA312D03AA103D02D0E2F6F02D02B0E70
:102F10002F6F26C1E1FF27C1E2FF2FC1E6FF264B3D
:102F2000272B464B472B0CD03AA10AD026C1E1FFF4
:102F300027C1E2FF200EE66E264B272B464B472B80
:102F4000800E006E800E3919005C02E138510008D5
:102F50000FE226C1E1FF27C1E2FF300EE66E264BED
:102F6000272B464B472B010E385F000E395BE8D705
:102F70003AD03AB718D0800E006E800E3919005C36
:102F800002E1385100080FE226C1E1FF27C1E2FF4C
:102F9000200EE66E264B272B464B472B010E385F43
:102FA000000E395BE8D73AA312D03AA103D02D0E18
:102FB000306F02D02B0E306F26C1E1FF27C1E2FF38
:102FC00030C1E6FF264B272B464B472B0CD03AA1AE
:102FD0000AD026C1E1FF27C1E2FF200EE66E264B94
:102FE000272B464B472B37C100F0370700524CE0E8
:102FF00037C100F0000E016E026E036E00360090C5
:1030000001360236033600360090013602360336AA
:10301000290E0024F66E460E0120F76E000E0220E7
:10302000F86E0900F5CF04F00900F5CF05F00900AE
:10303000F5CF06F00900F5CF07F042C100F043C11B
:1030400001F044C102F045C103F0EAEC0BF00A0EB6
:10305000046E000E056E066E076EEAEC0BF008C0FB
:1030600000F009C001F00AC002F00BC003F0300EFE
:10307000002626C1E1FF27C1E2FF00C0E6FF264B84
:10308000272B464B472BAFD7800E006E800E411981
:10309000005C02E1405100080FE226C1E1FF27C1B8
:1030A000E2FF300EE66E264B272B464B472B010ED8
:1030B000405F000E415BE8D7800E000A006E800E74
:1030C0003619005C02E13551080803E2080E376F3B
:1030D00002D035C137F13751355F000E365B3753BB
:1030E00003E13BB701D00AD026C1E1FF27C1E2FFCF
:1030F0002E0EE66E264B272B464B472B37C14EF143
:1031000029EC05F03CC104F03DC105F03EC106F0DC
:103110003FC107F0B7EC01F0D0EC09F000C042F17C
:1031200001C043F102C044F103C045F137534DE003
:10313000370737C100F0000E016E026E036E0036D5
:103140000090013602360336003600900136023612
:103150000336290E0024F66E460E0120F76E000E8F
:103160000220F86E0900F5CF04F00900F5CF05F054
:103170000900F5CF06F00900F5CF07F042C100F0D5
:1031800043C101F044C102F045C103F0EAEC0BF089
:103190000A0E046E000E056E066E076EEAEC0BF06A
:1031A00008C000F009C001F00AC002F00BC003F033
:1031B000300E002626C1E1FF27C1E2FF00C0E6FF76
:1031C000264B272B464B472BB1D7355136110FE0F5
:1031D00026C1E1FF27C1E2FF300EE66E264B272B0A
:1031E000464B472B010E355F000E365BEED73AA7F4
:1031F0001AD0800E006E800E3919005C02E1385141
:10320000000811E226C1E1FF27C1E2FF200EE66EB1
:10321000264B272B464B472B010E385F000E395BA0
:1032200038513911EFE165EF0DF0C00E3A15016E1E
:103230003BC102F0000E0216000E021802E1000E61
:103240000118D8A480D03AA927D02BC1E9FF2CC1FE
:10325000EAFFEECF00F0EECF01F000C0E9FF01C0C1
:10326000EAFFEECF42F1EECF43F1EECF44F1EECFE5
:1032700045F12BC1E9FF2CC1EAFF040EEE24006EDC
:10328000000EEE20016E2BC1E1FF2CC1E2FF00C059
:10329000E6FF01C0E6FF2FD02BC1E9FF2CC1EAFFFA
:1032A000EECF00F0EECF01F000C0E9FF01C0EAFF71
:1032B000EECF00F0EECF01F0000E01BEFF0E026E69
:1032C000036E00C042F101C043F102C044F103C0EB
:1032D00045F12BC1E9FF2CC1EAFF020EEE24006E7E
:1032E000000EEE20016E2BC1E1FF2CC1E2FF00C0F9
:1032F000E6FF01C0E6FF800E4519006E800E005CFF
:1033000008E1000E445D05E1000E435D02E1000EA0
:10331000425D18E2030E3A13000E3B13006A016A85
:10332000026A036A4251005E4351015A4451025AF3
:103330004551035A00C042F101C043F102C044F1BB
:1033400003C045F14ED03AA927D02BC1E9FF2CC1CB
:10335000EAFFEECF00F0EECF01F000C0E9FF01C0C0
:10336000EAFFEECF42F1EECF43F1EECF44F1EECFE4
:1033700045F12BC1E9FF2CC1EAFF040EEE24006EDB
:10338000000EEE20016E2BC1E1FF2CC1E2FF00C058
:10339000E6FF01C0E6FF25D02BC1E9FF2CC1EAFF03
:1033A000EECF00F0EECF01F000C0E9FF01C0EAFF70
:1033B000EECF42F1EECF43F1000E446F456F2BC1CB
:1033C000E9FF2CC1EAFF020EEE24006E000EEE2093
:1033D000016E2BC1E1FF2CC1E2FF00C0E6FF01C07E
:1033E000E6FF000E361902E1000E35190FE1000E5E
:1033F000006E451908E10050441905E100504319D9
:1034000002E14251000A02E1354B362BC00E3A155B
:10341000006E00C005F0AED0010E376F37510A0ABA
:1034200034E037C100F0000E016E026E036E00360C
:10343000009001360236033600360090013602361F
:103440000336290E0024F66E460E0120F76E000E9C
:103450000220F86E0900F5CF01F00900F5CF02F067
:103460000900F5CF03F00900F5CF04F00450455DE5
:1034700008E10350445D05E10250435D02E1015063
:10348000425D01E202D0372BC9D782D0010E376FDF
:103490003751080A34E037C100F0000E016E026EA9
:1034A000036E003600900136023603360036009077
:1034B000013602360336510E0024F66E460E012008
:1034C000F76E000E0220F86E0900F5CF01F009003A
:1034D000F5CF02F00900F5CF03F00900F5CF04F0B5
:1034E0000450455D08E10350445D05E10250435D31
:1034F00002E10150425D01E202D0372BC9D748D02A
:10350000010E376F37510C0A34E037C100F0000E5E
:10351000016E026E036E00360090013602360336ED
:1035200000360090013602360336F90E0024F66E9E
:10353000450E0120F76E000E0220F86E0900F5CF4F
:1035400001F00900F5CF02F00900F5CF03F0090002
:10355000F5CF04F00450455D08E10350445D05E1FA
:103560000250435D02E10150425D01E202D0372B7F
:10357000C9D70ED00550000AD8B44ED70550C00A9E
:10358000D8B44AD70550800A81E00550400AB8E017
:10359000800E006E800E3619005C02E13551375DF9
:1035A00003E235C137F10DD0800E3619006E800E62
:1035B000005C02E13751355D04E237C135F1000EA0
:1035C000366F385139110EE0030E3A15006E3BC1CB
:1035D00001F0000E01160050011004E0010E385FEA
:1035E000000E395B800E3619006E800E3919005CB2
:1035F00002E13851355D05E23551385F3651395BAE
:1036000002D0386B396BC40E3A15016E3B51080B72
:10361000026E0250080A02E1400E011808E138511A
:10362000391104E0010E385F000E395B1CD0C00E6A
:103630003A15016E3B51080B026E0250080A02E176
:10364000800E011810E1800E006E800E3919005CAA
:1036500002E13851020805E2020E385F000E395BC4
:1036600002D0386B396B3AA55DD03AA312D03AA19B
:1036700003D02D0E316F02D02B0E316F26C1E1FF2A
:1036800027C1E2FF31C1E6FF264B272B464B472BD4
:1036900034D03AA10BD026C1E1FF27C1E2FF200EB2
:1036A000E66E264B272B464B472B27D0C00E3A15EC
:1036B000016E3B51080B026E0250080A02E1800EB7
:1036C00001181BE126C1E1FF27C1E2FF300EE66EC3
:1036D000264B272B464B472B3AAB03D0580E326F65
:1036E00002D0780E326F26C1E1FF27C1E2FF32C15E
:1036F000E6FF264B272B464B472B3851391111E05B
:1037000026C1E1FF27C1E2FF300EE66E264B272BD4
:10371000464B472B010E385F000E395B385139118B
:10372000EFE174D03851391113E03AB711D026C106
:10373000E1FF27C1E2FF200EE66E264B272B464B0A
:10374000472B010E385F000E395B38513911EFE11C
:103750003AA312D03AA103D02D0E336F02D02B0E14
:10376000336F26C1E1FF27C1E2FF33C1E6FF264BDD
:10377000272B464B472B0CD03AA10AD026C1E1FF9C
:1037800027C1E2FF200EE66E264B272B464B472B28
:10379000C00E3A15016E3B51080B026E0250080A2A
:1037A00002E1400E01180BE126C1E1FF27C1E2FF53
:1037B000300EE66E264B272B464B472B27D0C00EEC
:1037C0003A15016E3B51080B026E0250080A02E1E5
:1037D000800E01181BE126C1E1FF27C1E2FF300E78
:1037E000E66E264B272B464B472B3AAB03D0580EA1
:1037F000346F02D0780E346F26C1E1FF27C1E2FF9B
:1038000034C1E6FF264B272B464B472B800E006E1C
:10381000800E3619005C02E13551375D0BE226C19E
:10382000E1FF27C1E2FF300EE66E264B272B464B09
:10383000472BECD735C100F036C101F0010E355FE2
:10384000000E365B00500110D8B42AD1C00E3A15D4
:10385000006E00C048F10AD135C100F036C101F058
:10386000000E36BFFF0E026E036E0036009001366A
:103870000236033600360090013602360336290E32
:103880000024F66E460E0120F76E000E0220F86E40
:103890000900F5CF04F00900F5CF05F00900F5CFD8
:1038A00006F00900F5CF07F042C100F043C101F076
:1038B00044C102F045C103F0EAEC0BF00A0E046EBD
:1038C000000E056E066E076EEAEC0BF008C000F005
:1038D00009C001F00AC002F00BC003F0300E002452
:1038E000376FD3D03AAB45D035C100F036C101F0C7
:1038F000000E36BFFF0E026E036E003600900136DA
:103900000236033600360090013602360336510E79
:103910000024F66E460E0120F76E000E0220F86EAF
:103920000900F5CF04F00900F5CF05F00900F5CF47
:1039300006F00900F5CF07F042C100F043C101F0E5
:1039400044C102F045C103F0EAEC0BF00F0E001683
:10395000000E011602160316820E0024F66E460EA5
:103960000120F76E000E0220F86E0900F5CF37F146
:1039700044D035C100F036C101F0000E36BFFF0E55
:10398000026E036E003600900136023603360036B2
:103990000090013602360336510E0024F66E460EB4
:1039A0000120F76E000E0220F86E0900F5CF04F03A
:1039B0000900F5CF05F00900F5CF06F00900F5CFB5
:1039C00007F042C100F043C101F044C102F045C11B
:1039D00003F0EAEC0BF00F0E0016000E01160216B3
:1039E0000316710E0024F66E460E0120F76E000ECF
:1039F0000220F86E0900F5CF37F147D035C100F04D
:103A000036C101F0000E36BFFF0E026E036E0036A7
:103A10000090013602360336003600900136023639
:103A20000336F90E0024F66E450E0120F76E000EE7
:103A30000220F86E0900F5CF04F00900F5CF05F07B
:103A40000900F5CF06F00900F5CF07F042C100F0FC
:103A500043C101F044C102F045C103F0EAEC0BF0B0
:103A6000070E0014376F300E37270FD04851000A69
:103A7000D8B4F2D64851C00AD8B4EED64851800A1C
:103A8000D8B430D74851400AB9E026C1E1FF27C178
:103A9000E2FF37C1E6FF264B272B464B472BCAD602
:103AA0003AA71AD0800E006E800E3919005C02E130
:103AB0003851000811E226C1E1FF27C1E2FF200EC4
:103AC000E66E264B272B464B472B010E385F000E28
:103AD000395B38513911EFE165EF0DF046C100F067
:063AE00047C101F01200D5
:0A3AE600000EACB2010E006E1200DB
:0E3AF000ACB202D00000FCD726C1ADFF120020
:103AFE00ABA202D0AB98AB889EBA01D0FDD7AECFA9
:043B0E0000F01200B1
:0C3B12009EB801D0FDD726C1ADFF120007
:103B1E00040E0C6E3A0E0D6E0D2EFED70C2EFCD72B
:043B2E000000120081
:103B32003550010A04E1356AF6C000F001D0006A8E
:023B420012006F
:103B4400D0DF005201E11FD0930E01011B25F66E58
:103B5400460E1C21F76E000EF86E000E1CBFFF0E01
:103B6400F8220900F5CF26F1C1DF030E0B6E8A0E91
:103B74000C6E550E0D6E0D2EFED70C2EFCD70B2E93
:083B8400FAD700000000120056
:103B8C00200E0101246F010E256F1BC126F11CC1F3
:103B9C0027F11DC128F11EC129F11FC12AF1240EE4
:103BAC002B6F010E2C6F60EC0DF000C022F101C0E8
:103BBC0023F100501B25E16E01501C21E26EE66AD8
:0A3BCC0022C100F023C101F0120035
:103BD6001BC1E9FF1CC1EAFFEE50000A0BE01BC146
:103BE600E9FF1CC1EAFFEECF26F190DF01011B4B76
:063BF6001C2BEED71200AB
:103BFC0001011D6B1E6B1F6B7CDF01011E4B1F2B0C
:103C0C001D511B25D96E000E1C21DA6E0050DE18DA
:103C1C0002E11D2B01D01D6B1D511B25E96E000E01
:103C2C001C21EA6EEE50000AE7E11EC100F01FC134
:043C3C0001F0120081
:103C4000EB0E01011B6F000E1C6FC5DF300E010172
:103C50001125266F5EDFE50E01011B6F000E1C6F44
:103C6000BADFD70E01011B6F000E1C6FC7DF1200F9
:103C7000DA0E01011B6F000E1C6FADDF11C11BF1CD
:103C800012C11CF1A8DF4A0E01011B6F000E1C6F50
:103C9000A2DF13C11BF114C11CF19DDF4E0E010107
:103CA0001B6F000E1C6F97DF390E01011B6F000E9A
:063CB0001C6FA4DF1200EE
:103CB600950E01011B6F000E1C6F8ADF7F0E01013E
:103CC6001B6F000E1C6F97DF820E1B6F000E1C6FA2
:043CD60092DF120067
:103CDA00F00E0101016F3A0E026F260E036F010EFC
:103CEA00046F660E056F430E066F000E076F000E17
:103CFA00086FFF0E0001F76FFF0EF86F000EF96FE5
:103D0A00000EFA6FE60EFB6F3A0EFC6F000EFD6FA7
:103D1A00000EFE6FAC8A900EAB6E948E949C9EAA97
:0A3D2A0003D0AECF00F0FBD712006B
:103D3400770E01011B6F000E1C6F4BDF6A0E010131
:0A3D44001B6F000E1C6F58DF120009
:103D4E00A10E01011B6F000E1C6F3EDF010111530E
:103D5E0004E0310E266FD6DE04D0300E0101266F40
:103D6E00D1DE7C0E01011B6F000E1C6F2DDF740E59
:0C3D7E0001011B6F000E1C6F3ADF1200E9
:103D8A000101176B13C101F0010E006E015004E02E
:103D9A0000360090FF0FFBD700C016F111C1E9FFF2
:103DAA0012C1EAFF0050EE14016E0152010ED8A4AE
:103DBA00000E006E1551001A18E01451000804E2B2
:103DCA00A9DEA8DE1407F9D711C1E9FF12C1EAFF7B
:103DDA001651EE14016E0152010ED8A4000E006EA7
:103DEA001551001A02E0FF0E176F17C100F01200FA
:103DFA000101126B136B800E1319006E800E005CAA
:103E0A0002E1060E125D21E28FDE00C011F10052BE
:103E1A000AE0140E01011225E16E010E1321E26E71
:103E2A0011C1E6FF01D0F0D70101140E1225E96E87
:103E3A00010E1321EA6EEE50530A04E1FF0E126FCF
:103E4A00FF0E136F124B132BD6D71A6B126B136B11
:103E5A00800E1319006E800E005C02E1060E125DE0
:103E6A0017E2140E1225E96E010E1321EA6E300EC6
:103E7A00EE5C0AE3140E1225E96E010E1321EA6EB6
:103E8A00EE50390801E301D050D0124B132BE0D782
:103E9A00300E145D006E016A000E015A0A0E046E9D
:103EAA00000E056EBAEC08F0300E155D026E036A5C
:103EBA00000E035A02500024196E035001201A6E94
:103ECA00300E165D006E016A000E015A0A0E046E6B
:103EDA00000E056EBAEC08F0300E175D026E036A2A
:103EEA00000E035A025000241B6E035001201C6E60
:103EFA00300E185D006E016A000E015A0A0E046E39
:103F0A00000E056EBAEC08F0300E195D026E036AF7
:103F1A00000E035A025000241D6E035001201E6E2B
:0C3F2A000A0E1B6F000E1C6F08DE120058
:103F3600C90E01011B6F000E1C6F4ADEC40E010183
:0A3F46001B6F000E1C6F57DE120007
:103F50000001C8510101121903E111510001C719F3
:103F600003E1006A016A11D0816A11C1C7F012C170
:103F7000C8F0010E0101115D1B6F000E12591C6F7C
:0C3F8000E1DD010E006E000E016E12006B
:103F8C00260E01011B6F000E1C6F1FDE330E0B6E15
:103F9C00BB0E0C6EDF0E0D6E0D2EFED70C2EFCD74D
:0A3FAC000B2EFAD7000000001200EF
:103FB600B40E01011B6F000E1C6F0ADEC10E01015B
:103FC6001B6F000E1C6F04DEE80E01011B6F000E56
:103FD6001C6F11DE91DD00503E0A01E0FBD7120096
:103FE6000101166B176B186B196B1A6B3C0E1B6F66
:103FF600000E1C6FEDDD01011151010A06E1590E9B
:104006001B6F000E1C6FE4DD06D05D0E01011B6FF9
:10401600000E1C6FDDDD520E01011B6F000E1C6FC2
:10402600D7DD12C11BF113C11CF1D2DD560E010101
:104036001B6F000E1C6FCCDD160E01011B6F010EEF
:104046001C6FAA0E1D6F460E1E6F000E1F6F14C149
:1040560020F115C121F197DD160E1B6F010E1C6FA5
:10406600B7DD360E01011B6F000E1C6FB1DD210E90
:0C40760001011B6F000E1C6FBEDD12006C
:10408200A50E01011B6F000E1C6FA4DD300E010195
:104092001125266F3DDDB10E01011B6F000E1C6F55
:1040A20099DD9E0E01011B6F000E1C6FA6DD120032
:1040B200B886020EB06E080EAF6EAC840DDE829032
:1040C200030E0B6E8A0E0C6E550E0D6E0D2EFED764
:1040D2000C2EFCD70B2EFAD70000000082801A0E9D
:1040E2000B6E5E0E0C6E6E0E0D6E0D2EFED70C2E2E
:1040F200FCD70B2EFAD70000DDDD116B27DE19DEAF
:10410200010E116F9CDD2A0E116F000E126F610EEF
:10411200136F000E146FABDD010E116F880E126F5C
:10412200000E136FB80E146F0B0E156F5BDF846AEF
:10413200966A8480010E116FA3DF3CDF9E9A9D8AEE
:06414200F28EF28C120067
:1041480001010D6B0E6B09C100F00AC101F00A0EE6
:10415800046E000E056EBAEC08F0800E0E19026EA1
:10416800800E0118025C02E100500D5DD8B0EED05F
:10417800DCDC00C000F10050540A0FE124500108B3
:10418800246E2550000E2556030E242401011B6FB2
:10419800000E25201C6FD2DC8ED001010051440A8C
:1041A8000CE1176A186A000E0001C81902E1030E33
:1041B800C71902E1816ACAD07ED0010100514E0AB6
:1041C8000EE1010E176E000E186E000E0001C819E0
:1041D80002E1030EC71902E1816AB8D06CD001016F
:1041E8000051490A22E1010E0001C75D01011B6F60
:1041F800000E0001C85901011C6FA0DC030E0B6EF4
:104208008A0E0C6E550E0D6E0D2EFED70C2EFCD799
:104218000B2EFAD700000000030E242401011B6FA7
:10422800000E25201C6F8ADC46D001010051530A7C
:104238000BE1DFDD000E0001C81902E1030EC7190A
:1042480002E1816A83D037D0010100515A0A08E19E
:10425800F29E849097DE0101116B0FDF68DE2BD090
:10426800000E251802E1010E241825E1300E005D2C
:10427800016E026A000E025A01C00BF102C00CF175
:10428800800E0218006E800E005C02E1010E015CD7
:1042980012E3800E006E800E0C19005C02E10B51D7
:1042A800030809E30BC111F10CC112F14DDE0050F6
:1042B800011001E04BD001010F6B106B800E10193B
:1042C800006E800E005C02E1030E0F5D2EE2810E8F
:1042D800116F0F0E126F0FC113F10A0E146F156BC9
:1042E80050DD00521EE0000E251802E1000E2418D1
:1042F80018E1810E116F0F0E126F0FC113F10A0E24
:10430800146F156B3EDD005201E0F3D7010E0F2547
:10431800116F000E1021126F17DE0050011001E01E
:1043280015D001010F4B102BC9D7030E0B6E8A0E47
:104338000C6E550E0D6E0D2EFED70C2EFCD70B2EC7
:0E434800FAD7000000000D4B0E2BFDD6120020
:104356000900F5CFE6FF0006FBE10106F9E11200D0
:10436600AECF01F0ABA202D0AB98AB8801C000F093
:02437600120033
:10437800000E0001C81902E1010EC7190FE1080E6D
:10438800816E050E01011B6F000E1C6FA2EC1DF063
:1043980019C009F11AC00AF1D3DE77D0000E000166
:1043A800C81902E1020EC7190BE0000EC81902E194
:1043B800030EC71904E11750181001E001D020D0EE
:1043C8008178380E8114016E000E000A02E1100E89
:1043D800011804E10001070EFF6F03D00001060E6B
:1043E800FF6FFFC01BF1000EFFBFFF0E01011C6F26
:1043F800A2EC1DF01FC009F120C00AF1A1DE45D0D2
:10440800000E0001C81902E1030EC7193EE1380E7B
:104418008114016E000E000A02E1080E01180FE176
:10442800100E816E070E01011B6F000E1C6FA2ECAF
:104438001DF01BC009F11CC00AF182DE26D0380E1F
:104448008114016E000E000A02E1100E01180FE13E
:10445800200E816E080E01011B6F000E1C6FA2EC6E
:104468001DF01DC009F11EC00AF16ADE0ED0080E4B
:10447800816E050E01011B6F000E1C6FA2EC1DF072
:0C44880019C009F11AC00AF15BDE120035
:104494000F0EC112070EB412070E936E816A07DE67
:0244A400120004
:0C44A60057EC23F0F4DF65DFFED7FFD7F2
:1046AE0010EE17F0DF0E006E010E016EB20EF66EFA
:0E46BE00440EF76E000EF86EABEC21F0120009
:0244B200000008
:0844B400050003000A000100ED
:0344BC004F4B0063
:0244BF000000FB
:0444C1002B2B2B0076
:0B44C500494F545F41495F4C414200E9
:0144D00000EB
:0344D1000D0A00D1
:0344D4004F4B004B
:0E44D70041542B43495053544152543D22004E
:0444E500222C220063
:0444E900220D0A0096
:0444ED00222C22005B
:0344F100222C007A
:0444F40054435000DD
:0444F80055445000D7
:0944FC00724337594E55714D0011
:034505004F4B0019
:07450800286E756C6C2900A0
:03450F004F4B000F
:0545120041540D0A00F8
:034517000D0A008A
:03451A004F4B0004
:06451D0072656164790083
:0D4523003139322E3136382E312E36390026
:0945300041542B5253540D0A00B2
:034539004F4B00E5
:04453C0041544500A1
:0C45400041542B4349504D4F44453D0071
:03454C000D0A0055
:0D454F0041542B43495053454E440D0A0082
:03455C000D0A0045
:03455F004F4B00BF
:02456200030054
:0E45640041542B434950434C4F53450D0A0020
:034572004F4B00AC
:0B45750041542B43574A41503D2200A7
:034580000D0A0021
:034583004F4B009B
:0B45860041542B43574D4F44453D006E
:104591000000007FCDCC4C7B0AD723786F120375C6
:1045A10017B75171ACC5276EBD37066B95BF5667FE
:1045B10077CC2B645F700961FFE65B5D08E53C3CED
:0445C1006042221B17
:1045C5000000007F000020820000488500007A88F6
:1045D50000401C8C0050438F0024749280961896DE
:1045E50020BC3E99286B6E9CF90215A0EC782DC174
:0445F500CAF249E2DB
:1045F9000100000008000000400000000002000067
:1046090000100000008000000000040000002000ED
:104619000000000100000008000000400000000048
:10462900010000000A00000064000000E803000027
:1046390010270000A086010040420F0080969800D4
:0846490000E1F50500CA9A3BEF
:104651000100000010000000000100000010000037
:104661000000010000001000000000010000001027
:1046710030313233343536373839616263646566D7
:014681000038
:104682003031323334353637383941424344454686
:014692000027
:0B4693003132334D41524F594745531F
:06469E0054444E49535A3A
:0646A400080010002000D8
:0346AA0025750073
:020000040030CA
:0E000000000C1F1EFF8381FF0FC00FE00F409A
:00000001FF
