:100000002AEF03F00000000000EF00F00000000005
:0A0010000000000000000000F3D71C
:0E001C00ACB202D00000FCD74AC0ADFF12000B
:0A002A00000EACB2010E006E1200D1
:100034000B6A0A6A096A00500402F4CF09F0F3CF8C
:1000440008F001500502F4CF0BF0F3CF0AF0005092
:100054000502F3500926F4500A22E86A0B220150E3
:100064000402F3500926F4500A22E86A0B2208C05D
:1000740000F009C001F00AC002F00BC003F0120046
:0A008400000E9EBA010E006E12007D
:10008E00AECF01F0ABA202D0AB98AB8801C000F0AE
:02009E0012004E
:1000A000C4DF005201E11ED0820E4824F66E060E17
:1000B0004920F76E000EF86E000E49BEFF0EF822C2
:1000C0000900F5CF4AF0AADF030E0B6E8A0E0C6E04
:1000D000550E0D6E0D2EFED70C2EFCD70B2EFAD71B
:0600E00000000000120008
:1000E600040E0C6E3A0E0D6E0D2EFED70C2EFCD79E
:0400F60000001200F4
:1000FA00436A3FC001F0010E006E015004E0003671
:10010A000090FF0FFBD700C042F03DC0E9FF3EC0A0
:10011A00EAFF0050EE14016E0152010ED8A4000E3F
:10012A00006E4150001A18E04050000804E2D6DF81
:10013A00D5DF4006F9D73DC0E9FF3EC0EAFF42508D
:10014A00EE14016E0152010ED8A4000E006E415049
:0E015A00001A02E0FF0E436E43C000F01200D8
:100168003D6A3E6A800E3E18006E800E005C02E119
:10017800060E3D5C21E282DF005201E1FCD73F0E12
:100188003D24466E000E3E20476E7DDF46C0E1FFEF
:1001980047C0E2FF00C0E6FF3F0E3D24E96E000EB7
:1001A8003E20EA6EEE50530A04E1FF0E3D6EFF0E4C
:1001B8003E6E3D4A3E2AD6D7456A3D6A3E6A800E63
:1001C8003E18006E800E005C02E1060E3D5C17E2F0
:1001D8003F0E3D24E96E000E3E20EA6E300EEE5CC6
:1001E8000AE33F0E3D24E96E000E3E20EA6EEE5013
:1001F800390801E301D04DD03D4A3E2AE0D7300E00
:100208003F5C006E016A000E015A0A0E046E000E71
:10021800056E0CDF300E405C026E036A000E035A56
:1002280002500024176E03500120186E300E415CF6
:10023800006E016A000E015A0A0E046E000E056E69
:10024800F5DE300E425C026E036A000E035A02505D
:100258000024196E035001201A6E300E435C006EA4
:10026800016A000E015A0A0E046E000E056EDEDEEB
:10027800300E445C026E036A000E035A02500024DA
:100288001B6E035001201C6E0A0E486E000E496E4C
:0402980003DF12006E
:10029C001C0E276E000E286E4A0E296E000E2A6E5A
:1002AC008E0E236E000E246E000E256E000E266E32
:1002BC00840E2F6E000E306E000E316E000E326EFC
:1002CC002A0E2B6E000E2C6E000E2D6E000E2E6E56
:1002DC00AC8A900EAB6E948E949C9EAA03D0AECF3B
:0602EC0000F0FBD7120038
:0E02F200C8DE005202E1006A01D0C8DE120030
:1003000016503E1802E13D50151803E1006A016ADB
:1003100010D0816A3DC015F03EC016F0010E3D5C64
:10032000486E000E3E58496EBBDE010E006E000E98
:04033000016E120048
:10033400B886020EB06E080EAF6EAC84ADDF030E4D
:100344000B6E8A0E0C6E550E0D6E0D2EFED70C2EF6
:0C035400FCD70B2EFAD7000000001200AE
:10036000396A3A6A34C000F035C001F00A0E046EF2
:10037000000E056E5FDE800E3A18026E800E0118C8
:10038000025C02E10050395CD8B0D3D0B2DF00C0CB
:1003900038F00050540A0EE11F5001081F6E205023
:1003A000000E2056030E1F24486E000E2020496EBA
:1003B00077DE76D03850440A0BE1216A226A000EBB
:1003C000161802E1030E151802E1816AB2D068D056
:1003D00038504E0A0DE1010E216E000E226E000E05
:1003E000161802E1030E151802E1816AA2D058D056
:1003F0003850490A1DE1010E155C486E000E165872
:10040000496E4EDE030E0B6E8A0E0C6E550E0D6E8F
:100410000D2EFED70C2EFCD70B2EFAD700000000B5
:10042000030E1F24486E000E2020496E39DE38D09E
:100430003850530A0AE198DE000E161802E1030E46
:10044000151802E1816A75D02BD0000E201802E148
:10045000010E1F1825E1300E385C016E026A000E95
:10046000025A01C036F002C037F0800E0218006E4A
:10047000800E005C02E1010E015C12E3800E006E52
:10048000800E3718005C02E13650030809E336C0DD
:100490003DF037C03EF034DF0050011001E049D09C
:1004A0003B6A3C6A800E3C18006E800E005C02E1E4
:1004B000030E3B5C2DE2810E3D6E0F0E3E6E3BC087
:1004C0003FF00A0E406E416A18DE00521EE0000E38
:1004D000201802E1000E1F1818E1810E3D6E0F0E6C
:1004E0003E6E3BC03FF00A0E406E416A06DE00528F
:1004F00001E0F3D7010E3B243D6E000E3C203E6E22
:10050000FFDE0050011001E014D03B4A3C2ACAD75C
:10051000030E0B6E8A0E0C6E550E0D6E0D2EFED751
:100520000C2EFCD70B2EFAD700000000394A3A2ACD
:0405300019D71200C5
:100534000900F5CFE6FF0006FBE10106F9E1120030
:100544000F0EC112070EB412070E936E816AF0DE0D
:02055400120093
:10055600000E161802E1010E15180DE1080E816E47
:10056600050E486E000E496E98DD17C034F018C0AF
:1005760035F0F3DE6BD0000E161802E1020E1518E8
:100586000BE0000E161802E1030E151804E12150C7
:10059600221001E001D01CD08178380E8114016E42
:1005A600000E000A02E1100E011803E1070E336E79
:1005B60002D0060E336E33C048F0000E33BEFF0E77
:1005C600496E6BDD1DC034F01EC035F0C6DE3ED070
:1005D600000E161802E1030E151838E1380E8114C4
:1005E600016E000E000A02E1080E01180DE1100E60
:1005F600816E070E486E000E496E4FDD19C034F04D
:100606001AC035F0AADE22D0380E8114016E000E13
:10061600000A02E1100E01180DE1200E816E080E8F
:10062600486E000E496E39DD1BC034F01CC035F033
:1006360094DE0CD0080E816E050E486E000E496ED3
:0E0646002CDD17C034F018C035F087DE12002E
:10065400030E156E166A050E176E186A030E196ED0
:100664001A6A0A0E1B6E1C6A010E1D6E1E6A1F6A30
:0E067400206A216A226A64DF6CDFFED7FFD79E
:0B0682003132334D41524F5947455370
:06068D000800100020002F
:0506930054444E4953E0
:020000040030CA
:0E000000240C1F1EFF8381FF0FC00FE00F4076
:00000001FF
