:1000000030EF01F00000000000EF00F00000000001
:0A0010000000000000000000F3D71C
:10001C00040E0C6E3A0E0D6E0D2EFED70C2EFCD768
:04002C0000001200BE
:10003000216A1DC001F0010E006E015004E000367F
:100040000090FF0FFBD700C020F01BC0E9FF1CC0D1
:10005000EAFF0050EE14016E0152010ED8A4000E0A
:10006000006E1F50001A18E01E50000804E2D6DF90
:10007000D5DF1E06F9D71BC0E9FF1CC0EAFF2050E0
:10008000EE14016E0152010ED8A4000E006E1F5036
:0E009000001A02E0FF0E216E21C000F01200E7
:08009E008D908D928D941200EB
:1000A600196A1A6A18501A5C02E11750195CD8B01E
:1000B60066D0810E1B6E0F0E1C6E1D6A0A0E1E6E1A
:1000C6001F6AB3DF005212E0810E1B6E0F0E1C6E0C
:1000D6001D6A0A0E1E6E1F6AA8DF005201E0F4D7E1
:1000E600010E156E000E166ED7DF49D0810E1B6EFF
:1000F6000F0E1C6E010E1D6E0A0E1E6E1F6A95DF18
:10010600005213E0810E1B6E0F0E1C6E010E1D6E4B
:100116000A0E1E6E1F6A89DF005201E0F3D7020E37
:10012600156E000E166EB8DF2AD0810E1B6E0F0EEE
:100136001C6E020E1D6E0A0E1E6E1F6A76DF0052C0
:1001460013E0810E1B6E0F0E1C6E020E1D6E0A0E44
:100156001E6E1F6A6ADF005201E0F3D7030E156EAA
:10016600000E166E99DF0BD0070E0C6E7D0E0D6E0F
:100176000D2EFED70C2EFCD7194A1A2A93D7120039
:100186000F0EC112070EB412816A8A6A9380938297
:100196009384846A8D6A969096929694030E0B6E5B
:1001A6008A0E0C6E550E0D6E0D2EFED70C2EFCD73C
:1001B6000B2EFAD7000000006FDF030E156E000E3F
:0401C600166E12009F
:1001CA00000E161802E1010E151807E18D80010EC6
:1001DA00176E000E186E62DF3DD0000E161802E18F
:1001EA00020E15180DE18D82E80E176E030E186EB9
:1001FA0055DF8D92E80E176E030E186E4FDF2AD068
:10020A00000E161802E1030E151824E18DA008D07D
:10021A008D908D82B80E176E0B0E186E3FDF1AD0B6
:10022A008DA208D08D928D84100E176E270E186E2F
:10023A0035DF10D08DA408D08D948D80880E176E6E
:10024A00130E186E2BDF06D08D80880E176E130ED4
:06025A00186E24DF120003
:0802600092DFB3DFFED7FFD7E8
:020000040030CA
:0E000000240C1F1EFF8381FF0FC00FE00F4076
:00000001FF
