:040000005EEF0AF0B5
:1000080000C01EF001C01DF002C01CF003C01BF0B0
:1000180004C01AF005C019F008C018F009C017F09C
:100028000AC016F00BC015F0E1CF25F0E2CF26F09C
:10003800E9CF23F0EACF24F0F5CF22F0F8CF1FF074
:10004800F7CF20F0F6CF21F0A1AA03D0A19A72EC45
:1000580009F022C0F5FF1FC0F8FF20C0F7FF21C03C
:10006800F6FF1EC000F01DC001F01CC002F01BC04E
:1000780003F01AC004F019C005F018C008F017C042
:1000880009F016C00AF015C00BF023C0E9FF24C020
:0C009800EAFF25C0E1FF26C0E2FF1100D6
:1000A40000017651000A12E075C000F0000E016EE6
:1000B400003600900136430E0024E96E000E012044
:1000C400EA6EEECF04F0EECF05F011D075C000F06B
:1000D400000E016E003600900136470E0024E96ED2
:1000E400000E0120EA6EEECF04F0EECF05F0020E12
:1000F4000424E16E000E0520E26E77C0E6FF78C0AE
:10010400E6FF010E0424E16E000E0520E26E79C0C4
:10011400E6FF04C0E9FF05C0EAFFEECF00F004C02B
:10012400E1FF05C0E2FF400E0014E66E04C0E9FFE3
:1001340005C0EAFFEECF00F0880E001204C0E1FF14
:1001440005C0E2FF00C0E6FF7651000A1BE075C05F
:1001540000F0000E016E003600900136430E0024BC
:10016400026E000E0120036E02C0E9FF03C0EAFF25
:10017400040EEE18006E02C0E1FF03C0E2FF00C0EF
:10018400E6FF1AD075C000F0000E016E0036009034
:100194000136470E0024026E000E0120036E02C0D9
:1001A400E9FF03C0EAFF040EEE18006E02C0E1FF8F
:1001B40003C0E2FF00C0E6FF04C000F005C001F088
:0201C400120027
:1001C600000E0001761902E1000E751902E1016ABE
:1001D6000AD075C0E9FF76C0EAFFEECF00F0000E48
:0C01E60000BE010E016E01C000F012000E
:1001F2001E0E716E100E496E040E4A6E49C0E1FF6A
:100202004AC0E2FFE69E49C0E1FF4AC0E2FFE69C27
:10021200040E4924E16E000E4A20E26EE68C180EAE
:10022200456E040E466E45C0E1FF46C0E2FFE69E03
:1002320045C0E1FF46C0E2FFE69C040E4524E16EA4
:10024200000E4620E26EE68C020E4924E16E000E9C
:100252004A20E26E4DC0E6FF4EC0E6FF010E492481
:10026200E16E000E4A20E26E400EE66E49C0E9FFE2
:100272004AC0EAFFEECF00F049C0E1FF4AC0E2FF08
:10028200400E0014E66E49C0E9FF4AC0EAFFEECF15
:1002920000F0880E001249C0E1FF4AC0E2FF00C030
:1002A200E6FF49C028F04AC029F0040E4918006E42
:0602B20000C049F012003B
:1002B8000B6A0A6A096A00500402F4CF09F0F3CF06
:1002C80008F001500502F4CF0BF0F3CF0AF000500C
:1002D8000502F3500926F4500A22E86A0B2201505D
:1002E8000402F3500926F4500A22E86A0B2208C0D7
:1002F80000F009C001F00AC002F00BC003F01200C0
:0E030800160E6F6E9F0E6B6E3B0E696E12002E
:10031600C40E346E140E356E000E366E380E3A6EFE
:10032600150E3B6E000E3C6E200E3D6E150E3E6E9B
:10033600000E3F6E2E0E406E150E416E000E426E82
:020346001200A3
:100348000001716B726B736B020E6E25F66E000EF8
:100358006F21F76E000E7021F86E0900F5CF05F0D9
:10036800030E6E25F66E000E6F21F76E000E7021DB
:10037800F86E0900F5CF00F000C003F0000E046E1F
:1003880003C001F0006A05500024066E000E01202B
:10039800076E6EC008F06FC009F070C00AF0010E59
:1003A8000824F66E000E0920F76E000E0A20F86E7B
:1003B8000900F5CF01F00150020A1BE1060E0824DE
:1003C800F66E000E0920F76E000E0A20F86E09007E
:1003D800F5CF01F00150715D0CE2060E0824F66EAF
:1003E800000E0920F76E000E0A20F86E0900F5CFFE
:1003F80071F0010E0824F66E000E0920F76E000E4B
:100408000A20F86E0900F5CF01F00150040A1BE13B
:10041800080E0824F66E000E0920F76E000E0A205A
:10042800F86E0900F5CF01F00150715D0CE2080E7D
:100438000824F66E000E0920F76E000E0A20F86EEA
:100448000900F5CF71F008C0F6FF09C0F7FF0AC030
:10045800F8FF0900F5CF00F000507225016E000E7C
:100468007321026E01C072F002C073F00750025C83
:1004780002E10650015C01E30FD008C0F6FF09C095
:10048800F7FF0AC0F8FF0900F5CF00F00050082672
:0E049800000E09220A2283D771C000F0120064
:1004A6000001746B200E275C03E36DB201D002D00D
:1004B600006A2DD028C075F029C076F081DE005282
:1004C60025E128C072F029C073F0000E291802E158
:1004D600000E28180AE0010E7225E96E000E73213F
:1004E600EA6EEECF00F000C074F071C075F0766B66
:1004F6006EC077F06FC078F070C079F0D0DD00C0C4
:1005060028F001C029F074C000F001D0006A120082
:100516000401286B296B42D0558E28812B50010A85
:10052600D8B4288350D0558E4ED0558E24BF16D0C1
:1005360024C403F00F0E031603C000F0000E016E74
:10054600003600900136470E0024E96E000E0120A9
:10055600EA6EEECF04F0EECF05F015D024C403F01A
:100566000F0E031603C000F0000E016E0036009059
:100576000136430E0024E96E000E0120EA6EEECF2E
:1005860004F0EECF05F004C0E9FF05C0EAFFEECFA8
:1005960001F001A402D0010E286F15D020C401F08D
:1005A6001F0E01160150000AB7E020C401F01F0E0D
:1005B60001160150010AB7E020C401F01F0E011612
:1005C6000150020AB2E055AE07D0280E526E040E54
:0A05D600536E5580020E566E12009F
:1005E00004012251010A0FE120C401F01F0E01167F
:1005F0000150000A08E1558E2151030A03E1010E62
:100600002B6E01D02B6A2251000AD8A48BD020C4B3
:1006100001F01F0E01160150020AD8A483D024C491
:1006200001F00F0E01160150000AD8B47BD0558E90
:1006300024BF16D024C403F00F0E031603C000F02D
:10064000000E016E003600900136470E0024E96E60
:10065000000E0120EA6EEECF04F0EECF05F015D0CB
:1006600024C403F00F0E031603C000F0000E016E49
:10067000003600900136430E0024E96E000E012082
:10068000EA6EEECF04F0EECF05F02151030A07E148
:1006900004C0E1FF05C0E2FF840EE66E43D024C42F
:1006A00000F00F0E0016700E026E0F0E036E00505B
:1006B0000226D8B0032A02C0E9FF03C0EAFFFE0EFB
:1006C000EE14006EEECF01F0FF0E011602C0E1FF46
:1006D00003C0E2FF00C0E6FF01C0E6FF24AF11D077
:1006E00004C0E1FF05C0E2FFE66A040E0418006ED4
:1006F00000C004F004C0E1FF05C0E2FF400EE66E5A
:1007000011D004C0E1FF05C0E2FF880EE66E040EC2
:100710000418006E00C004F004C0E1FF05C0E2FF51
:06072000C80EE66E120097
:1007260004012051800AD8A471D0C00E556E64D041
:100736000E0E006E150E016E000E026E00C052F017
:1007460001C053F002C054F0120E566E000E576EE2
:100756005DD0030E006E000E016E22C404F0000E82
:10076600056EA7DD340E0024E96E000E0120EA6E48
:10077600EECF52F0EECF53F0EECF54F0020E5224ED
:10078600F66E000E5320F76E000E5420F86E090028
:10079600F5CF00F00900F5CF01F000C056F001C01A
:1007A60057F034D022512F5C23E3030E006E000E67
:1007B600016E22C404F0000E056E7BDD3A0E0024A5
:1007C600E96E000E0120EA6EEECF52F0EECF53F046
:1007D600EECF54F052C0F6FF53C0F7FF54C0F8FFF7
:1007E6000900F5CF00F000C056F0000E576E01D09C
:1007F600556A0CD0556A0AD02351010A99E0235153
:0E080600020AA7E02351030ACDE0F4D7120046
:0A081400D08EA28AA08AF28E120094
:10081E00000E575C02E1080E565C10E256C003F063
:10082E0057C004F03250000A03E1010E326E05D0BB
:10083E003250010A02E1020E326E04D0080E036E2F
:10084E00000E046E43C0E1FF44C0E2FFE69243C0D7
:10085E00E1FF44C0E2FFE69043C0E9FF44C0EAFF77
:10086E00EECF00F043C0E1FF44C0E2FF04500010A1
:10087E00E66E010E4324E16E000E4420E26E03C0CC
:10088E00E6FF0350565C006E04505758016E00C0D0
:10089E0056F001C057F0280E2D6E040E2E6E55B078
:1008AE002FD0035004102BE052C0F6FF53C0F7FFB9
:1008BE0054C0F8FF0900F5CF00F02DC0E1FF2EC0A7
:1008CE00E2FF00C0E6FF2D4A2E2A010E5224006ED2
:1008DE00000E5320016E000E5420026E00C052F026
:1008EE0001C053F002C054F0010E035C006E000E06
:1008FE000458016E00C003F001C004F0D2D724D01A
:10090E000350041021E052C0E9FF53C0EAFF2DC08E
:10091E00E1FF2EC0E2FFEECFE6FF2D4A2E2A010E9A
:10092E005224006E000E5320016E00C052F001C022
:10093E0053F0010E035C006E000E0458016E00C0F1
:0A094E0003F001C004F0DCD7120032
:1009580020C401F01F0E01160150010A01E08DD0DC
:1009680004012451000A01E088D02151060A3FE120
:1009780034D04F50010A17E1C40E006E140E016EF8
:10098800000E026E120E0026000E0122022200C086
:1009980052F001C053F002C054F0090E566E000E1A
:1009A800576EC00E556E23D04F50010A12E1ED0E5E
:1009B800006E140E016E000E026E00C052F001C0EF
:1009C80053F002C054F0210E566E000E576EC00E42
:1009D800556E0DD0800E556E0AD004012351210AA0
:1009E800C8E02351220AE0E02351230AF3E020C49F
:1009F80001F0600E0116050E006E005004E0013291
:100A0800019EFF0FFBD70150010A01E036D022D02A
:100A180034D033D0370E526E000E536E010E566E20
:100A2800000E576EC10E556E28D0800E556E23C429
:100A380037F023D02A0E526E000E536E010E566EFA
:100A4800000E576E810E556E18D0800E556E22C45A
:100A58002AF013D004012151010ADAE02151090AD0
:100A6800D8E02151020AD6E021510A0ADEE02151DC
:0C0A7800030AE0E021510B0AE8E0120044
:100A8400558E716A0001636B22C44FF04F50000A07
:100A940003E1100E276E04D0200E276EF9EC00F04F
:020AA40012003E
:100AA6000E0E006E150E016E000E026E0E0E002466
:100AB600F66E000E0120F76E000E0220F86E090099
:100AC600F5CF03F003C004F00F0E0024F66E000EFF
:100AD6000120F76E000E0220F86E0900F5CF01F036
:100AE6000150035C12E20E0E006E150E016E000E32
:100AF600026E0F0E0024F66E000E0120F76E000E39
:100B06000220F86E0900F5CF04F00E0E006E150EE9
:100B1600016E000E026E100E0024F66E000E01200D
:100B2600F76E000E0220F86E0900F5CF01F00150B5
:100B3600045C12E20E0E006E150E016E000E026EC1
:100B4600100E0024F66E000E0120F76E000E022035
:0E0B5600F86E0900F5CF04F004C000F01200A4
:100B64002C6A43C0E1FF44C0E2FFE66A040E431866
:100B7400E16E44C0E2FF000EE21AE66A5ABE5A9ED3
:020B840012005D
:100B86006D9855BE49D05AAE28D0020E2C6E010E75
:100B96004324E16E000E4420E26EE66A43C0E1FFA4
:100BA60044C0E2FFC80EE66E010E4B24E16E000E55
:100BB6004C20E26E080EE66E020E4B24E16E000E2D
:100BC6004C20E26E280EE66E040EE66E4BC0E1FF88
:100BD6004CC0E2FFC80EE66E1ED0010E4B24E16E3D
:100BE600000E4C20E26E080EE66E020E4B24E16EFD
:100BF600000E4C20E26E200EE66E040EE66E4BC032
:100C0600E1FF4CC0E2FF8C0EE66E43C0E1FF44C03C
:100C1600E2FF840EE66E7DD05ABE7BD0040120AF83
:100C260051D05750275D02E15650265D04E226C496
:100C360056F027C457F0F0DD010E2C6E010E4B2442
:100C4600E16E000E4C20E26E080EE66E020E4B249C
:100C5600E16E000E4C20E26E200EE66E040EE66E8D
:100C66004BC0E1FF4CC0E2FF800EE66E336A010E18
:100C76003824E16E000E3920E26E080EE66E020E92
:100C86003824E16E000E3920E26E200EE66E040E68
:100C9600E66E38C0E1FF39C0E2FF840EE66E010E53
:100CA600336E020E4324E16E000E4420E26E280EDF
:100CB600E66E040EE66E43C0E1FF44C0E2FFC80ED6
:100CC600E66E27D0020E2C6E010E4324E16E000E56
:100CD6004420E26EE66A43C0E1FF44C0E2FFC80E6C
:100CE600E66E010E4B24E16E000E4C20E26E080EFD
:100CF600E66E020E4B24E16E000E4C20E26E280ECC
:100D0600E66E040EE66E4BC0E1FF4CC0E2FFC80E75
:040D1600E66E120073
:0A0D1A000001645301E01BDE12002B
:100D2400010E3824E96E000E3920EA6EEECF00F091
:100D340000C002F0000E5C5C02E102505B5C03E266
:100D44005BC002F00AD002505B5C006E000E5C587F
:100D5400016E00C05BF001C05CF0036A0250035CEA
:100D64001CE2280EE96E040EEA6E0350E926D8B0A0
:100D7400EA2AEECF00F058C0E1FF59C0E2FF00C0FC
:100D8400E6FF010E5824006E000E5920016E00C0CB
:100D940058F001C059F0032AE1D7000E006E5C50F0
:100DA400005C02E15B50000828E2010E4B24E16E76
:100DB400000E4C20E26E080EE66E020E4B24E16E2D
:100DC400000E4C20E26E280EE66E040EE66E38C06D
:100DD400E9FF39C0EAFFEECF00F000BC07D04BC0FA
:100DE400E1FF4CC0E2FFC80EE66E06D04BC0E1FF47
:100DF4004CC0E2FF880EE66E19D0010E4B24E16E62
:100E0400000E4C20E26E080EE66E020E4B24E16EDC
:100E1400000E4C20E26E200EE66E040EE66E4BC011
:0E0E2400E1FF4CC0E2FF840EE66E5A9E120003
:100E320020C401F0600E0116050E006E005004E0A1
:100E42000132019EFF0FFBD70150000A01E05AD088
:100E520036D0558E080E276E55D064DC53D011DE85
:100E620051D04F0E526E000E536E5580010E566ECB
:100E7200558E48D08BEC02F045D0F0EC02F042D017
:100E8200630E006E000E016E24510026D8B0012AB6
:100E920000C052F001C053F05580010E566E558EBF
:100EA20031D0558E630EE16E000EE26E2451E126C2
:100EB200D8B0E22A22C4E6FF25D024D023D00401F0
:100EC2002151050AC6E02151060AC7E02151090A4B
:100ED200C6E02151080AC5E02151000ACBE02151A8
:100EE200010ACBE02151030AC8E021510A0AC8E0F5
:100EF20021510B0AD6E02151070ADFE021510C0AE9
:060F0200DDE0DCD7120067
:100F08004DC06EF04EC06FF0400E0001706F010EC4
:080F1800716F53EC02F01200AE
:100F2000C2DD00C06CF0C40E00016E6F140E6F6F56
:100F3000000E706FA4EC01F000C06DF06C51005C0D
:0E0F400003E26CC000F002D06DC000F01200A1
:100F4E008BEC01F0286A296A0001616B626B6A6A98
:100F5E00686A84EC01F06D8C6E6A716A6D9C506AE1
:100F6E00516A000E515C02E1080E505C17E250C04F
:100F7E0000F051C001F000360090013600360090AE
:100F8E000136000E0024E16E040E0120E26EE66AC8
:100F9E00E66AE66AE66A504A512AE3D7160E706E82
:100FAE0068A603D0F70E6816FBD7556A5A6A5B6AB5
:100FBE005C6A6D98080E436E040E446E4F6A276A83
:020FCE0012000F
:080FD0008D908D928D941200AA
:100FD8002750000A0BE16D6A696A84EC01F016DC9F
:0E0FE8006DB602D06D86FCD7010E276E12008A
:100FF600040E4318006E00C043F02750080A0AE1A9
:1010060022C46EFF6E50000803E2100E276E02D057
:10101600040E276E2C50010A3BE1020E4324E16EBA
:10102600000E4420E26E280EE66E040EE66E0FEC0D
:1010360004F03250020A07E143C0E1FF44C0E2FF78
:10104600840EE66E24D0040E4318006E00C043F0F2
:1010560043C0E9FF44C0EAFFEECF00F000BC0CD06D
:10106600040E4318006E00C043F043C0E1FF44C0C5
:10107600E2FFC80EE66E0BD0040E4318006E00C0E9
:1010860043F043C0E1FF44C0E2FF880EE66E01D0A4
:0410960066DD120001
:04109A00A19A120005
:10109E0040DF00C02FF0010E646F68C04DF069C0D4
:1010AE004EF06AC065F06BC066F04ADF010E016E4D
:0A10BE000150010A01E189DF120070
:1010C80000016A6B6B6B69516B5D02E168516A5D87
:1010D8002BE216DF0050000A1BE005010051310A1F
:1010E80006E172DF010E306E000E316E11D0005134
:1010F800320A06E169DF020E306E000E316E08D04A
:101108000051330A05E160DF030E306E000E316EC8
:10111800070E0C6E7D0E0D6E0D2EFED70C2EFCD715
:0A11280000016A4B6B2BCFD71200B9
:101132006D92699468A403D0FB0E6816FBD7120067
:0A1142006984EF0E68166D8212003A
:10114C0043C0E9FF44C0EAFFEECF00F000AE05D08B
:10115C0043C0E1FF44C0E2FFE66A326A2C6A566A79
:0C116C00576A556A60DED3DD08DD120012
:101178002C50020A02E1D2DD1ED0F0DC3350000A06
:1011880019E1010E4B24E16E000E4C20E26E080EB0
:10119800E66E020E4B24E16E000E4C20E26E200E2D
:1011A800E66E040EE66E4BC0E1FF4CC0E2FF8C0E0B
:0811B800E66E01D0336A12005B
:1011C00070A01CD038C0E9FF39C0EAFFEECF01F0B3
:1011D0000150800A12E143C0E9FF44C0EAFFEECFAC
:1011E00001F0000E000A02E1840E011806E138C089
:1011F000E1FF39C0E2FF8C0EE66E7090DF0E6816DC
:021200001200DA
:101202000F0EC112070EB412816A8A6A938093820A
:101212009384846A8D6A9690969296946F886F846E
:10122200000E0001686F050E696F400E6A6F050EB1
:101232006B6F34DFA19AA08AF28CF28E030E0B6ED2
:101242008A0E0C6E550E0D6E0D2EFED70C2EFCD78F
:101252000B2EFAD700000000BADE030E306E000E2D
:04126200316E1200D7
:10126600000E311802E1010E301808E18D80010EE2
:101276000001686F000E696F24DF30D0000E311850
:1012860002E1020E30180EE100018D82E80E686F51
:10129600030E696F16DF8D92E80E686F030E696F95
:1012A60010DF1CD0000E311802E1030E301816E1D3
:1012B60000018D808D94880E686F130E696F01DFB3
:1012C6008D828D90B80E686F0B0E696FFADE8D8475
:0E12D6008D92100E686F270E696FF3DE120006
:1012E4002750010A07E16DBA05D0686A69806988E8
:1012F400020E276E68A405D069A403D0FB0E6816FD
:1013040016DF6DA202D0C7DED6D068A018D069A0BF
:1013140016D01BDE040E276E200E0401026F040E8D
:10132400036F080E016F000E0015006E00C000F47C
:101334008C0E0011006E00C000F4FE0E681668A842
:1013440005D069A803D0FBDEEF0E681668AC04D0A4
:1013540069AC02D0BF0E681668AA03D069AA01D08E
:101364002DDF68A202D069B26A6A040E275C02E229
:1013740092DEA1D069A69ED000017B6B040E7B5D3A
:10138400D8B098D068A692D06CCF67F0F70E6816E4
:10139400780E6715016E0150000AD8A486D0FD0EA0
:1013A4006715016E026AFF0E0216000E021802E1B2
:1013B400000E01186BE17E0E6715016E01C003F08B
:1013C4000332039E03C000F0000E016E003600904D
:1013D4000136003600900136000E0024026E040E21
:1013E4000120036E02C038F003C039F002C04BF094
:1013F40003C04CF0040E4B18006E00C04BF002C04A
:10140400E9FF03C0EAFFEECF00F000C001F03C0E9C
:1014140001160132019E0132019E01500D0A34E190
:10142400020E3824E96E000E3920EA6EEECF01F088
:10143400EECF02F00250040A02E1280E011822E164
:10144400020E3824E16E000E3920E26E200EE66EA4
:10145400040EE66E7A6B080E7A5D14E2200EE16EDD
:10146400040EE26E7A51E126D8B0E22A280EE96E23
:10147400040EEA6E7A51E926D8B0EA2AEECFE6FFE6
:101484007A2BE9D761DE01D075DE0ED0FD0E0001A6
:101494006715016E026AFF0E0216000E021802E1C1
:1014A400040E011801E1A5DD00D001D003D0000134
:0814B4007B2B64D7F0DD120070
:0814BC00A2DED3DEFED7FFD74C
:1014C400090229000101008032090400000203001E
:1014D40000000921010100012221000705810340C8
:0914E400000107050103400001AD
:1014ED000600FF0901A10119012940150026FF0081
:1014FD007508950181021901294075089501910220
:01150D00C01D
:10150E001201000200000008D804010000010102CF
:02151E000001CA
:0E1520000E03740069006500730065006E0024
:0A152E000A03790075006B006900E4
:04153800040309049B
:020000040030CA
:0E000000240C3F1EFF8381FF0FC00FE00F4056
:00000001FF
