:04000000E1EF0CF030
:1000080000C01EF001C01DF002C01CF003C01BF0B0
:1000180004C01AF005C019F008C018F009C017F09C
:100028000AC016F00BC015F0E1CF27F0E2CF28F098
:10003800E9CF25F0EACF26F0F3CF23F0F4CF24F070
:10004800F5CF22F0F8CF1FF0F7CF20F0F6CF21F050
:10005800A1AA03D0A19A59EC0BF022C0F5FF1FC04A
:10006800F8FF20C0F7FF21C0F6FF23C0F3FF24C02C
:10007800F4FF1EC000F01DC001F01CC002F01BC040
:1000880003F01AC004F019C005F018C008F017C032
:1000980009F016C00AF015C00BF025C0E9FF26C00C
:0C00A800EAFF27C0E1FF28C0E2FF1100C2
:1000B4001E0E716E100E4E6E040E4F6E4EC0E1FF9A
:1000C4004FC0E2FFE69E4EC0E1FF4FC0E2FFE69C58
:1000D400040E4E24E16E000E4F20E26EE68C180EE4
:1000E400526E040E536E52C0E1FF53C0E2FFE69E0F
:1000F40052C0E1FF53C0E2FFE69C040E5224E16EBD
:10010400000E5320E26EE68C020E4E24E16E000EC9
:100114004F20E26E48C0E6FF49C0E6FF010E4E24C0
:10012400E16E000E4F20E26E400EE66E4EC0E9FF17
:100134004FC0EAFFEECF00F04EC0E1FF4FC0E2FF38
:10014400400E0014E66E4EC0E9FF4FC0EAFFEECF4A
:1001540000F0880E00124EC0E1FF4FC0E2FF00C065
:10016400E6FF4EC04AF04FC04BF0040E4E18006E2E
:0601740000C04EF0120075
:10017A000B6A0A6A096A00500402F4CF09F0F3CF45
:10018A0008F001500502F4CF0BF0F3CF0AF000504B
:10019A000502F3500926F4500A22E86A0B2201509C
:1001AA000402F3500926F4500A22E86A0B2208C016
:1001BA0000F009C001F00AC002F00BC003F01200FF
:1001CA002E8E716A336A22C437F03750000A03E16F
:0E01DA00100E366E03D0200E366E67DF120058
:1001E80020C401F01F0E01160150010A01E08DD054
:1001F80004012451000A01E088D02151060A3FE198
:1002080034D03750010A17E1CA0E006E190E016E7C
:10021800000E026E120E0026000E0122022200C0FD
:100228002BF001C02CF002C02DF0090E2F6E000E2D
:10023800306EC00E2E6E23D03750010A12E1F30E35
:10024800006E190E016E000E026E00C02BF001C088
:100258002CF002C02DF0210E2F6E000E306EC00E55
:100268002E6E0DD0800E2E6E0AD004012351210A65
:10027800C8E02351220AE0E02351230AF3E020C416
:1002880001F0600E0116050E006E005004E0013208
:10029800019EFF0FFBD70150010A01E036D022D0A2
:1002A80034D033D0600E2B6E000E2C6E010E2F6EE4
:1002B800000E306EC10E2E6E28D0800E2E6E23C416
:1002C80060F023D0610E2B6E000E2C6E010E2F6E87
:1002D800000E306E810E2E6E18D0800E2E6E22C447
:1002E80061F013D004012151010ADAE02151090A11
:1002F800D8E02151020AD6E021510A0ADEE0215154
:0C030800030AE0E021510B0AE8E01200BB
:1003140004012251010A0FE120C401F01F0E01164D
:100324000150000A08E12E8E2151030A03E1010E57
:10033400296E01D0296A2251000AD8A48BD020C486
:1003440001F01F0E01160150020AD8A483D024C460
:1003540001F00F0E01160150000AD8B47BD02E8E86
:1003640024BF16D024C403F00F0E031603C000F0FC
:10037400000E016E0036009001364C0E0024E96E2A
:10038400000E0120EA6EEECF04F0EECF05F015D09A
:1003940024C403F00F0E031603C000F0000E016E18
:1003A400003600900136500E0024E96E000E012044
:1003B400EA6EEECF04F0EECF05F02151030A07E117
:1003C40004C0E1FF05C0E2FF840EE66E43D024C4FE
:1003D40000F00F0E0016700E026E0F0E036E00502A
:1003E4000226D8B0032A02C0E9FF03C0EAFFFE0ECA
:1003F400EE14006EEECF01F0FF0E011602C0E1FF15
:1004040003C0E2FF00C0E6FF01C0E6FF24AF11D045
:1004140004C0E1FF05C0E2FFE66A040E0418006EA2
:1004240000C004F004C0E1FF05C0E2FF400EE66E28
:1004340011D004C0E1FF05C0E2FF880EE66E040E91
:100444000418006E00C004F004C0E1FF05C0E2FF20
:06045400C80EE66E120066
:10045A0004012051800AD8A471D0C00E2E6E64D037
:10046A00140E006E1A0E016E000E026E00C02BF002
:10047A0001C02CF002C02DF0120E2F6E000E306E4D
:10048A005DD0030E006E000E016E22C404F0000E51
:10049A00056E6EDE3C0E0024E96E000E0120EA6E47
:1004AA00EECF2BF0EECF2CF0EECF2DF0020E2B2458
:1004BA00F66E000E2C20F76E000E2D20F86E090045
:1004CA00F5CF00F00900F5CF01F000C02FF001C010
:1004DA0030F034D022512A5C23E3030E006E000E62
:1004EA00016E22C404F0000E056E42DE3F0E0024A7
:1004FA00E96E000E0120EA6EEECF2BF0EECF2CF063
:10050A00EECF2DF02BC0F6FF2CC0F7FF2DC0F8FF61
:10051A000900F5CF00F000C02FF0000E306E01D0B8
:10052A002E6A0CD02E6A0AD02351010A99E023516F
:0E053A00020AA7E02351030ACDE0F4D7120015
:100548000401286B296B42D02E8E28812950010A7C
:10055800D8B4288350D02E8E4ED02E8E24BF16D0DD
:1005680024C403F00F0E031603C000F0000E016E42
:100578000036009001364C0E0024E96E000E012072
:10058800EA6EEECF04F0EECF05F015D024C403F0E8
:100598000F0E031603C000F0000E016E0036009027
:1005A8000136500E0024E96E000E0120EA6EEECFEF
:1005B80004F0EECF05F004C0E9FF05C0EAFFEECF76
:1005C80001F001A402D0010E286F15D020C401F05B
:1005D8001F0E01160150000AB7E020C401F01F0EDB
:1005E80001160150010AB7E020C401F01F0E0116E0
:1005F8000150020AB2E02EAE07D0280E2B6E040E70
:0A0608002C6E2E80020E2F6E1200E1
:10061200000E305C02E1080E2F5C11E22FC003F0E5
:1006220030C004F000017051000A03E1010E706F46
:1006320005D07051010A02E1020E706F04D0080E5B
:10064200036E000E046E50C0E1FF51C0E2FFE6925D
:1006520050C0E1FF51C0E2FFE69050C0E9FF51C037
:10066200EAFFEECF00F050C0E1FF51C0E2FF0450BC
:100672000010E66E010E5024E16E000E5120E26E73
:1006820003C0E6FF03502F5C006E04503058016E29
:1006920000C02FF001C030F0280E5E6E040E5F6EB7
:1006A2002EB02FD0035004102BE02BC0F6FF2CC02D
:1006B200F7FF2DC0F8FF0900F5CF00F05EC0E1FFA3
:1006C2005FC0E2FF00C0E6FF5E4A5F2A010E2B24F4
:1006D200006E000E2C20016E000E2D20026E00C056
:1006E2002BF001C02CF002C02DF0010E035C006E55
:1006F200000E0458016E00C003F001C004F0D2D70E
:1007020024D00350041021E02BC0E9FF2CC0EAFFE3
:100712005EC0E1FF5FC0E2FFEECFE6FF5E4A5F2A06
:10072200010E2B24006E000E2C20016E00C02BF057
:1007320001C02CF0010E035C006E000E0458016E25
:0C07420000C003F001C004F0DCD712007E
:08074E005D5201E04ADD1200DA
:10075600CA0E3C6E190E3D6E000E3E6E3E0E3F6E8C
:100766001A0E406E000E416E260E426E1A0E436E33
:10077600000E446E340E456E1A0E466E000E476E1F
:0207860012005F
:0E078800160E6F6E9F0E6B6E3B0E696E1200AA
:100796006D982EBE4BD056AE29D0020E00016C6F5E
:1007A600010E5024E16E000E5120E26EE66A50C042
:1007B600E1FF51C0E2FFC80EE66E010E6E25E16E46
:1007C600000E6F21E26E080EE66E020E6E25E16ED9
:1007D600000E6F21E26E280EE66E040EE66E6EC007
:1007E600E1FF6FC0E2FFC80EE66E1FD00001010EEA
:1007F6006E25E16E000E6F21E26E080EE66E020EA9
:100806006E25E16E000E6F21E26E200EE66E040E7E
:10081600E66E6EC0E1FF6FC0E2FF8C0EE66E50C062
:10082600E1FF51C0E2FF840EE66E7FD056BE7DD05A
:10083600040120AF52D03050275D02E12F50265DD3
:1008460004E226C42FF027C430F0E0DE010E0001DA
:100856006C6F010E6E25E16E000E6F21E26E080EC2
:10086600E66E020E6E25E16E000E6F21E26E200E20
:10087600E66E040EE66E6EC0E1FF6FC0E2FF800E0C
:10088600E66E716B010E3424E16E000E3520E26EC9
:10089600080EE66E020E3424E16E000E3520E26E7E
:1008A600200EE66E040EE66E34C0E1FF35C0E2FFB0
:1008B600840EE66E010E716F020E5024E16E000E7C
:1008C6005120E26E280EE66E040EE66E50C0E1FF81
:1008D60051C0E2FFC80EE66E28D00001020E6C6F12
:1008E600010E5024E16E000E5120E26EE66A50C001
:1008F600E1FF51C0E2FFC80EE66E010E6E25E16E05
:10090600000E6F21E26E080EE66E020E6E25E16E97
:10091600000E6F21E26E280EE66E040EE66E6EC0C5
:0C092600E1FF6FC0E2FFC80EE66E120099
:1009320000016C6B50C0E1FF51C0E2FFE66A040E99
:100942005018E16E51C0E2FF000EE21AE66A56BE8E
:04095200569E12009B
:10095600010E3424E96E000E3520EA6EEECF00F06B
:1009660000C002F0000E585C02E10250575C03E240
:1009760057C002F00AD00250575C006E000E58585D
:10098600016E00C057F001C058F0036A0250035CC4
:100996001CE2280EE96E040EEA6E0350E926D8B072
:1009A600EA2AEECF00F054C0E1FF55C0E2FF00C0D6
:1009B600E6FF010E5424006E000E5520016E00C0A5
:1009C60054F001C055F0032AE1D7000E006E5850CE
:1009D600005C02E15750000829E2010E00016E2575
:1009E600E16E000E6F21E26E080EE66E020E6E25B7
:1009F600E16E000E6F21E26E280EE66E040EE66EC4
:100A060034C0E9FF35C0EAFFEECF00F000BC07D0E6
:100A16006EC0E1FF6FC0E2FFC80EE66E06D06EC084
:100A2600E1FF6FC0E2FF880EE66E1AD00001010EEC
:100A36006E25E16E000E6F21E26E080EE66E020E66
:100A46006E25E16E000E6F21E26E200EE66E040E3C
:100A5600E66E6EC0E1FF6FC0E2FF840EE66E569E44
:020A660012007C
:100A680020C401F0600E0116050E006E005004E06F
:100A78000132019EFF0FFBD70150000A01E059D057
:100A880035D02E8E080E366E54D0E3DC52D0E5EC0D
:100A980000F04FD0370E2B6E000E2C6E2E80010EFC
:100AA8002F6E2E8E46D04CDD44D030DC42D0330E33
:100AB800006E000E016E24510026D8B0012A00C035
:100AC8002BF001C02CF02E80010E2F6E2E8E31D00F
:100AD8002E8E330EE16E000EE26E2451E126D8B060
:100AE800E22A22C4E6FF25D024D023D004012151D4
:100AF800050AC7E02151060AC8E02151090AC7E0E2
:100B08002151080AC7E02151000ACDE02151010A0C
:100B1800CCE02151030AC9E021510A0AC8E0215159
:100B28000B0AD6E02151070ADFE021510C0ADDE06B
:040B3800DCD71200F4
:040B3C00A19A120068
:100B40006D92699468A403D0FB0E6816FBD712005F
:100B500070A01CD034C0E9FF35C0EAFFEECF01F031
:100B60000150800A12E150C0E9FF51C0EAFFEECF08
:100B700001F0000E000A02E1840E011806E134C003
:100B8000E1FF35C0E2FF8C0EE66E7090DF0E681656
:020B9000120051
:100B9200E1DD4A6A4B6A00016A6B6B6B6A6A686ADA
:100BA200F2DD6D8C6E6A716A6D9C666B676B000E0E
:100BB200675D02E1080E665D17E266C000F067C07D
:100BC20001F0003600900136003600900136000E2A
:100BD2000024E16E040E0120E26EE66AE66AE66A2D
:100BE200E66A664B672BE3D7160E706E68A603D0D3
:100BF200F70E6816FBD72E6A566A576A586A6D98BE
:0E0C0200080E506E040E516E376A366A1200EC
:100C1000040E5018006E00C050F03650080A0AE169
:100C200022C46EFF6E50000803E2100E366E02D032
:100C3000040E366E00016C51010A3BE1020E502495
:100C4000E16E000E5120E26E280EE66E040EE66E96
:100C5000E0DC00017051020A07E150C0E1FF51C021
:100C6000E2FF840EE66E24D0040E5018006E00C021
:100C700050F050C0E9FF51C0EAFFEECF00F000BCD9
:100C80000CD0040E5018006E00C050F050C0E1FFB0
:100C900051C0E2FFC80EE66E0BD0040E5018006E75
:100CA00000C050F050C0E1FF51C0E2FF880EE66E78
:060CB00001D03FDE12003E
:100CB60000016C51020A02E14BDE1ED037DE715193
:100CC600000A19E1010E6E25E16E000E6F21E26E3B
:100CD600080EE66E020E6E25E16E000E6F21E26EC4
:100CE600200EE66E040EE66E6EC0E1FF6FC0E2FFF8
:0A0CF6008C0EE66E01D0716B120047
:100D000050C0E9FF51C0EAFFEECF00F000AE05D0C1
:100D100050C0E1FF51C0E2FFE66A0001706B6C6BEE
:0E0D20002F6A306A2E6AA0DE12DD35DD120069
:0A0D2E006984EF0E68166D82120052
:100D380000018851000A12E087C000F0000E016E21
:100D4800003600900136500E0024E96E000E012096
:100D5800EA6EEECF04F0EECF05F011D087C000F0B8
:100D6800000E016E0036009001364C0E0024E96E2C
:100D7800000E0120EA6EEECF04F0EECF05F0020E71
:100D88000424E16E000E0520E26E89C0E6FF8AC0E9
:100D9800E6FF010E0424E16E000E0520E26E8BC012
:100DA800E6FF04C0E9FF05C0EAFFEECF00F004C08B
:100DB800E1FF05C0E2FF400E0014E66E04C0E9FF43
:100DC80005C0EAFFEECF00F0880E001204C0E1FF74
:100DD80005C0E2FF00C0E6FF8851000A1BE087C09B
:100DE80000F0000E016E003600900136500E00240F
:100DF800026E000E0120036E02C0E9FF03C0EAFF85
:100E0800040EEE18006E02C0E1FF03C0E2FF00C04E
:100E1800E6FF1AD087C000F0000E016E0036009081
:100E280001364C0E0024026E000E0120036E02C033
:100E3800E9FF03C0EAFF040EEE18006E02C0E1FFEE
:100E480003C0E2FF00C0E6FF04C000F005C001F0E7
:020E5800120086
:100E5A003650000A09E16D6A696A91DC6DB602D002
:100E6A006D86FCD7010E366E3650010A08E16DBA5E
:100E7A0006D0686A696A69806988020E366E68A453
:100E8A0005D069A403D0FB0E681655DE6DA202D008
:100E9A0050DED6D068A018D069A016D075DE040E30
:100EAA00366E200E0401026F040E036F080E016FE6
:100EBA00000E0015006E00C000F48C0E0011006ECA
:100ECA0000C000F4FE0E681668A805D069A803D011
:100EDA0029DFEF0E681668AC04D069AC02D0BF0EE9
:100EEA00681668AA03D069AA01D02DDE68A202D0CA
:100EFA0069B26A6A040E365C02E21BDEA1D069A6F8
:100F0A009ED00001886B040E885DD8B098D068A680
:100F1A0092D06CCF6DF0F70E6816780E6D15016ED3
:100F2A000150000AD8A486D0FD0E6D15016E026A22
:100F3A00FF0E0216000E021802E1000E01186BE104
:100F4A007E0E6D15016E01C003F00332039E03C0CD
:100F5A0000F0000E016E0036009001360036009057
:100F6A000136000E0024026E040E0120036E02C038
:100F7A0034F003C035F002C06EF003C06FF0040E07
:100F8A006E19006E00C06EF002C0E9FF03C0EAFFEE
:100F9A00EECF00F000C001F03C0E01160132019EB6
:100FAA000132019E01500D0A34E1020E3424E96E29
:100FBA00000E3520EA6EEECF01F0EECF02F00250BD
:100FCA00040A02E1280E011822E1020E3424E16E1D
:100FDA00000E3520E26E200EE66E040EE66E876B7A
:100FEA00080E875D14E2200EE16E040EE26E875150
:100FFA00E126D8B0E22A280EE96E040EEA6E87517D
:10100A00E926D8B0EA2AEECFE6FF872BE9D773DEC6
:10101A0001D04CDE0ED0FD0E00016D15016E026A84
:10102A00FF0E0216000E021802E1040E011801E179
:10103A00EADD00D001D003D00001882B64D779DD26
:02104A00120092
:10104C00000E0001881902E1000E871902E1016A05
:10105C000AD087C0E9FF88C0EAFFEECF00F0000E8F
:0C106C0000BE010E016E01C000F0120079
:10107800200E365C03E36DB201D002D0006A4ED078
:101088006AC087F06BC088F0DDDF005246E184C09B
:1010980087F0010E886F81C089F082C08AF083C012
:1010A8008BF046DE00C06AF001C06BF0626B636BC8
:1010B800646B656B6AC087F06BC088F0C3DF005251
:1010C80017E0200E365C03E36DB201D002D0006A4F
:1010D80025D0010E016E0150000A01E1BADE0001BF
:1010E800625163116411651102E0006A17D0E2D7FA
:1010F8006AC085F06BC086F0000E6B1902E1000E25
:101108006A1909E0010E8525E96E000E8621EA6E4E
:0E111800EECF00F003D0006A01D0006A120092
:10112600040E0C6E3A0E0D6E0D2EFED70C2EFCD74D
:0411360000001200A3
:10113A0000017D6B7E6B7F6B020E7A25F66E000EC8
:10114A007B21F76E000E7C21F86E0900F5CF05F0C1
:10115A00030E7A25F66E000E7B21F76E000E7C21B7
:10116A00F86E0900F5CF00F000C003F0000E046E1F
:10117A0003C001F0006A05500024066E000E01202B
:10118A00076E7AC008F07BC009F07CC00AF0010E35
:10119A000824F66E000E0920F76E000E0A20F86E7B
:1011AA000900F5CF01F00150020A1BE1060E0824DE
:1011BA00F66E000E0920F76E000E0A20F86E09007E
:1011CA00F5CF01F001507D5D0CE2060E0824F66EA3
:1011DA00000E0920F76E000E0A20F86E0900F5CFFE
:1011EA007DF0010E0824F66E000E0920F76E000E3F
:1011FA000A20F86E0900F5CF01F00150040A1BE13C
:10120A00080E0824F66E000E0920F76E000E0A205A
:10121A00F86E0900F5CF01F001507D5D0CE2080E71
:10122A000824F66E000E0920F76E000E0A20F86EEA
:10123A000900F5CF7DF008C0F6FF09C0F7FF0AC024
:10124A00F8FF0900F5CF00F000507E25016E000E70
:10125A007F21026E01C07EF002C07FF00750025C5F
:10126A0002E10650015C01E30FD008C0F6FF09C095
:10127A00F7FF0AC0F8FF0900F5CF00F00050082672
:0E128A00000E09220A2283D77DC000F0120058
:0A129800D08EA28AA08AF28E120006
:1012A200140E006E1A0E016E000E026E0E0E002457
:1012B200F66E000E0120F76E000E0220F86E090095
:1012C200F5CF03F003C004F00F0E0024F66E000EFB
:1012D2000120F76E000E0220F86E0900F5CF01F032
:1012E2000150035C12E2140E006E1A0E016E000E23
:1012F200026E0F0E0024F66E000E0120F76E000E35
:101302000220F86E0900F5CF04F0140E006E1A0EDA
:10131200016E000E026E100E0024F66E000E012009
:10132200F76E000E0220F86E0900F5CF01F00150B1
:10133200045C12E2140E006E1A0E016E000E026EB2
:10134200100E0024F66E000E0120F76E000E022031
:0E135200F86E0900F5CF04F004C000F01200A0
:101360000001806B7CC001F0010E006E015004E0B2
:1013700000360090FF0FFBD700C07FF07AC0E9FF76
:101380007BC0EAFF0050EE14016E0152010ED8A49A
:10139000000E006E7E51001A18E07D51000804E234
:1013A000C2DEC1DE7D07F9D77AC0E9FF7BC0EAFF64
:1013B0007F51EE14016E0152010ED8A4000E006E92
:1013C0007E51001A02E0FF0E806F80C000F0120014
:0813D0008D908D928D941200A6
:1013D8007AC081F07BC082F07CC083F0010E0001EE
:0613E800846F46DE1200D6
:1013EE000001806B200E365C03E36DB201D002D09B
:1013FE00006A2DD04AC087F04BC088F020DE005224
:10140E0025E14AC07EF04BC07FF0000E4B1802E182
:10141E00000E4A180AE0010E7E25E96E000E7F21AD
:10142E00EA6EEECF00F000C080F07DC087F0886BD2
:10143E007AC089F07BC08AF07CC08BF076DC00C06D
:10144E004AF001C04BF080C000F001D0006A1200DB
:10145E00B8DF810E00017A6F0F0E7B6F76C07CF0C5
:10146E000A0E7D6F7E6B75DF005217E0810E7A6F6C
:10147E000F0E7B6F76C07CF00A0E7D6F7E6B69DF80
:10148E00005201E0F3D73250791902E17851311848
:0C149E0004E078C031F079C032F0120098
:1014AA0076C040F5400E00017A6F050E7B6F010E83
:0614BA007C6F8DDF1200C3
:1014C000F0DE00C076F0CA0E00017A6F190E7B6F55
:1014D000000E7C6F32DE00C077F07651005C03E2D4
:0C14E00076C000F002D077C000F01200CF
:1014EC003650000A0BE16D6A696AC4EC03F0CEDE7B
:0E14FC006DB602D06D86FCD7010E366E120062
:10150A0048C07AF049C07BF0400E00017C6F010EA2
:06151A007D6F68DF120086
:10152000CFDF00C02AF0010E5D6E72C048F073C0BC
:1015300049F074C068F075C069F0C9EC05F0010E9F
:0C154000016E0150010A01E1D1DF120030
:10154C003A6A3B6A800E3B18006E800E00017319DC
:10155C00005C02E172513A5CD8B0A4D0385039101A
:10156C0025E0810E7A6F0F0E7B6F7C6B0A0E7D6F00
:10157C007E6BF0DE005219E1810E7A6F0F0E7B6FDD
:10158C00010E7C6F0A0E7D6F7E6BE4DE00520DE166
:10159C00810E7A6F0F0E7B6F020E7C6F0A0E7D6FC1
:1015AC007E6BD8DE005201E101D009D0A8DF0050DB
:1015BC00000A04E00501005301E001D067D00501E9
:1015CC0000515A0A09E1010E386E000E396E450EB3
:1015DC000001766F64DF3BD005010051580A07E12A
:1015EC00386A396A440E0001766F59DF30D0050134
:1015FC000051310A0CE1000E391802E1000E3818C6
:10160C0006E1E0DE010E316E000E326E4BD00501AC
:10161C000051320A0CE1000E391802E1000E3818A4
:10162C0006E1D0DE020E316E000E326E3BD00501AB
:10163C000051330A0CE1000E391802E1000E381883
:10164C0006E1C0DE030E316E000E326E2BD0385028
:10165C0039101CE0B7DE0001766B776B010E786FEA
:10166C00000E796FF6DE010E766F000E776F020EAC
:10167C00786F000E796FEDDE020E766F000E776FCD
:10168C00030E786F000E796FE4DE0CD0410E0C6EF9
:10169C00EE0E0D6E0D2EFED70C2EFCD700003A4A26
:0616AC003B2A50D712009A
:1016B2003650010A07E16DBA05D0686A6980698807
:1016C200020E366E68A406D069A404D0FB0E68161A
:1016D200A0EC05F06DA203D09EEC05F0DED068A070
:1016E20019D069A017D0C9EC05F0040E366E200E91
:1016F2000401026F040E036F080E016F000E001545
:10170200006E00C000F48C0E0011006E00C000F4E8
:10171200FE0E681668A806D069A804D097EC06F0F9
:10172200EF0E681668AC04D069AC02D0BF0E681622
:1017320068AA04D069AA02D0A8EC05F068A202D077
:1017420069B26A6A040E365C03E29EEC05F0A5D02B
:1017520069A6A1D000018D6B040E8D5DD8B09BD01F
:1017620068A695D06CCF6DF0F70E6816780E6D15E1
:10177200016E0150000AD8A489D0FD0E6D15016ECC
:10178200026AFF0E0216000E021802E1000E011894
:101792006DE17E0E6D15016E01C003F00332039EF2
:1017A20003C000F0000E016E0036009001360036D4
:1017B20000900136000E0024026E040E0120036E1A
:1017C20002C034F003C035F002C06EF003C06FF007
:1017D200040E6E19006E00C06EF002C0E9FF03C075
:1017E200EAFFEECF00F000C001F03C0E011601321C
:1017F200019E0132019E01500D0A35E1020E342490
:10180200E96E000E3520EA6EEECF01F0EECF02F067
:101812000250040A02E1280E011822E1020E3424C9
:10182200E16E000E3520E26E200EE66E040EE66ECC
:101832008C6B080E8C5D14E2200EE16E040EE26EDB
:101842008C51E126D8B0E22A280EE96E040EEA6E27
:101852008C51E926D8B0EA2AEECFE6FF8C2BE9D7E5
:1018620080EC06F002D05BEC06F00FD0FD0E00011A
:101872006D15016E026AFF0E0216000E021802E1D9
:10188200040E011802E108EC06F000D001D003D0EA
:0C18920000018D2B61D79EEC05F01200C8
:10189E000F0EC112070EB412816A8A6A9380938268
:1018AE009384846A8D6A9690969296946F886F84CC
:1018BE00000E0001726F050E736F400E746F050EF1
:1018CE00756F27DEA19AA08AF28CF28E030E0B6E34
:1018DE008A0E0C6E550E0D6E0D2EFED70C2EFCD7ED
:1018EE000B2EFAD700000000030E316E000E326E82
:0C18FE00010E386E000E396E64DD120021
:10190A0048D0520E0001766FCBDD8D80640E000147
:10191A00726F000E736F15DE4ED0590E0001766F8E
:10192A00BFDD8D82640E0001726F000E736F09DED7
:10193A004F0E0001766FB4DD8D92640E0001726F56
:10194A00000E736FFEDD37D0520E0001766FA8DDF0
:10195A008D948D80F40E0001726F010E736FF1DDAC
:10196A00590E0001766F9CDD8D908D822C0E000140
:10197A00726F010E736FE5DD470E0001766F90DD21
:10198A008D928D84E80E0001726F030E736FD9DD9C
:10199A0012D0000E321802E1010E3118B2E0000E28
:1019AA00321802E1020E3118B8E0000E321802E1D4
:0819BA00030E3118C9E0120010
:0819C2006DDFA2DFFED7FFD7A5
:1019CA000902290001010080320904000002030013
:1019DA0000000921010100012221000705810340BD
:0919EA00000107050103400001A2
:1019F3000600FF0901A10119012940150026FF0076
:101A03007508950181021901294075089501910214
:011A1300C012
:101A14001201000200000008D804010000010102C4
:021A24000001BF
:0E1A26000E03740069006500730065006E0019
:0A1A34000A03790075006B006900D9
:041A3E000403090490
:020000040030CA
:0E000000240C1F1EFF8381FF0FC00FE00F4076
:00000001FF
