:0400000095EF0CF07C
:1000080000C01EF001C01DF002C01CF003C01BF0B0
:1000180004C01AF005C019F008C018F009C017F09C
:100028000AC016F00BC015F0E1CF27F0E2CF28F098
:10003800E9CF25F0EACF26F0F3CF23F0F4CF24F070
:10004800F5CF22F0F8CF1FF0F7CF20F0F6CF21F050
:10005800A1AA03D0A19A2CEC0BF022C0F5FF1FC077
:10006800F8FF20C0F7FF21C0F6FF23C0F3FF24C02C
:10007800F4FF1EC000F01DC001F01CC002F01BC040
:1000880003F01AC004F019C005F018C008F017C032
:1000980009F016C00AF015C00BF025C0E9FF26C00C
:0C00A800EAFF27C0E1FF28C0E2FF1100C2
:1000B4001E0E716E100E4E6E040E4F6E4EC0E1FF9A
:1000C4004FC0E2FFE69E4EC0E1FF4FC0E2FFE69C58
:1000D400040E4E24E16E000E4F20E26EE68C180EE4
:1000E4004A6E040E4B6E4AC0E1FF4BC0E2FFE69E2F
:1000F4004AC0E1FF4BC0E2FFE69C040E4A24E16ED5
:10010400000E4B20E26EE68C020E4E24E16E000ED1
:100114004F20E26E2CC0E6FF2DC0E6FF010E4E24F8
:10012400E16E000E4F20E26E400EE66E4EC0E9FF17
:100134004FC0EAFFEECF00F04EC0E1FF4FC0E2FF38
:10014400400E0014E66E4EC0E9FF4FC0EAFFEECF4A
:1001540000F0880E00124EC0E1FF4FC0E2FF00C065
:10016400E6FF4EC02AF04FC02BF0040E4E18006E6E
:0601740000C04EF0120075
:10017A000B6A0A6A096A00500402F4CF09F0F3CF45
:10018A0008F001500502F4CF0BF0F3CF0AF000504B
:10019A000502F3500926F4500A22E86A0B2201509C
:1001AA000402F3500926F4500A22E86A0B2208C016
:1001BA0000F009C001F00AC002F00BC003F01200FF
:1001CA00378E716A306A22C431F03150000A03E175
:0E01DA00100E2E6E03D0200E2E6E67DF120068
:1001E800000E395C02E1080E385C11E238C003F0F9
:1001F80039C004F000016D51000A03E1010E6D6F72
:1002080005D06D51010A02E1020E6D6F04D0080E8F
:10021800036E000E046E48C0E1FF49C0E2FFE6929B
:1002280048C0E1FF49C0E2FFE69048C0E9FF49C085
:10023800EAFFEECF00F048C0E1FF49C0E2FF0450FA
:100248000010E66E010E4824E16E000E4920E26EB1
:1002580003C0E6FF0350385C006E04503958016E45
:1002680000C038F001C039F0280E596E040E5A6EDD
:1002780037B02FD0035004102BE034C0F6FF35C040
:10028800F7FF36C0F8FF0900F5CF00F059C0E1FFCD
:100298005AC0E2FF00C0E6FF594A5A2A010E342428
:1002A800006E000E3520016E000E3620026E00C072
:1002B80034F001C035F002C036F0010E035C006E68
:1002C800000E0458016E00C003F001C004F0D2D73C
:1002D80024D00350041021E034C0E9FF35C0EAFF00
:1002E80059C0E1FF5AC0E2FFEECFE6FF594A5A2A49
:1002F800010E3424006E000E3520016E00C034F06B
:1003080001C035F0010E035C006E000E0458016E4A
:0C03180000C003F001C004F0DCD71200AC
:1003240004012251010A0FE120C401F01F0E01163D
:100334000150000A08E1378E2151030A03E1010E3E
:10034400466E01D0466A2251000AD8A48BD020C43C
:1003540001F01F0E01160150020AD8A483D024C450
:1003640001F00F0E01160150000AD8B47BD0378E6D
:1003740024BF16D024C403F00F0E031603C000F0EC
:10038400000E016E0036009001364C0E0024E96E1A
:10039400000E0120EA6EEECF04F0EECF05F015D08A
:1003A40024C403F00F0E031603C000F0000E016E08
:1003B400003600900136480E0024E96E000E01203C
:1003C400EA6EEECF04F0EECF05F02151030A07E107
:1003D40004C0E1FF05C0E2FF840EE66E43D024C4EE
:1003E40000F00F0E0016700E026E0F0E036E00501A
:1003F4000226D8B0032A02C0E9FF03C0EAFFFE0EBA
:10040400EE14006EEECF01F0FF0E011602C0E1FF04
:1004140003C0E2FF00C0E6FF01C0E6FF24AF11D035
:1004240004C0E1FF05C0E2FFE66A040E0418006E92
:1004340000C004F004C0E1FF05C0E2FF400EE66E18
:1004440011D004C0E1FF05C0E2FF880EE66E040E81
:100454000418006E00C004F004C0E1FF05C0E2FF10
:06046400C80EE66E120056
:10046A0004012051800AD8A471D0C00E376E64D01E
:10047A007C0E006E190E016E000E026E00C034F082
:10048A0001C035F002C036F0120E386E000E396E19
:10049A005DD0030E006E000E016E22C404F0000E41
:1004AA00056E66DE430E0024E96E000E0120EA6E38
:1004BA00EECF34F0EECF35F0EECF36F0020E342424
:1004CA00F66E000E3520F76E000E3620F86E090023
:1004DA00F5CF00F00900F5CF01F000C038F001C0F7
:1004EA0039F034D02251295C23E3030E006E000E4A
:1004FA00016E22C404F0000E056E3ADE3A0E0024A4
:10050A00E96E000E0120EA6EEECF34F0EECF35F040
:10051A00EECF36F034C0F6FF35C0F7FF36C0F8FF2D
:10052A000900F5CF00F000C038F0000E396E01D096
:10053A00376A0CD0376A0AD02351010A99E023514D
:0E054A00020AA7E02351030ACDE0F4D7120005
:100558000401286B296B42D0378E28814650010A46
:10056800D8B4288350D0378E4ED0378E24BF16D0BB
:1005780024C403F00F0E031603C000F0000E016E32
:100588000036009001364C0E0024E96E000E012062
:10059800EA6EEECF04F0EECF05F015D024C403F0D8
:1005A8000F0E031603C000F0000E016E0036009017
:1005B8000136480E0024E96E000E0120EA6EEECFE7
:1005C80004F0EECF05F004C0E9FF05C0EAFFEECF66
:1005D80001F001A402D0010E286F15D020C401F04B
:1005E8001F0E01160150000AB7E020C401F01F0ECB
:1005F80001160150010AB7E020C401F01F0E0116D0
:100608000150020AB2E037AE07D0280E346E040E4D
:0A061800356E3780020E386E1200B6
:1006220020C401F01F0E01160150010A01E08DD015
:1006320004012451000A01E088D02151060A3FE159
:1006420034D03150010A17E1320E006E190E016EDC
:10065200000E026E120E0026000E0122022200C0BF
:1006620034F001C035F002C036F0090E386E000ECB
:10067200396EC00E376E23D03150010A12E15B0E83
:10068200006E190E016E000E026E00C034F001C041
:1006920035F002C036F0210E386E000E396EC00EF3
:1006A200376E0DD0800E376E0AD004012351210A15
:1006B200C8E02351220AE0E02351230AF3E020C4D8
:1006C20001F0600E0116050E006E005004E00132CA
:1006D200019EFF0FFBD70150010A01E036D022D064
:1006E20034D033D05C0E346E000E356E010E386E8F
:1006F200000E396EC10E376E28D0800E376E23C4BD
:100702005CF023D05B0E346E000E356E010E386E37
:10071200000E396E810E376E18D0800E376E22C4ED
:100722005BF013D004012151010ADAE02151090AD8
:10073200D8E02151020AD6E021510A0ADEE0215115
:0C074200030AE0E021510B0AE8E012007D
:10074E002F6A48C0E1FF49C0E2FFE66A040E48186E
:10075E00E16E49C0E2FF000EE21AE66A52BE529EF8
:02076E00120077
:1007700020C401F0600E0116050E006E005004E06A
:100780000132019EFF0FFBD70150000A01E058D053
:1007900034D0378E080E2E6E53D067DE51D015DD63
:1007A0004FD0310E346E000E356E3780010E386E2C
:1007B000378E46D0D1DE44D0B5DD42D0300E006E4B
:1007C000000E016E24510026D8B0012A00C034F07A
:1007D00001C035F03780010E386E378E31D0378E3C
:1007E000300EE16E000EE26E2451E126D8B0E22A0E
:1007F00022C4E6FF25D024D023D004012151050ACC
:10080000C8E02151060AC9E02151090AC8E0215176
:10081000080AC7E02151000ACDE02151010ACCE0CD
:100820002151030AC9E021510A0AC8E021510B0AEB
:10083000D6E02151070ADFE021510C0ADDE0DCD7C8
:020840001200A4
:100842006D9837BE4BD052AE29D0020E2F6E010EDC
:100852004824E16E000E4920E26EE66A48C0E1FFDC
:1008620049C0E2FFC80EE66E010E00016925E16E85
:10087200000E6A21E26E080EE66E020E6925E16E36
:10088200000E6A21E26E280EE66E040EE66E69C064
:10089200E1FF6AC0E2FFC80EE66E1FD00001010E42
:1008A2006925E16E000E6A21E26E080EE66E020E06
:1008B2006925E16E000E6A21E26E200EE66E040EDC
:1008C200E66E69C0E1FF6AC0E2FF8C0EE66E48C0C8
:1008D200E1FF49C0E2FF840EE66E7FD052BE7DD0BA
:1008E200040120AF52D03950275D02E13850265D15
:1008F20004E226C438F027C439F075DC010E2F6EED
:10090200010E00016925E16E000E6A21E26E080EF9
:10091200E66E020E6925E16E000E6A21E26E200E7D
:10092200E66E040EE66E69C0E1FF6AC0E2FF800E69
:10093200E66E606B010E6725E16E000E6821E26EC5
:10094200080EE66E020E6725E16E000E6821E26E69
:10095200200EE66E040EE66E67C0E1FF68C0E2FF9D
:10096200840EE66E010E606F020E4824E16E000EE8
:100972004920E26E280EE66E040EE66E48C0E1FFE4
:1009820049C0E2FFC80EE66E28D00001020E2F6EAB
:10099200010E4824E16E000E4920E26EE66A48C06C
:1009A200E1FF49C0E2FFC80EE66E010E6925E16E65
:1009B200000E6A21E26E080EE66E020E6925E16EF5
:1009C200000E6A21E26E280EE66E040EE66E69C023
:0C09D200E1FF6AC0E2FFC80EE66E1200F2
:1009DE00010E00016725E96E000E6821EA6EEECF6A
:1009EE0000F000C002F0000E545C02E10250535CB5
:1009FE0003E253C002F00AD00250535C006E000EA8
:100A0E005458016E00C053F001C054F0036A0250F6
:100A1E00035C1CE2280EE96E040EEA6E0350E92612
:100A2E00D8B0EA2AEECF00F050C0E1FF51C0E2FF8D
:100A3E0000C0E6FF010E5024006E000E5120016E24
:100A4E0000C050F001C051F0032AE1D7000E006E35
:100A5E005450005C02E15350000828E2010E692553
:100A6E00E16E000E6A21E26E080EE66E020E692538
:100A7E00E16E000E6A21E26E280EE66E040EE66E40
:100A8E0067C0E9FF68C0EAFFEECF00F000BC07D0F8
:100A9E0069C0E1FF6AC0E2FFC80EE66E06D069C00B
:100AAE00E1FF6AC0E2FF880EE66E19D0010E6925DD
:100ABE00E16E000E6A21E26E080EE66E020E6925E8
:100ACE00E16E000E6A21E26E200EE66E040EE66EF8
:100ADE0069C0E1FF6AC0E2FF840EE66E529E12000C
:100AEE00320E436E190E446E000E456EA60E3A6E11
:100AFE00190E3B6E000E3C6E8E0E3D6E190E3E6E46
:100B0E00000E3F6E9C0E406E190E416E000E426E30
:020B1E001200C3
:080B2000475201E07EDD1200E6
:0E0B2800160E6F6E9F0E6B6E3B0E696E120006
:100B360048C0E9FF49C0EAFFEECF00F000AE05D09D
:100B460048C0E1FF49C0E2FFE66A00016D6B2F6A0B
:0E0B5600386A396A376A09DEE0DF70DE1200A5
:100B64006D92699468A403D0FB0E6816FBD712003B
:100B7400040E4818006E00C048F02E50080A0AE11E
:100B840022C46EFF6E50000803E2100E2E6E02D0D7
:100B9400040E2E6E2F50010A3CE1020E4824E16E31
:100BA400000E4920E26E280EE66E040EE66EF4ECAA
:100BB40000F000016D51020A07E148C0E1FF49C09D
:100BC400E2FF840EE66E24D0040E4818006E00C0C6
:100BD40048F048C0E9FF49C0EAFFEECF00F000BC8E
:100BE4000CD0040E4818006E00C048F048C0E1FF65
:100BF40049C0E2FFC80EE66E0BD0040E4818006E22
:100C040000C048F048C0E1FF49C0E2FF880EE66E2C
:060C140001D09BDD12007F
:0A0C1A006984EF0E68166D82120067
:040C2400A19A12007F
:100C28002F50020A02E1D7DE1FD08DDD000160518E
:100C3800000A19E1010E6925E16E000E6A21E26ED3
:100C4800080EE66E020E6925E16E000E6A21E26E5C
:100C5800200EE66E040EE66E69C0E1FF6AC0E2FF90
:0A0C68008C0EE66E01D0606B1200E6
:100C72003DDF2A6A2B6A5D6A5E6A6A6A686A53DFC6
:100C82006D8C6E6A716A6D9C0001616B626B000E05
:100C9200625D02E1080E615D17E261C000F062C0B0
:100CA20001F0003600900136003600900136000E49
:100CB2000024E16E040E0120E26EE66AE66AE66A4C
:100CC200E66A614B622BE3D7160E706E68A603D0FC
:100CD200F70E6816FBD7376A526A536A546A6D98E0
:0E0CE200080E486E040E496E316A2E6A12002A
:100CF00070A01CD067C0E9FF68C0EAFFEECF01F02A
:100D00000150800A12E148C0E9FF49C0EAFFEECF76
:100D100001F0000E000A02E1840E011806E167C02E
:100D2000E1FF68C0E2FF8C0EE66E7090DF0E681681
:020D30001200AF
:100D3200000E0001871902E1000E861902E1016A24
:100D42000AD086C0E9FF87C0EAFFEECF00F0000EAE
:0C0D520000BE010E016E01C000F0120096
:100D5E0000018751000A12E086C000F0000E016EFD
:100D6E00003600900136480E0024E96E000E012078
:100D7E00EA6EEECF04F0EECF05F011D086C000F093
:100D8E00000E016E0036009001364C0E0024E96E06
:100D9E00000E0120EA6EEECF04F0EECF05F0020E4B
:100DAE000424E16E000E0520E26E88C0E6FF89C0C5
:100DBE00E6FF010E0424E16E000E0520E26E8AC0ED
:100DCE00E6FF04C0E9FF05C0EAFFEECF00F004C065
:100DDE00E1FF05C0E2FF400E0014E66E04C0E9FF1D
:100DEE0005C0EAFFEECF00F0880E001204C0E1FF4E
:100DFE0005C0E2FF00C0E6FF8751000A1BE086C077
:100E0E0000F0000E016E003600900136480E0024F0
:100E1E00026E000E0120036E02C0E9FF03C0EAFF5E
:100E2E00040EEE18006E02C0E1FF03C0E2FF00C028
:100E3E00E6FF1AD086C000F0000E016E003600905C
:100E4E0001364C0E0024026E000E0120036E02C00D
:100E5E00E9FF03C0EAFF040EEE18006E02C0E1FFC8
:100E6E0003C0E2FF00C0E6FF04C000F005C001F0C1
:020E7E00120060
:100E80002E50000A09E16D6A696A4EDE6DB602D025
:100E90006D86FCD7010E2E6E2E50010A08E16DBA48
:100EA00006D0686A696A69806988020E2E6E68A435
:100EB00005D069A403D0FB0E681654DE6DA202D0E3
:100EC000B1DED5D068A018D069A016D0D2DE040E4D
:100ED0002E6E200E0401026F040E036F080E016FC8
:100EE000000E0015006E00C000F48C0E0011006EA4
:100EF00000C000F4FE0E681668A805D069A803D0EB
:100F00008CDEEF0E681668AC04D069AC02D0BF0E60
:100F1000681668AA03D069AA01D0EADE68A202D0E6
:100F200069B26A6A040E2E5C02E27CDEA0D069A679
:100F30009DD00001876B040E875DD8B097D068A65E
:100F400091D06CCF5FF0F70E6816780E5F14016ECB
:100F50000150000AD8A485D0FD0E5F14016E026A0C
:100F6000FF0E0216000E021802E1000E01186BE1DE
:100F70007E0E5F14016E01C003F00332039E03C0B6
:100F800000F0000E016E0036009001360036009031
:100F90000136000E0024026E040E0120036E02C012
:100FA00067F003C068F002C069F003C06AF0040E85
:100FB0006919006E00C069F002C0E9FF03C0EAFFD2
:100FC000EECF00F000C001F03C0E01160132019E90
:100FD0000132019E01500D0A34E1020E6725E96ECF
:100FE000000E6821EA6EEECF01F0EECF02F0025063
:100FF000040A02E1280E011822E1020E6725E16EC3
:10100000000E6821E26E200EE66E040EE66E866B20
:10101000080E865D14E2200EE16E040EE26E86512B
:10102000E126D8B0E22A280EE96E040EEA6E865157
:10103000E926D8B0EA2AEECFE6FF862BE9D77BDD9A
:1010400001D0F2DD0DD0FD0E5F14016E026AFF0EBD
:101050000216000E021802E1040E011801E18ADDF9
:1010600000D001D003D00001872B65D7DBDD120053
:10107000200E2E5C03E36DB201D002D0006A4FD087
:101080005DC086F05EC087F054DE005247E183C049
:1010900086F0010E876F80C088F081C089F082C021
:1010A0008AF05DDE00C05DF001C05EF0636B646BD2
:1010B000656B666B5DC086F05EC087F03ADE0052FD
:1010C00017E0200E2E5C03E36DB201D002D0006A5F
:1010D00026D0010E016E0150000A01E1D1DE0001AF
:1010E000635164116511661102E0006A18D0E2D7FD
:1010F0005DC084F05EC085F0000E5E1802E1000E57
:101100005D180AE00001010E8425E96E000E8521BC
:10111000EA6EEECF00F003D0006A01D0006A120040
:1011200079C080F07AC081F07BC082F0010E0001AE
:06113000836F9EDF120038
:1011360000017C6B7D6B7E6B020E7925F66E000ED0
:101146007A21F76E000E7B21F86E0900F5CF05F0C7
:10115600030E7925F66E000E7A21F76E000E7B21BE
:10116600F86E0900F5CF00F000C003F0000E046E23
:1011760003C001F0006A05500024066E000E01202F
:10118600076E79C008F07AC009F07BC00AF0010E3C
:101196000824F66E000E0920F76E000E0A20F86E7F
:1011A6000900F5CF01F00150020A1BE1060E0824E2
:1011B600F66E000E0920F76E000E0A20F86E090082
:1011C600F5CF01F001507C5D0CE2060E0824F66EA8
:1011D600000E0920F76E000E0A20F86E0900F5CF02
:1011E6007CF0010E0824F66E000E0920F76E000E44
:1011F6000A20F86E0900F5CF01F00150040A1BE140
:10120600080E0824F66E000E0920F76E000E0A205E
:10121600F86E0900F5CF01F001507C5D0CE2080E76
:101226000824F66E000E0920F76E000E0A20F86EEE
:101236000900F5CF7CF008C0F6FF09C0F7FF0AC029
:10124600F8FF0900F5CF00F000507D25016E000E75
:101256007E21026E01C07DF002C07EF00750025C66
:1012660002E10650015C01E30FD008C0F6FF09C099
:10127600F7FF0AC0F8FF0900F5CF00F00050082676
:0E128600000E09220A2283D77CC000F012005D
:0A129400D08EA28AA08AF28E12000A
:10129E00040E0C6E3A0E0D6E0D2EFED70C2EFCD7D4
:0412AE00000012002A
:1012B2007C0E006E190E016E000E026E0E0E0024E0
:1012C200F66E000E0120F76E000E0220F86E090085
:1012D200F5CF03F003C004F00F0E0024F66E000EEB
:1012E2000120F76E000E0220F86E0900F5CF01F022
:1012F2000150035C12E27C0E006E190E016E000EAC
:10130200026E0F0E0024F66E000E0120F76E000E24
:101312000220F86E0900F5CF04F07C0E006E190E63
:10132200016E000E026E100E0024F66E000E0120F9
:10133200F76E000E0220F86E0900F5CF01F00150A1
:10134200045C12E27C0E006E190E016E000E026E3B
:10135200100E0024F66E000E0120F76E000E022021
:0E136200F86E0900F5CF04F004C000F0120090
:1013700000017F6B200E2E5C03E36DB201D002D022
:10138000006A2DD02AC086F02BC087F0D2DC005234
:1013900025E12AC07DF02BC07EF0000E2B1802E163
:1013A000000E2A180AE0010E7D25E96E000E7E214E
:1013B000EA6EEECF00F000C07FF07CC086F0876B55
:1013C00079C088F07AC089F07BC08AF0C8DC00C0A0
:1013D0002AF001C02BF07FC000F001D0006A12009B
:1013E00072C040F5400E0001796F050E7A6F010E54
:0613F0007B6F96DE120087
:1013F6000001786B74C001F0010E006E015004E02C
:1014060000360090FF0FFBD700C077F072C0E9FFEF
:1014160073C0EAFF0050EE14016E0152010ED8A40B
:10142600000E006E7651001A18E07551000804E2AD
:1014360033DF32DF7507F9D772C0E9FF73C0EAFF01
:101446007751EE14016E0152010ED8A4000E006E03
:101456007651001A02E0FF0E786F78C000F0120095
:081466008D908D928D9412000F
:10146E002E50000A0BE16D6A696A94EC05F00BDFF1
:0E147E006DB602D06D86FCD7010E2E6E1200E8
:10148C002CC079F02DC07AF0400E00017B6F010E5C
:06149C007C6F68DF120006
:1014A20007DF00C072F0320E0001796F190E7A6FF9
:1014B200000E7B6F3FDE00C073F07251005C03E2EE
:0C14C20072C000F002D073C000F01200F5
:1014CE000001706B716B800E7119006E800E6F19BA
:1014DE00005C02E16E51705DD8B0A0D0D0DF00523A
:1014EE002AE005010051310A0AE1010E326E000EAA
:1014FE00336E590E0001726F6CDFAEDF8FD00501B7
:10150E000051320A0AE1020E326E000E336E550E93
:10151E000001726F5EDFA0DF81D005010051330A3A
:10152E000AE1030E326E000E336E4B0E0001726F27
:10153E0050DF92DF73D0810E0001726F0F0E736F4A
:10154E00746B0A0E756F766B4FDF005215E0810ECD
:10155E00726F0F0E736F746B0A0E756F766B44DFBE
:10156E00005201E0F4D7010E326E000E336E590EAA
:10157E00726F2FDF71DF52D0810E0001726F0F0E6E
:10158E00736F010E746F0A0E756F766B2DDF00523E
:10159E0016E0810E726F0F0E736F010E746F0A0ECE
:1015AE00756F766B21DF005201E0F3D7020E326EBB
:1015BE00000E336E550E726F0CDF4EDF2FD0810E84
:1015CE000001726F0F0E736F020E746F0A0E756F3D
:1015DE00766B0ADF005216E0810E726F0F0E736F7C
:1015EE00020E746F0A0E756F766BFEDE005201E00E
:1015FE00F3D7030E326E000E336E4B0E726FE9DEB2
:10160E002BDF0CD0070E0C6E7D0E0D6E0D2EFED741
:0E161E000C2EFCD70001704B712B55D712001B
:10162C003ADF00C029F0010E476E6EC02CF06FC07F
:10163C002DF070C06BF071C06CF039EC06F0010E3F
:0C164C00016E0150010A01E10CDF1200E8
:101658002E50010A07E16DBA05D0686A6980698869
:10166800020E2E6E68A406D069A404D0FB0E68167C
:10167800B2EC05F06DA203D012EC06F0DDD068A044
:1016880019D069A017D039EC06F0040E2E6E200E82
:101698000401026F040E036F080E016F000E00159F
:1016A800006E00C000F48C0E0011006E00C000F443
:1016B800FE0E681668A806D069A804D00DEC06F0DE
:1016C800EF0E681668AC04D069AC02D0BF0E68167D
:1016D80068AA04D069AA02D078EC06F068A202D001
:1016E80069B26A6A040E2E5C03E212EC06F0A4D01A
:1016F80069A6A0D000018C6B040E8C5DD8B09AD07E
:1017080068A694D06CCF5FF0F70E6816780E5F1459
:10171800016E0150000AD8A488D0FD0E5F14016E36
:10172800026AFF0E0216000E021802E1000E0118EE
:101738006DE17E0E5F14016E01C003F00332039E5B
:1017480003C000F0000E016E00360090013600362E
:1017580000900136000E0024026E040E0120036E74
:1017680002C067F003C068F002C069F003C06AF005
:10177800040E6919006E00C069F002C0E9FF03C0D9
:10178800EAFFEECF00F000C001F03C0E0116013276
:10179800019E0132019E01500D0A35E1020E6725B6
:1017A800E96E000E6821EA6EEECF01F0EECF02F08E
:1017B8000250040A02E1280E011822E1020E6725F0
:1017C800E16E000E6821E26E200EE66E040EE66EF3
:1017D8008B6B080E8B5D14E2200EE16E040EE26E38
:1017E8008B51E126D8B0E22A280EE96E040EEA6E83
:1017F8008B51E926D8B0EA2AEECFE6FF8B2BE9D742
:101808009BEC05F002D014EC06F00ED0FD0E5F1430
:10181800016E026AFF0E0216000E021802E1040EA3
:10182800011802E1BAEC05F000D001D003D00001A4
:0A1838008C2B62D712EC06F01200B0
:101842000F0EC112070EB412816A8A6A93809382C4
:101852009384846A8D6A9690969296946F886F8428
:10186200000E00016E6F050E6F6F400E706F050E59
:10187200716FDBDEA19AA08AF28CF28E030E0B6EE0
:101882008A0E0C6E550E0D6E0D2EFED70C2EFCD749
:101892000B2EFAD700000000E5DD030E326E000EBB
:0418A200336E12008F
:1018A600000E331802E1010E321808E18D80010E98
:1018B60000016E6F000E6F6F07DE33D0000E331817
:1018C60002E1020E32180FE18D82E80E00016E6F02
:1018D600030E6F6FF9DD8D92E80E00016E6F030E39
:1018E6006F6FF2DD1ED0000E331802E1030E3218C0
:1018F60018E18D808D94880E00016E6F130E6F6F48
:10190600E3DD8D828D90B80E00016E6F0B0E6F6F4A
:10191600DBDD8D848D92100E00016E6F270E6F6FCA
:04192600D3DD1200FB
:08192A008BDFBCDFFED7FFD705
:1019320009022900010100803209040000020300AB
:101942000000092101010001222100070581034055
:091952000001070501034000013A
:10195B000600FF0901A10119012940150026FF000E
:10196B0075089501810219012940750895019102AD
:01197B00C0AB
:10197C001201000200000008D8040100000101025D
:02198C00000158
:0E198E000E03740069006500730065006E00B2
:0A199C000A03790075006B00690072
:0419A6000403090429
:020000040030CA
:0E000000240C3F1EFF8381FF0FC00FE00F4056
:00000001FF
