:04000000E9EF0BF029
:1000080000C01EF001C01DF002C01CF003C01BF0B0
:1000180004C01AF005C019F008C018F009C017F09C
:100028000AC016F00BC015F0E1CF27F0E2CF28F098
:10003800E9CF25F0EACF26F0F3CF23F0F4CF24F070
:10004800F5CF22F0F8CF1FF0F7CF20F0F6CF21F050
:10005800A1AA03D0A19A80EC0AF022C0F5FF1FC024
:10006800F8FF20C0F7FF21C0F6FF23C0F3FF24C02C
:10007800F4FF1EC000F01DC001F01CC002F01BC040
:1000880003F01AC004F019C005F018C008F017C032
:1000980009F016C00AF015C00BF025C0E9FF26C00C
:0C00A800EAFF27C0E1FF28C0E2FF1100C2
:1000B4001E0E716E100E4F6E040E506E4FC0E1FF97
:1000C40050C0E2FFE69E4FC0E1FF50C0E2FFE69C55
:1000D400040E4F24E16E000E5020E26EE68C180EE2
:1000E4004B6E040E4C6E4BC0E1FF4CC0E2FFE69E2B
:1000F4004BC0E1FF4CC0E2FFE69C040E4B24E16ED2
:10010400000E4C20E26EE68C020E4F24E16E000ECF
:100114005020E26E29C0E6FF2AC0E6FF010E4F24FC
:10012400E16E000E5020E26E400EE66E4FC0E9FF15
:1001340050C0EAFFEECF00F04FC0E1FF50C0E2FF35
:10014400400E0014E66E4FC0E9FF50C0EAFFEECF48
:1001540000F0880E00124FC0E1FF50C0E2FF00C063
:10016400E6FF4FC02DF050C02EF0040E4F18006E65
:0601740000C04FF0120074
:10017A000B6A0A6A096A00500402F4CF09F0F3CF45
:10018A0008F001500502F4CF0BF0F3CF0AF000504B
:10019A000502F3500926F4500A22E86A0B2201509C
:1001AA000402F3500926F4500A22E86A0B2208C016
:1001BA0000F009C001F00AC002F00BC003F01200FF
:1001CA0020C401F01F0E01160150010A01E08DD072
:1001DA0004012451000A01E088D02151060A3FE1B6
:1001EA0034D02C50010A17E1DA0E006E170E016E98
:1001FA00000E026E120E0026000E0122022200C01C
:10020A0035F001C036F002C037F0090E396E000E23
:10021A003A6EC00E386E23D02C50010A12E1030E3A
:10022A00006E180E016E000E026E00C035F001C09D
:10023A0036F002C037F0210E396E000E3A6EC00E4B
:10024A00386E0DD0800E386E0AD004012351210A6F
:10025A00C8E02351220AE0E02351230AF3E020C434
:10026A0001F0600E0116050E006E005004E0013226
:10027A00019EFF0FFBD70150010A01E036D022D0C0
:10028A0034D033D0560E356E000E366E010E396EEE
:10029A00000E3A6EC10E386E28D0800E386E23C416
:1002AA0056F023D0520E356E000E366E010E396EA0
:1002BA00000E3A6E810E386E18D0800E386E22C447
:1002CA0052F013D004012151010ADAE02151090A3E
:1002DA00D8E02151020AD6E021510A0ADEE0215172
:0C02EA00030AE0E021510B0AE8E01200DA
:1002F6000401286B296B42D0388E28814750010AA9
:10030600D8B4288350D0388E4ED0388E24BF16D01D
:1003160024C403F00F0E031603C000F0000E016E96
:100326000036009001364D0E0024E96E000E0120C5
:10033600EA6EEECF04F0EECF05F015D024C403F03C
:100346000F0E031603C000F0000E016E003600907B
:100356000136490E0024E96E000E0120EA6EEECF4A
:1003660004F0EECF05F004C0E9FF05C0EAFFEECFCA
:1003760001F001A402D0010E286F15D020C401F0AF
:100386001F0E01160150000AB7E020C401F01F0E2F
:1003960001160150010AB7E020C401F01F0E011634
:1003A6000150020AB2E038AE07D0280E356E040EB0
:0A03B600366E3880020E396E120018
:1003C00004012251010A0FE120C401F01F0E0116A1
:1003D0000150000A08E1388E2151030A03E1010EA1
:1003E000476E01D0476A2251000AD8A48BD020C49E
:1003F00001F01F0E01160150020AD8A483D024C4B4
:1004000001F00F0E01160150000AD8B47BD0388ECF
:1004100024BF16D024C403F00F0E031603C000F04F
:10042000000E016E0036009001364D0E0024E96E7C
:10043000000E0120EA6EEECF04F0EECF05F015D0ED
:1004400024C403F00F0E031603C000F0000E016E6B
:10045000003600900136490E0024E96E000E01209E
:10046000EA6EEECF04F0EECF05F02151030A07E16A
:1004700004C0E1FF05C0E2FF840EE66E43D024C451
:1004800000F00F0E0016700E026E0F0E036E00507D
:100490000226D8B0032A02C0E9FF03C0EAFFFE0E1D
:1004A000EE14006EEECF01F0FF0E011602C0E1FF68
:1004B00003C0E2FF00C0E6FF01C0E6FF24AF11D099
:1004C00004C0E1FF05C0E2FFE66A040E0418006EF6
:1004D00000C004F004C0E1FF05C0E2FF400EE66E7C
:1004E00011D004C0E1FF05C0E2FF880EE66E040EE5
:1004F0000418006E00C004F004C0E1FF05C0E2FF74
:06050000C80EE66E1200B9
:10050600000E3A5C02E1080E395C10E239C003F0D5
:100516003AC004F03250000A03E1010E326E05D0F3
:100526003250010A02E1020E326E04D0080E036E4A
:10053600000E046E49C0E1FF4AC0E2FFE69249C0E0
:10054600E1FF4AC0E2FFE69049C0E9FF4AC0EAFF80
:10055600EECF00F049C0E1FF4AC0E2FF04500010B0
:10056600E66E010E4924E16E000E4A20E26E03C0DB
:10057600E6FF0350395C006E04503A58016E00C025
:1005860039F001C03AF0280E0001636F040E646F63
:1005960038B02FD0035004102BE035C0F6FF36C01C
:1005A600F7FF37C0F8FF0900F5CF00F063C0E1FFA1
:1005B60064C0E2FF00C0E6FF634B642B010E3524E6
:1005C600006E000E3620016E000E3720026E00C04F
:1005D60035F001C036F002C037F0010E035C006E44
:1005E600000E0458016E00C003F001C004F0D2D71B
:1005F60024D00350041021E035C0E9FF36C0EAFFDD
:1006060063C0E1FF64C0E2FFEECFE6FF634B642BFD
:10061600010E3524006E000E3620016E00C035F046
:1006260001C036F0010E035C006E000E0458016E28
:0C06360000C003F001C004F0DCD712008B
:10064200388E716A486A22C42CF02C50000A03E1E9
:0E065200100E2B6E03D0200E2B6E2BDD12002F
:1006600004012051800AD8A471D0C00E386E64D025
:10067000240E006E180E016E000E026E00C035F0E2
:1006800001C036F002C037F0120E396E000E3A6E1D
:100690005DD0030E006E000E016E22C404F0000E49
:1006A000056E6BDD3B0E0024E96E000E0120EA6E44
:1006B000EECF35F0EECF36F0EECF37F0020E352428
:1006C000F66E000E3620F76E000E3720F86E090029
:1006D000F5CF00F00900F5CF01F000C039F001C0FE
:1006E0003AF034D02251515C23E3030E006E000E29
:1006F000016E22C404F0000E056E3FDD3E0E0024A4
:10070000E96E000E0120EA6EEECF35F0EECF36F046
:10071000EECF37F035C0F6FF36C0F7FF37C0F8FF31
:100720000900F5CF00F000C039F0000E3A6E01D09C
:10073000386A0CD0386A0AD02351010A99E0235153
:0E074000020AA7E02351030ACDE0F4D712000D
:10074E006D9838BE4AD0000167AF28D0020E316EC8
:10075E00010E4924E16E000E4A20E26EE66A49C09F
:10076E00E1FF4AC0E2FFC80EE66E010E6125E16EA2
:10077E00000E6221E26E080EE66E020E6125E16E3B
:10078E00000E6221E26E280EE66E040EE66E61C069
:10079E00E1FF62C0E2FFC80EE66E1ED0010E6125BB
:1007AE00E16E000E6221E26E080EE66E020E61250B
:1007BE00E16E000E6221E26E200EE66E040EE66E13
:1007CE0061C0E1FF62C0E2FF8C0EE66E49C0E1FF40
:1007DE004AC0E2FF840EE66E80D0000167BF7DD076
:1007EE00040120AF52D03A50275D02E13950265D08
:1007FE0004E226C439F027C43AF07EDE010E316ED3
:10080E00010E00016125E16E000E6221E26E080EFE
:10081E00E66E020E6125E16E000E6221E26E200E82
:10082E00E66E040EE66E61C0E1FF62C0E2FF800E6E
:10083E00E66E606B010E2F24E16E000E3020E26E2C
:10084E00080EE66E020E2F24E16E000E3020E26ED0
:10085E00200EE66E040EE66E2FC0E1FF30C0E2FF02
:10086E00840EE66E010E606F020E4924E16E000EDC
:10087E004A20E26E280EE66E040EE66E49C0E1FFD7
:10088E004AC0E2FFC80EE66E28D00001020E316E9D
:10089E00010E4924E16E000E4A20E26EE66A49C05E
:1008AE00E1FF4AC0E2FFC80EE66E010E6125E16E61
:1008BE00000E6221E26E080EE66E020E6125E16EFA
:1008CE00000E6221E26E280EE66E040EE66E61C028
:0C08DE00E1FF62C0E2FFC80EE66E1200EF
:1008EA00010E2F24E96E000E3020EA6EEECF00F0E2
:1008FA0000C002F0000E0001695D02E10250685D6D
:10090A0003E268C002F00AD00250685D006E000E71
:10091A006959016E00C068F001C069F0036A0250AB
:10092A00035C1CE2280EE96E040EEA6E0350E92607
:10093A00D8B0EA2AEECF00F065C0E1FF66C0E2FF58
:10094A0000C0E6FF010E6525006E000E6621016EED
:10095A0000C065F001C066F0032AE1D7000E006E00
:10096A006951005C02E16851000828E2010E612524
:10097A00E16E000E6221E26E080EE66E020E61253D
:10098A00E16E000E6221E26E280EE66E040EE66E3D
:10099A002FC0E9FF30C0EAFFEECF00F000BC07D05D
:1009AA0061C0E1FF62C0E2FFC80EE66E06D061C018
:1009BA00E1FF62C0E2FF880EE66E19D0010E6125E2
:1009CA00E16E000E6221E26E080EE66E020E6125ED
:1009DA00E16E000E6221E26E200EE66E040EE66EF5
:1009EA0061C0E1FF62C0E2FF840EE66E679F1200FB
:1009FA00316A49C0E1FF4AC0E2FFE66A040E4918BB
:100A0A00E16E4AC0E2FF000EE21AE66A000167AF31
:060A1A0001D0679F1200ED
:0A0A2000555202E0E5EC00F0120070
:100A2A00DA0E3B6E170E3C6E000E3D6E4E0E3E6E9B
:100A3A00180E3F6E000E406E360E416E180E426E54
:100A4A00000E436E440E446E180E456E000E466E3E
:020A5A00120088
:0E0A5C00160E6F6E9F0E6B6E3B0E696E1200D3
:100A6A0020C401F0600E0116050E006E005004E06D
:100A7A000132019EFF0FFBD70150000A01E058D056
:100A8A0034D0388E080E2B6E53D0E5DD51D0D4DD2C
:100A9A004FD02C0E356E000E366E3880010E396E30
:100AAA00388E46D023DC44D086DC42D0480E006E15
:100ABA00000E016E24510026D8B0012A00C035F07C
:100ACA0001C036F03880010E396E388E31D0388E3A
:100ADA00480EE16E000EE26E2451E126D8B0E22AF9
:100AEA0022C4E6FF25D024D023D004012151050ACF
:100AFA00C8E02151060AC9E02151090AC8E021517A
:100B0A00080AC7E02151000ACDE02151010ACCE0D0
:100B1A002151030AC9E021510A0AC8E021510B0AEE
:100B2A00D6E02151070ADFE021510C0ADDE0DCD7CB
:020B3A001200A7
:100B3C0070A01CD02FC0E9FF30C0EAFFEECF01F04F
:100B4C000150800A12E149C0E9FF4AC0EAFFEECF2A
:100B5C0001F0000E000A02E1840E011806E12FC01C
:100B6C00E1FF30C0E2FF8C0EE66E7090DF0E68166F
:020B7C00120065
:100B7E006D92699468A403D0FB0E6816FBD7120021
:100B8E004DDF2D6A2E6A5C6A5D6A6A6A686A5FDF8B
:100B9E006D8C6E6A716A6D9C5E6A5F6A000E5F5C38
:100BAE0002E1080E5E5C17E25EC000F05FC001F06D
:100BBE00003600900136003600900136000E0024FB
:100BCE00E16E040E0120E26EE66AE66AE66AE66A05
:100BDE005E4A5F2AE3D7160E706E68A603D0F70E34
:100BEE006816FBD7386A0001676B686B696B6D9886
:0E0BFE00080E496E040E4A6E2C6A2B6A120015
:100C0C00040E4918006E00C049F02B50080A0AE186
:100C1C0022C46EFF6E50000803E2100E2B6E02D041
:100C2C00040E2B6E3150010A3AE1020E4924E16E9A
:100C3C00000E4A20E26E280EE66E040EE66E5DDCB7
:100C4C003250020A07E149C0E1FF4AC0E2FF840EBC
:100C5C00E66E24D0040E4918006E00C049F049C05D
:100C6C00E9FF4AC0EAFFEECF00F000BC0CD0040E46
:100C7C004918006E00C049F049C0E1FF4AC0E2FFCC
:100C8C00C80EE66E0BD0040E4918006E00C049F079
:100C9C0049C0E1FF4AC0E2FF880EE66E01D0A7DE34
:020CAC00120034
:100CAE003150020A02E11ADE1ED0A0DE6051000AA7
:100CBE0019E1010E6125E16E000E6221E26E080E51
:100CCE00E66E020E6125E16E000E6221E26E200ECE
:100CDE00E66E040EE66E61C0E1FF62C0E2FF8C0EAE
:080CEE00E66E01D0606B1200FC
:100CF60049C0E9FF4AC0EAFFEECF00F000AE05D0DA
:100D060049C0E1FF4AC0E2FFE66A326A316A396ADF
:0C0D16003A6A386AA7DE81DE17DD1200A1
:040D2200A19A120080
:0A0D26006984EF0E68166D8212005A
:100D30002B50000A09E16D6A696A90DE6DB602D037
:100D40006D86FCD7010E2B6E2B50010A08E16DBA9F
:100D500006D0686A696A69806988020E2B6E68A489
:100D600005D069A403D0FB0E681609DF6DA202D07E
:100D7000D8DFD5D068A018D069A016D008DF040E3F
:100D80002B6E200E0401026F040E036F080E016F1C
:100D9000000E0015006E00C000F48C0E0011006EF5
:100DA00000C000F4FE0E681668A805D069A803D03C
:100DB000BADFEF0E681668AC04D069AC02D0BF0E83
:100DC000681668AA03D069AA01D0B8DE68A202D06A
:100DD00069B26A6A040E2B5C02E2A3DFA0D069A6A6
:100DE0009DD00001826B040E825DD8B097D068A6BA
:100DF00091D06CCF5BF0F70E6816780E5B14016E25
:100E00000150000AD8A485D0FD0E5B14016E026A61
:100E1000FF0E0216000E021802E1000E01186BE12F
:100E20007E0E5B14016E01C003F00332039E03C00B
:100E300000F0000E016E0036009001360036009082
:100E40000136000E0024026E040E0120036E02C063
:100E50002FF003C030F002C061F003C062F0040E56
:100E60006119006E00C061F002C0E9FF03C0EAFF33
:100E7000EECF00F000C001F03C0E01160132019EE1
:100E80000132019E01500D0A34E1020E2F24E96E59
:100E9000000E3020EA6EEECF01F0EECF02F00250ED
:100EA000040A02E1280E011822E1020E2F24E16E4D
:100EB000000E3020E26E200EE66E040EE66E816BB0
:100EC000080E815D14E2200EE16E040EE26E815187
:100ED000E126D8B0E22A280EE96E040EEA6E8151AE
:100EE000E926D8B0EA2AEECFE6FF812BE9D703DF67
:100EF00001D0DDDE0DD0FD0E5B14016E026AFF0E27
:100F00000216000E021802E1040E011801E17EDE55
:100F100000D001D003D00001822B65D702DF120080
:100F2000000E0001821902E1000E811902E1016A3E
:100F30000AD081C0E9FF82C0EAFFEECF00F0000EC8
:0C0F400000BE010E016E01C000F01200A6
:100F4C0000018251000A12E081C000F0000E016E17
:100F5C00003600900136490E0024E96E000E012087
:100F6C00EA6EEECF04F0EECF05F011D081C000F0A8
:100F7C00000E016E0036009001364D0E0024E96E15
:100F8C00000E0120EA6EEECF04F0EECF05F0020E5B
:100F9C000424E16E000E0520E26E83C0E6FF84C0DF
:100FAC00E6FF010E0424E16E000E0520E26E85C002
:100FBC00E6FF04C0E9FF05C0EAFFEECF00F004C075
:100FCC00E1FF05C0E2FF400E0014E66E04C0E9FF2D
:100FDC0005C0EAFFEECF00F0880E001204C0E1FF5E
:100FEC0005C0E2FF00C0E6FF8251000A1BE081C091
:100FFC0000F0000E016E003600900136490E002400
:10100C00026E000E0120036E02C0E9FF03C0EAFF6E
:10101C00040EEE18006E02C0E1FF03C0E2FF00C038
:10102C00E6FF1AD081C000F0000E016E0036009071
:10103C0001364D0E0024026E000E0120036E02C01C
:10104C00E9FF03C0EAFF040EEE18006E02C0E1FFD8
:10105C0003C0E2FF00C0E6FF04C000F005C001F0D1
:02106C00120070
:10106E00200E2B5C03E36DB201D002D0006A4ED08D
:10107E005CC081F05DC082F04CDF005246E17EC064
:10108E0081F0010E826F7BC083F07CC084F07DC046
:10109E0085F055DF00C05CF001C05DF0576A586AFC
:1010AE00596A5A6A5CC081F05DC082F032DF00522C
:1010BE0016E0200E2B5C03E36DB201D002D0006A65
:1010CE0025D0010E016E0150000A01E12ADE5750B3
:1010DE00581059105A1002E0006A18D0E3D75CC0BD
:1010EE007FF05DC080F0000E5D1802E1000E5C180E
:1010FE000AE0010E00017F25E96E000E8021EA6EE6
:0E110E00EECF00F003D0006A01D0006A12009C
:10111C0000017A6B200E2B5C03E36DB201D002D080
:10112C00006A2DD02DC081F02EC082F0F3DE00526B
:10113C0025E12DC078F02EC079F0000E2E1802E1BA
:10114C00000E2D180AE0010E7825E96E000E7921AB
:10115C00EA6EEECF00F000C07AF077C081F0826BBF
:10116C0074C083F075C084F076C085F0E9DE00C0F1
:10117C002DF001C02EF07AC000F001D0006A1200F0
:10118C0074C07BF075C07CF076C07DF0010E000160
:06119C007E6F67DF120008
:1011A200240E006E180E016E000E026E0E0E00244A
:1011B200F66E000E0120F76E000E0220F86E090096
:1011C200F5CF03F003C004F00F0E0024F66E000EFC
:1011D2000120F76E000E0220F86E0900F5CF01F033
:1011E2000150035C12E2240E006E180E016E000E16
:1011F200026E0F0E0024F66E000E0120F76E000E36
:101202000220F86E0900F5CF04F0240E006E180ECD
:10121200016E000E026E100E0024F66E000E01200A
:10122200F76E000E0220F86E0900F5CF01F00150B2
:10123200045C12E2240E006E180E016E000E026EA5
:10124200100E0024F66E000E0120F76E000E022032
:0E125200F86E0900F5CF04F004C000F01200A1
:101260000001776B786B796B020E7425F66E000EB9
:101270007521F76E000E7621F86E0900F5CF05F0A6
:10128000030E7425F66E000E7521F76E000E7621A2
:10129000F86E0900F5CF00F000C003F0000E046EF8
:1012A00003C001F0006A05500024066E000E012004
:1012B000076E74C008F075C009F076C00AF0010E20
:1012C0000824F66E000E0920F76E000E0A20F86E54
:1012D0000900F5CF01F00150020A1BE1060E0824B7
:1012E000F66E000E0920F76E000E0A20F86E090057
:1012F000F5CF01F00150775D0CE2060E0824F66E82
:10130000000E0920F76E000E0A20F86E0900F5CFD6
:1013100077F0010E0824F66E000E0920F76E000E1D
:101320000A20F86E0900F5CF01F00150040A1BE114
:10133000080E0824F66E000E0920F76E000E0A2033
:10134000F86E0900F5CF01F00150775D0CE2080E50
:101350000824F66E000E0920F76E000E0A20F86EC3
:101360000900F5CF77F008C0F6FF09C0F7FF0AC003
:10137000F8FF0900F5CF00F000507825016E000E4F
:101380007921026E01C078F002C079F00750025C4A
:1013900002E10650015C01E30FD008C0F6FF09C06E
:1013A000F7FF0AC0F8FF0900F5CF00F0005008264B
:0E13B000000E09220A2283D777C000F0120037
:0A13BE00D08EA28AA08AF28E1200DF
:1013C8002B50000A0BE16D6A696A2EEC05F0F3DF19
:0E13D8006DB602D06D86FCD7010E2B6E120092
:1013E600DDDE00C072F0DA0E0001746F170E756F45
:1013F600000E766F32DF00C073F07251005C03E2BC
:0C14060072C000F002D073C000F01200B1
:081412008D908D928D94120063
:10141A0072C040F5400E0001746F050E756F010E23
:06142A00766FAFDE120038
:1014300029C074F02AC075F0400E0001766F010ECD
:06144000776F6CDE120064
:101446000001706B716B800E7119006E800E6F1942
:10145600005C02E16E51705D39E2E7DF00522AE07E
:1014660005010051310A0AE1010E336E000E346E99
:10147600590E0001726FCEDFC9DF28D00501005179
:10148600320A0AE1020E336E000E346E550E00016A
:10149600726FC0DFBBDF1AD005010051330A0AE1C3
:1014A600030E336E000E346E4B0E0001726FB2DF08
:1014B600ADDF0CD0070E0C6E7D0E0D6E0D2EFED719
:0E14C6000C2EFCD70001704B712BBDD712000D
:1014D40088DF00C051F0010E556E6EC029F06FC058
:1014E4002AF070C053F071C054F0C7EC05F0010E3F
:0C14F400016E0150010A01E165DF1200E9
:101500002B50010A07E16DBA05D0686A69806988C5
:10151000020E2B6E68A406D069A404D0FB0E6816D8
:10152000BFEC05F06DA203D091EC06F0DDD068A011
:1015300019D069A017D0C7EC05F0040E2B6E200E51
:101540000401026F040E036F080E016F000E0015F8
:10155000006E00C000F48C0E0011006E00C000F49C
:10156000FE0E681668A806D069A804D093EC06F0B1
:10157000EF0E681668AC04D069AC02D0BF0E6816D6
:1015800068AA04D069AA02D09EEC05F068A202D035
:1015900069B26A6A040E2B5C03E291EC06F0A4D0F7
:1015A00069A6A0D00001876B040E875DD8B09AD0E1
:1015B00068A694D06CCF5BF0F70E6816780E5B14BB
:1015C000016E0150000AD8A488D0FD0E5B14016E94
:1015D000026AFF0E0216000E021802E1000E011848
:1015E0006DE17E0E5B14016E01C003F00332039EB9
:1015F00003C000F0000E016E003600900136003688
:1016000000900136000E0024026E040E0120036ECD
:1016100002C02FF003C030F002C061F003C062F0DE
:10162000040E6119006E00C061F002C0E9FF03C042
:10163000EAFFEECF00F000C001F03C0E01160132CF
:10164000019E0132019E01500D0A35E1020E2F2448
:10165000E96E000E3020EA6EEECF01F0EECF02F020
:101660000250040A02E1280E011822E1020E2F2482
:10167000E16E000E3020E26E200EE66E040EE66E85
:10168000866B080E865D14E2200EE16E040EE26E9B
:101690008651E126D8B0E22A280EE96E040EEA6EE1
:1016A0008651E926D8B0EA2AEECFE6FF862BE9D7A5
:1016B0007BEC06F002D057EC06F00ED0FD0E5B146A
:1016C000016E026AFF0E0216000E021802E1040EFD
:1016D000011802E106EC06F000D001D003D00001B1
:0A16E000872B62D791EC06F0120090
:1016EA000F0EC112070EB412816A8A6A938093821E
:1016FA009384846A8D6A9690969296946F886F8482
:10170A00000E00016E6F050E6F6F400E706F050EB2
:10171A00716FDBDEA19AA08AF28CF28E030E0B6E39
:10172A008A0E0C6E550E0D6E0D2EFED70C2EFCD7A2
:10173A000B2EFAD70000000067DE030E336E000E90
:04174A00346E1200E7
:10174E00000E341802E1010E331808E18D80010EEF
:10175E0000016E6F000E6F6F6FDE33D0000E341807
:10176E0002E1020E33180FE18D82E80E00016E6F5A
:10177E00030E6F6F61DE8D92E80E00016E6F030E29
:10178E006F6F5ADE1ED0000E341802E1030E3318AE
:10179E0018E18D808D94880E00016E6F130E6F6FA1
:1017AE004BDE8D828D90B80E00016E6F0B0E6F6F3B
:1017BE0043DE8D848D92100E00016E6F270E6F6FBB
:0417CE003BDE1200EC
:0817D2008BDFBCDFFED7FFD75F
:1017DA000902290001010080320904000002030005
:1017EA0000000921010100012221000705810340AF
:0917FA0000010705010340000194
:101803000600FF0901A10119012940150026FF0067
:101813007508950181021901294075089501910206
:01182300C004
:101824001201000200000008D804010000010102B6
:021834000001B1
:0E1836000E03740069006500730065006E000B
:0A1844000A03790075006B006900CB
:04184E000403090482
:020000040030CA
:0E000000240C3F1EFF8381FF0FC00FE00F4056
:00000001FF
