:04000000CCEF0CF045
:1000080000C01EF001C01DF002C01CF003C01BF0B0
:1000180004C01AF005C019F008C018F009C017F09C
:100028000AC016F00BC015F0E1CF27F0E2CF28F098
:10003800E9CF25F0EACF26F0F3CF23F0F4CF24F070
:10004800F5CF22F0F8CF1FF0F7CF20F0F6CF21F050
:10005800A1AA03D0A19A52EC0BF022C0F5FF1FC051
:10006800F8FF20C0F7FF21C0F6FF23C0F3FF24C02C
:10007800F4FF1EC000F01DC001F01CC002F01BC040
:1000880003F01AC004F019C005F018C008F017C032
:1000980009F016C00AF015C00BF025C0E9FF26C00C
:0C00A800EAFF27C0E1FF28C0E2FF1100C2
:1000B4001E0E716E100E506E040E516E50C0E1FF94
:1000C40051C0E2FFE69E50C0E1FF51C0E2FFE69C52
:1000D400040E5024E16E000E5120E26EE68C180EE0
:1000E4004A6E040E4B6E4AC0E1FF4BC0E2FFE69E2F
:1000F4004AC0E1FF4BC0E2FFE69C040E4A24E16ED5
:10010400000E4B20E26EE68C020E5024E16E000ECF
:100114005120E26E2EC0E6FF2FC0E6FF010E5024F0
:10012400E16E000E5120E26E400EE66E50C0E9FF13
:1001340051C0EAFFEECF00F050C0E1FF51C0E2FF32
:10014400400E0014E66E50C0E9FF51C0EAFFEECF46
:1001540000F0880E001250C0E1FF51C0E2FF00C061
:10016400E6FF50C029F051C02AF0040E5018006E6A
:0601740000C050F0120073
:10017A000B6A0A6A096A00500402F4CF09F0F3CF45
:10018A0008F001500502F4CF0BF0F3CF0AF000504B
:10019A000502F3500926F4500A22E86A0B2201509C
:1001AA000402F3500926F4500A22E86A0B2208C016
:1001BA0000F009C001F00AC002F00BC003F01200FF
:1001CA00378E716A306A22C433F03350000A03E171
:0E01DA00100E326E03D0200E326E67DF120060
:1001E800000E395C02E1080E385C11E238C003F0F9
:1001F80039C004F000016051000A03E1010E606F8C
:1002080005D06051010A02E1020E606F04D0080EA9
:10021800036E000E046E48C0E1FF49C0E2FFE6929B
:1002280048C0E1FF49C0E2FFE69048C0E9FF49C085
:10023800EAFFEECF00F048C0E1FF49C0E2FF0450FA
:100248000010E66E010E4824E16E000E4920E26EB1
:1002580003C0E6FF0350385C006E04503958016E45
:1002680000C038F001C039F0280E536E040E546EE9
:1002780037B02FD0035004102BE034C0F6FF35C040
:10028800F7FF36C0F8FF0900F5CF00F053C0E1FFD3
:1002980054C0E2FF00C0E6FF534A542A010E34243A
:1002A800006E000E3520016E000E3620026E00C072
:1002B80034F001C035F002C036F0010E035C006E68
:1002C800000E0458016E00C003F001C004F0D2D73C
:1002D80024D00350041021E034C0E9FF35C0EAFF00
:1002E80053C0E1FF54C0E2FFEECFE6FF534A542A61
:1002F800010E3424006E000E3520016E00C034F06B
:1003080001C035F0010E035C006E000E0458016E4A
:0C03180000C003F001C004F0DCD71200AC
:1003240004012251010A0FE120C401F01F0E01163D
:100334000150000A08E1378E2151030A03E1010E3E
:100344004D6E01D04D6A2251000AD8A48BD020C42E
:1003540001F01F0E01160150020AD8A483D024C450
:1003640001F00F0E01160150000AD8B47BD0378E6D
:1003740024BF16D024C403F00F0E031603C000F0EC
:10038400000E016E0036009001364E0E0024E96E18
:10039400000E0120EA6EEECF04F0EECF05F015D08A
:1003A40024C403F00F0E031603C000F0000E016E08
:1003B400003600900136480E0024E96E000E01203C
:1003C400EA6EEECF04F0EECF05F02151030A07E107
:1003D40004C0E1FF05C0E2FF840EE66E43D024C4EE
:1003E40000F00F0E0016700E026E0F0E036E00501A
:1003F4000226D8B0032A02C0E9FF03C0EAFFFE0EBA
:10040400EE14006EEECF01F0FF0E011602C0E1FF04
:1004140003C0E2FF00C0E6FF01C0E6FF24AF11D035
:1004240004C0E1FF05C0E2FFE66A040E0418006E92
:1004340000C004F004C0E1FF05C0E2FF400EE66E18
:1004440011D004C0E1FF05C0E2FF880EE66E040E81
:100454000418006E00C004F004C0E1FF05C0E2FF10
:06046400C80EE66E120056
:10046A0004012051800AD8A471D0C00E376E64D01E
:10047A00EA0E006E190E016E000E026E00C034F014
:10048A0001C035F002C036F0120E386E000E396E19
:10049A005DD0030E006E000E016E22C404F0000E41
:1004AA00056E66DE3C0E0024E96E000E0120EA6E3F
:1004BA00EECF34F0EECF35F0EECF36F0020E342424
:1004CA00F66E000E3520F76E000E3620F86E090023
:1004DA00F5CF00F00900F5CF01F000C038F001C0F7
:1004EA0039F034D022512B5C23E3030E006E000E48
:1004FA00016E22C404F0000E056E3ADE3F0E00249F
:10050A00E96E000E0120EA6EEECF34F0EECF35F040
:10051A00EECF36F034C0F6FF35C0F7FF36C0F8FF2D
:10052A000900F5CF00F000C038F0000E396E01D096
:10053A00376A0CD0376A0AD02351010A99E023514D
:0E054A00020AA7E02351030ACDE0F4D7120005
:100558000401286B296B42D0378E28814D50010A3F
:10056800D8B4288350D0378E4ED0378E24BF16D0BB
:1005780024C403F00F0E031603C000F0000E016E32
:100588000036009001364E0E0024E96E000E012060
:10059800EA6EEECF04F0EECF05F015D024C403F0D8
:1005A8000F0E031603C000F0000E016E0036009017
:1005B8000136480E0024E96E000E0120EA6EEECFE7
:1005C80004F0EECF05F004C0E9FF05C0EAFFEECF66
:1005D80001F001A402D0010E286F15D020C401F04B
:1005E8001F0E01160150000AB7E020C401F01F0ECB
:1005F80001160150010AB7E020C401F01F0E0116D0
:100608000150020AB2E037AE07D0280E346E040E4D
:0A061800356E3780020E386E1200B6
:1006220020C401F01F0E01160150010A01E08DD015
:1006320004012451000A01E088D02151060A3FE159
:1006420034D03350010A17E1A00E006E190E016E6C
:10065200000E026E120E0026000E0122022200C0BF
:1006620034F001C035F002C036F0090E386E000ECB
:10067200396EC00E376E23D03350010A12E1C90E13
:10068200006E190E016E000E026E00C034F001C041
:1006920035F002C036F0210E386E000E396EC00EF3
:1006A200376E0DD0800E376E0AD004012351210A15
:1006B200C8E02351220AE0E02351230AF3E020C4D8
:1006C20001F0600E0116050E006E005004E00132CA
:1006D200019EFF0FFBD70150010A01E036D022D064
:1006E20034D033D0560E346E000E356E010E386E95
:1006F200000E396EC10E376E28D0800E376E23C4BD
:1007020056F023D0520E346E000E356E010E386E46
:10071200000E396E810E376E18D0800E376E22C4ED
:1007220052F013D004012151010ADAE02151090AE1
:10073200D8E02151020AD6E021510A0ADEE0215115
:0C074200030AE0E021510B0AE8E012007D
:10074E00316A48C0E1FF49C0E2FFE66A040E48186C
:10075E00E16E49C0E2FF000EE21AE66A000165AFE3
:06076E0001D0659F12009E
:1007740020C401F0600E0116050E006E005004E066
:100784000132019EFF0FFBD70150000A01E058D04F
:1007940034D0378E080E326E53D065DE51D013DD5F
:1007A4004FD0330E346E000E356E3780010E386E26
:1007B400378E46D0CFDE44D0B3DD42D0300E006E4B
:1007C400000E016E24510026D8B0012A00C034F076
:1007D40001C035F03780010E386E378E31D0378E38
:1007E400300EE16E000EE26E2451E126D8B0E22A0A
:1007F40022C4E6FF25D024D023D004012151050AC8
:10080400C8E02151060AC9E02151090AC8E0215172
:10081400080AC7E02151000ACDE02151010ACCE0C9
:100824002151030AC9E021510A0AC8E021510B0AE7
:10083400D6E02151070ADFE021510C0ADDE0DCD7C4
:020844001200A0
:100846006D9837BE4AD0000165AF28D0020E316ED2
:10085600010E4824E16E000E4920E26EE66A48C0A9
:10086600E1FF49C0E2FFC80EE66E010E6125E16EAA
:10087600000E6221E26E080EE66E020E6125E16E42
:10088600000E6221E26E280EE66E040EE66E61C070
:10089600E1FF62C0E2FFC80EE66E1ED0010E6125C2
:1008A600E16E000E6221E26E080EE66E020E612512
:1008B600E16E000E6221E26E200EE66E040EE66E1A
:1008C60061C0E1FF62C0E2FF8C0EE66E48C0E1FF48
:1008D60049C0E2FF840EE66E80D0000165BF7DD080
:1008E600040120AF52D03950275D02E13850265D11
:1008F60004E226C438F027C439F073DC010E316EE9
:10090600010E00016125E16E000E6221E26E080E05
:10091600E66E020E6125E16E000E6221E26E200E89
:10092600E66E040EE66E61C0E1FF62C0E2FF800E75
:10093600E66E556A010E6E25E16E000E6F21E26EBF
:10094600080EE66E020E6E25E16E000E6F21E26E57
:10095600200EE66E040EE66E6EC0E1FF6FC0E2FF8B
:10096600840EE66E010E556E020E4824E16E000EF0
:100976004920E26E280EE66E040EE66E48C0E1FFE0
:1009860049C0E2FFC80EE66E28D00001020E316EA5
:10099600010E4824E16E000E4920E26EE66A48C068
:1009A600E1FF49C0E2FFC80EE66E010E6125E16E69
:1009B600000E6221E26E080EE66E020E6125E16E01
:1009C600000E6221E26E280EE66E040EE66E61C02F
:0C09D600E1FF62C0E2FFC80EE66E1200F6
:1009E200010E00016E25E96E000E6F21EA6EEECF58
:1009F20000F000C002F0000E675D02E10250665D89
:100A020003E266C002F00AD00250665D006E000E7C
:100A12006759016E00C066F001C067F0036A0250B8
:100A2200035C1CE2280EE96E040EEA6E0350E9260E
:100A3200D8B0EA2AEECF00F063C0E1FF64C0E2FF63
:100A420000C0E6FF010E6325006E000E6421016EF8
:100A520000C063F001C064F0032AE1D7000E006E0B
:100A62006751005C02E16651000828E2010E61252F
:100A7200E16E000E6221E26E080EE66E020E612544
:100A8200E16E000E6221E26E280EE66E040EE66E44
:100A92006EC0E9FF6FC0EAFFEECF00F000BC07D0E6
:100AA20061C0E1FF62C0E2FFC80EE66E06D061C01F
:100AB200E1FF62C0E2FF880EE66E19D0010E6125E9
:100AC200E16E000E6221E26E080EE66E020E6125F4
:100AD200E16E000E6221E26E200EE66E040EE66EFC
:100AE20061C0E1FF62C0E2FF840EE66E659F120004
:100AF200A00E3C6E190E3D6E000E3E6E140E3F6E41
:100B02001A0E406E000E416EFC0E426E190E436EBE
:100B1200000E446E0A0E456E1A0E466E000E476EA9
:020B22001200BF
:080B24004C5201E07CDD1200DF
:0E0B2C00160E6F6E9F0E6B6E3B0E696E120002
:100B3A0048C0E9FF49C0EAFFEECF00F000AE05D099
:100B4A0048C0E1FF49C0E2FFE66A0001606B316A12
:0E0B5A00386A396A376A09DEE0DF70DE1200A1
:100B68006D92699468A403D0FB0E6816FBD7120037
:100B7800040E4818006E00C048F03250080A0AE116
:100B880022C46EFF6E50000803E2100E326E02D0CF
:100B9800040E326E3150010A3CE1020E4824E16E27
:100BA800000E4920E26E280EE66E040EE66EF4ECA6
:100BB80000F000016051020A07E148C0E1FF49C0A6
:100BC800E2FF840EE66E24D0040E4818006E00C0C2
:100BD80048F048C0E9FF49C0EAFFEECF00F000BC8A
:100BE8000CD0040E4818006E00C048F048C0E1FF61
:100BF80049C0E2FFC80EE66E0BD0040E4818006E1E
:100C080000C048F048C0E1FF49C0E2FF880EE66E28
:060C180001D099DD12007D
:0A0C1E006984EF0E68166D82120063
:040C2800A19A12007B
:100C2C003150020A02E1D7DE1ED08BDD5550000A8E
:100C3C0019E1010E6125E16E000E6221E26E080ED3
:100C4C00E66E020E6125E16E000E6221E26E200E50
:100C5C00E66E040EE66E61C0E1FF62C0E2FF8C0E30
:080C6C00E66E01D0556A12008A
:100C74003EDF296A2A6A5A6A5B6A6A6A686A54DFCA
:100C84006D8C6E6A716A6D9C576A586A000E585C66
:100C940002E1080E575C17E257C000F058C001F09B
:100CA400003600900136003600900136000E002414
:100CB400E16E040E0120E26EE66AE66AE66AE66A1E
:100CC400574A582AE3D7160E706E68A603D0F70E5B
:100CD4006816FBD7376A0001656B666B676B6D98A6
:0E0CE400080E486E040E496E336A326A120022
:100CF20070A01CD06EC0E9FF6FC0EAFFEECF01F01A
:100D02000150800A12E148C0E9FF49C0EAFFEECF74
:100D120001F0000E000A02E1840E011806E16EC025
:100D2200E1FF6FC0E2FF8C0EE66E7090DF0E681678
:020D32001200AD
:100D3400000E0001891902E1000E881902E1016A1E
:100D44000AD088C0E9FF89C0EAFFEECF00F0000EA8
:0C0D540000BE010E016E01C000F0120094
:100D600000018951000A12E088C000F0000E016EF7
:100D7000003600900136480E0024E96E000E012076
:100D8000EA6EEECF04F0EECF05F011D088C000F08F
:100D9000000E016E0036009001364E0E0024E96E02
:100DA000000E0120EA6EEECF04F0EECF05F0020E49
:100DB0000424E16E000E0520E26E8AC0E6FF8BC0BF
:100DC000E6FF010E0424E16E000E0520E26E8CC0E9
:100DD000E6FF04C0E9FF05C0EAFFEECF00F004C063
:100DE000E1FF05C0E2FF400E0014E66E04C0E9FF1B
:100DF00005C0EAFFEECF00F0880E001204C0E1FF4C
:100E000005C0E2FF00C0E6FF8951000A1BE088C070
:100E100000F0000E016E003600900136480E0024EE
:100E2000026E000E0120036E02C0E9FF03C0EAFF5C
:100E3000040EEE18006E02C0E1FF03C0E2FF00C026
:100E4000E6FF1AD088C000F0000E016E0036009058
:100E500001364E0E0024026E000E0120036E02C009
:100E6000E9FF03C0EAFF040EEE18006E02C0E1FFC6
:100E700003C0E2FF00C0E6FF04C000F005C001F0BF
:020E800012005E
:100E82003250000A09E16D6A696A4FDE6DB602D01E
:100E92006D86FCD7010E326E3250010A08E16DBA3E
:100EA20006D0686A696A69806988020E326E68A42F
:100EB20005D069A403D0FB0E681655DE6DA202D0E0
:100EC200B2DED5D068A018D069A016D0D2DE040E4A
:100ED200326E200E0401026F040E036F080E016FC2
:100EE200000E0015006E00C000F48C0E0011006EA2
:100EF20000C000F4FE0E681668A805D069A803D0E9
:100F02008DDEEF0E681668AC04D069AC02D0BF0E5D
:100F1200681668AA03D069AA01D0EADE68A202D0E4
:100F220069B26A6A040E325C02E27DDEA0D069A672
:100F32009DD00001896B040E895DD8B097D068A658
:100F420091D06CCF59F0F70E6816780E5914016ED5
:100F52000150000AD8A485D0FD0E5914016E026A10
:100F6200FF0E0216000E021802E1000E01186BE1DC
:100F72007E0E5914016E01C003F00332039E03C0BA
:100F820000F0000E016E003600900136003600902F
:100F92000136000E0024026E040E0120036E02C010
:100FA2006EF003C06FF002C061F003C062F0040E85
:100FB2006119006E00C061F002C0E9FF03C0EAFFE0
:100FC200EECF00F000C001F03C0E01160132019E8E
:100FD2000132019E01500D0A34E1020E6E25E96EC6
:100FE200000E6F21EA6EEECF01F0EECF02F002505A
:100FF200040A02E1280E011822E1020E6E25E16EBA
:10100200000E6F21E26E200EE66E040EE66E886B15
:10101200080E885D14E2200EE16E040EE26E885125
:10102200E126D8B0E22A280EE96E040EEA6E885153
:10103200E926D8B0EA2AEECFE6FF882BE9D77CDD95
:1010420001D0F3DD0DD0FD0E5914016E026AFF0EC0
:101052000216000E021802E1040E011801E18BDDF6
:1010620000D001D003D00001892B65D7DCDD12004E
:10107200200E325C03E36DB201D002D0006A4ED082
:101082005AC088F05BC089F054DE005246E185C048
:1010920088F0010E896F82C08AF083C08BF084C011
:1010A2008CF05DDE00C05AF001C05BF05C6A5D6AE4
:1010B2005E6A5F6A5AC088F05BC089F03ADE00520D
:1010C20016E0200E325C03E36DB201D002D0006A5A
:1010D20025D0010E016E0150000A01E1D1DE5C5003
:1010E2005D105E105F1002E0006A18D0E3D75AC0AC
:1010F20086F05BC087F0000E5B1802E1000E5A1802
:101102000AE0010E00018625E96E000E8721EA6ED3
:0E111200EECF00F003D0006A01D0006A120098
:101120007BC082F07CC083F07DC084F0010E0001A2
:06113000856F9FDF120035
:1011360000017E6B7F6B806B020E7B25F66E000EC8
:101146007C21F76E000E7D21F86E0900F5CF05F0C3
:10115600030E7B25F66E000E7C21F76E000E7D21B8
:10116600F86E0900F5CF00F000C003F0000E046E23
:1011760003C001F0006A05500024066E000E01202F
:10118600076E7BC008F07CC009F07DC00AF0010E36
:101196000824F66E000E0920F76E000E0A20F86E7F
:1011A6000900F5CF01F00150020A1BE1060E0824E2
:1011B600F66E000E0920F76E000E0A20F86E090082
:1011C600F5CF01F001507E5D0CE2060E0824F66EA6
:1011D600000E0920F76E000E0A20F86E0900F5CF02
:1011E6007EF0010E0824F66E000E0920F76E000E42
:1011F6000A20F86E0900F5CF01F00150040A1BE140
:10120600080E0824F66E000E0920F76E000E0A205E
:10121600F86E0900F5CF01F001507E5D0CE2080E74
:101226000824F66E000E0920F76E000E0A20F86EEE
:101236000900F5CF7EF008C0F6FF09C0F7FF0AC027
:10124600F8FF0900F5CF00F000507F25016E000E73
:101256008021026E01C07FF002C080F00750025C60
:1012660002E10650015C01E30FD008C0F6FF09C099
:10127600F7FF0AC0F8FF0900F5CF00F00050082676
:0E128600000E09220A2283D77EC000F012005B
:0A129400D08EA28AA08AF28E12000A
:10129E00020E0C6E490E0D6E0D2EFED70C2EFCD7C7
:0612AE0000000000120028
:1012B400EA0E006E190E016E000E026E0E0E002470
:1012C400F66E000E0120F76E000E0220F86E090083
:1012D400F5CF03F003C004F00F0E0024F66E000EE9
:1012E4000120F76E000E0220F86E0900F5CF01F020
:1012F4000150035C12E2EA0E006E190E016E000E3C
:10130400026E0F0E0024F66E000E0120F76E000E22
:101314000220F86E0900F5CF04F0EA0E006E190EF3
:10132400016E000E026E100E0024F66E000E0120F7
:10133400F76E000E0220F86E0900F5CF01F001509F
:10134400045C12E2EA0E006E190E016E000E026ECB
:10135400100E0024F66E000E0120F76E000E02201F
:0E136400F86E0900F5CF04F004C000F012008E
:101372000001816B200E325C03E36DB201D002D01A
:10138200006A2DD029C088F02AC089F0D2DC005230
:1013920025E129C07FF02AC080F0000E2A1802E160
:1013A200000E29180AE0010E7F25E96E000E802149
:1013B200EA6EEECF00F000C081F07EC088F0896B4B
:1013C2007BC08AF07CC08BF07DC08CF0C8DC00C092
:1013D20029F001C02AF081C000F001D0006A120099
:1013E20074C040F5400E00017B6F050E7C6F010E4C
:0613F2007D6F95DE120084
:1013F80000017A6B76C001F0010E006E015004E026
:1014080000360090FF0FFBD700C079F074C0E9FFE9
:1014180075C0EAFF0050EE14016E0152010ED8A407
:10142800000E006E7851001A18E07751000804E2A7
:1014380032DF31DF7707F9D774C0E9FF75C0EAFFFB
:101448007951EE14016E0152010ED8A4000E006EFF
:101458007851001A02E0FF0E7A6F7AC000F012008D
:081468008D908D928D9412000D
:101470003250000A0BE16D6A696A96EC05F00ADFEA
:0E1480006DB602D06D86FCD7010E326E1200E2
:10148E002EC07BF02FC07CF0400E00017D6F010E50
:06149E007E6F68DF120002
:1014A40007DF00C074F0A00E00017B6F190E7C6F83
:1014B400000E7D6F3EDE00C075F07451005C03E2E7
:0C14C40074C000F002D075C000F01200EF
:1014D0000001726B736B7151735D02E17051725D4B
:1014E000D8B0C9D0D4DF0050000A49E0050100514E
:1014F000540A15E13A5001083A6E3B50000E3B5633
:10150000000E3B1802E1000E3A1805E14D0E0001F5
:10151000746F67DF04D0410E0001746F62DF000E4C
:101520003B1802E1010E3A182AE105010051310A87
:101530000AE1010E2C6E000E2D6E96DF590E000191
:10154000746F4FDF98D005010051320A0AE1020E94
:101550002C6E000E2D6E88DF550E0001746F41DF7A
:101560008AD005010051330A0AE1030E2C6E000EE9
:101570002D6E7ADF4B0E0001746F33DF7CD0000ECE
:101580003B1802E1000E3A18D8A467D0810E000182
:10159000746F0F0E756F766B0A0E776F786B2CDF9A
:1015A000005215E0810E746F0F0E756F766B0A0E88
:1015B000776F786B21DF005201E0F4D7010E2C6EBB
:1015C000000E2D6E51DF590E746F0BDF54D0810E5B
:1015D0000001746F0F0E756F010E766F0A0E776F34
:1015E000786B0ADF005216E0810E746F0F0E756F74
:1015F000010E766F0A0E776F786BFEDE005201E007
:10160000F3D7020E2C6E000E2D6E2EDF550E746F6A
:10161000E8DE31D0810E0001746F0F0E756F020E7F
:10162000766F0A0E776F786BE7DE005216E0810E58
:10163000746F0F0E756F020E766F0A0E776F786BF0
:10164000DBDE005201E0F3D7030E2C6E000E2D6E90
:101650000BDF4B0E746FC5DE0ED0030E0C6E970EB3
:101660000D6E0D2EFED70C2EFCD7000000000001E1
:08167000724B732B30D71200FE
:1016780015DF00C02BF0010E4C6E70C02EF071C04B
:101688002FF072C06CF073C06DF03AEC06F0010EEA
:0C169800016E0150010A01E1E7DE1200C2
:1016A4003250010A07E16DBA05D0686A6980698819
:1016B400020E326E68A406D069A404D0FB0E68162C
:1016C400B4EC05F06DA203D014EC06F0DDD068A0F4
:1016D40019D069A017D03AEC06F0040E326E200E31
:1016E4000401026F040E036F080E016F000E001553
:1016F400006E00C000F48C0E0011006E00C000F4F7
:10170400FE0E681668A806D069A804D00FEC06F08F
:10171400EF0E681668AC04D069AC02D0BF0E681630
:1017240068AA04D069AA02D079EC06F068A202D0B3
:1017340069B26A6A040E325C03E214EC06F0A4D0C7
:1017440069A6A0D000018E6B040E8E5DD8B09AD02D
:1017540068A694D06CCF59F0F70E6816780E591419
:10176400016E0150000AD8A488D0FD0E5914016EF0
:10177400026AFF0E0216000E021802E1000E0118A2
:101784006DE17E0E5914016E01C003F00332039E15
:1017940003C000F0000E016E0036009001360036E2
:1017A40000900136000E0024026E040E0120036E28
:1017B40002C06EF003C06FF002C061F003C062F0BB
:1017C400040E6119006E00C061F002C0E9FF03C09D
:1017D400EAFFEECF00F000C001F03C0E011601322A
:1017E400019E0132019E01500D0A35E1020E6E2563
:1017F400E96E000E6F21EA6EEECF01F0EECF02F03B
:101804000250040A02E1280E011822E1020E6E259C
:10181400E16E000E6F21E26E200EE66E040EE66E9F
:101824008D6B080E8D5D14E2200EE16E040EE26EE7
:101834008D51E126D8B0E22A280EE96E040EEA6E34
:101844008D51E926D8B0EA2AEECFE6FF8D2BE9D7F1
:101854009DEC05F002D016EC06F00ED0FD0E5914E6
:10186400016E026AFF0E0216000E021802E1040E57
:10187400011802E1BCEC05F000D001D003D0000156
:0A1884008E2B62D714EC06F0120060
:10188E000F0EC112070EB412816A8A6A9380938278
:10189E009384846A8D6A9690969296946F886F84DC
:1018AE00000E0001706F050E716F400E726F050E07
:1018BE00736FDBDE020E0B6E040E0C6EBA0E0D6E27
:1018CE000D2EFED70C2EFCD70B2EFAD70000A19AA8
:1018DE00A08AF28CF28EC1DD030E2C6E000E2D6EE0
:0618EE003A6A3B6A120099
:1018F400000E2D1802E1010E2C1808E18D80010E56
:101904000001706F000E716FE1DD43D0000E2D18E1
:1019140002E1020E2C180FE18D82E80E0001706FB7
:10192400030E716FD3DD8D92E80E0001706F030E0C
:10193400716FCCDD2ED0000E2D1802E1030E2C1891
:1019440028E18DA009D08D908D82B80E0001706FB2
:101954000B0E716FBBDD1DD08DA209D08D928D84CD
:10196400100E0001706F270E716FB0DD12D08DA4C0
:1019740009D08D948D80880E0001706F130E716FE5
:10198400A5DD07D08D80880E0001706F130E716F76
:041994009DDD1200C3
:081998007ADFACDFFED7FFD7B8
:1019A000090229000101008032090400000203003D
:1019B00000000921010100012221000705810340E7
:0919C000000107050103400001CC
:1019C9000600FF0901A10119012940150026FF00A0
:1019D900750895018102190129407508950191023F
:0119E900C03D
:1019EA001201000200000008D804010000010102EF
:0219FA000001EA
:0E19FC000E03740069006500730065006E0044
:0A1A0A000A03790075006B00690003
:041A140004030904BA
:020000040030CA
:0E000000240C3F1EFF8381FF0FC00FE00F4056
:00000001FF
