:100000009DEF01F00000000000EF00F00000000094
:0A0010000000000000000000F3D71C
:10001C00040E0C6E3A0E0D6E0D2EFED70C2EFCD768
:04002C0000001200BE
:0E003000ACB202D00000FCD733C0ADFF12000E
:08003E008D908D928D9412004B
:10004600396A35C001F0010E006E015004E0003639
:100056000090FF0FFBD700C038F033C0E9FF34C073
:10006600EAFF0050EE14016E0152010ED8A4000EF4
:10007600006E3750001A18E03650000804E2CBDF55
:10008600CADF3606F9D733C0E9FF34C0EAFF385075
:10009600EE14016E0152010ED8A4000E006E375008
:0E00A600001A02E0FF0E396E39C000F01200A1
:0A00B400000E9EBA010E006E12004D
:0C00BE0031C017F031C033F0B4DF120085
:1000CA00186A196A800E1918006E800E3218005CC0
:1000DA0002E13150185C51E21A501B1025E0810EE2
:1000EA00336E0F0E346E356A0A0E366E376AA6DF25
:1000FA00005219E1810E336E0F0E346E010E356E09
:10010A000A0E366E376A9ADF00520DE1810E336E9F
:10011A000F0E346E020E356E0A0E366E376A8EDF99
:10012A00005201E101D01DD0C0DF00520EE01A508A
:10013A001B100BE11C50310A07E01C50320A04E084
:10014A001C50330A01E001D00CD0AFDF005208E0A6
:10015A001C505A0A04E01C50580A01E001D001D090
:10016A0001D00BD0070E0C6E7D0E0D6E0D2EFED734
:0C017A000C2EFCD7184A192AA5D7120039
:100186005BDF15D0010E156E000E166E210E176E72
:1001960020D0020E156E000E166E400E176E19D088
:1001A600030E156E000E166E230E176E12D0000E7D
:1001B600321802E1010E3118E5E0000E321802E1B4
:1001C600020E3118E6E0000E321802E1030E311875
:0A01D600E7E017C033F029DF120044
:1001E000AECF01F0ABA202D0AB98AB8801C000F05B
:0201F0001200FB
:1001F200300E296E000E2A6E330E2B6E000E2C6E00
:10020200E00E256E010E266E000E276E000E286E81
:10021200B40E1D6E000E1E6E000E1F6E000E206EBE
:10022200FF0E216EFF0E226E000E236E000E246E54
:10023200AC8A900EAB6E948E949C9EAA03D0AECFE5
:0602420000F0FBD71200E2
:100248003CD0520E316E37DF8D80E80E316E030ED2
:10025800326E37DF44D0590E316E2DDF8D82E80EB5
:10026800316E030E326E2DDF4F0E316E24DF8D920C
:10027800E80E316E030E326E24DF31D0520E316E2D
:100288001ADF8D948D80880E316E130E326E19DF51
:10029800590E316E10DF8D908D82B80E316E0B0EB7
:1002A800326E0FDF470E316E06DF8D928D84100E91
:1002B800316E270E326E05DF12D0000E161802E1DD
:1002C800010E1518BEE0000E161802E1020E1518F0
:1002D800C2E0000E161802E1030E1518CFE0120056
:1002E8001A501B1001E124D0810E336E0F0E346EAC
:1002F8002DC035F00A0E366E376AA1DE005218E0BE
:10030800810E336E0F0E346E2DC035F00A0E366E28
:10031800376A95DE005201E0F3D71650301802E133
:100328002F50151805E02FC031F030C032F027DF0C
:020338001200B1
:10033A000F0EC112070EB412816A8A6A93809382E1
:10034A009384846A8D6A969096929694B886020EE1
:10035A00B06E080EAF6EAC8447DF030E0B6E8A0ECA
:10036A000C6E550E0D6E0D2EFED70C2EFCD70B2ED5
:10037A00FAD700000000030E156E000E166E010E6D
:10038A001A6E000E1B6E56DE90DE005252E023DF1C
:10039A0000C01CF03FD0010E1A6E000E1B6E450EF7
:1003AA00176E450E336E3FDE44D01A6A1B6A440E3E
:1003BA00176E440E336E37DE3CD01A501B100BE119
:1003CA00000E161802E1010E151805E0010E316E35
:1003DA00000E326ED3DE2DD01A501B100BE1000E28
:1003EA00161802E1020E151805E0020E316E000E13
:1003FA00326EC4DE1ED01A501B100BE1000E161806
:10040A0002E1030E151805E0030E316E000E326E7E
:10041A00B5DE0FD01C505A0ABEE01C50580AC5E07F
:10042A001C50310ACAE01C50320AD6E01C50330A6A
:10043A00E2E02D6A2E6A010E2F6E000E306E4FDF3B
:10044A00010E2D6E000E2E6E020E2F6E000E306EF5
:10045A0046DF020E2D6E000E2E6E030E2F6E000E5C
:0A046A00306E3DDFECDE90D7FFD7C7
:020000040030CA
:0E000000240C1F1EFF8381FF0FC00FE00F4076
:00000001FF
