:04000000E9EF0BF029
:1000080000C01EF001C01DF002C01CF003C01BF0B0
:1000180004C01AF005C019F008C018F009C017F09C
:100028000AC016F00BC015F0E1CF27F0E2CF28F098
:10003800E9CF25F0EACF26F0F3CF23F0F4CF24F070
:10004800F5CF22F0F8CF1FF0F7CF20F0F6CF21F050
:10005800A1AA03D0A19A7EEC0AF022C0F5FF1FC026
:10006800F8FF20C0F7FF21C0F6FF23C0F3FF24C02C
:10007800F4FF1EC000F01DC001F01CC002F01BC040
:1000880003F01AC004F019C005F018C008F017C032
:1000980009F016C00AF015C00BF025C0E9FF26C00C
:0C00A800EAFF27C0E1FF28C0E2FF1100C2
:1000B4001E0E716E100E2D6E040E2E6E2DC0E1FFFD
:1000C4002EC0E2FFE69E2DC0E1FF2EC0E2FFE69CBB
:1000D400040E2D24E16E000E2E20E26EE68C180E26
:1000E400386E040E396E38C0E1FF39C0E2FFE69E77
:1000F40038C0E1FF39C0E2FFE69C040E3824E16E0B
:10010400000E3920E26EE68C020E2D24E16E000E04
:100114002E20E26E29C0E6FF2AC0E6FF010E2D2440
:10012400E16E000E2E20E26E400EE66E2DC0E9FF59
:100134002EC0EAFFEECF00F02DC0E1FF2EC0E2FF9B
:10014400400E0014E66E2DC0E9FF2EC0EAFFEECF8C
:1001540000F0880E00122DC0E1FF2EC0E2FF00C0A7
:10016400E6FF2DC032F02EC033F0040E2D18006EC1
:0601740000C02DF0120096
:10017A000B6A0A6A096A00500402F4CF09F0F3CF45
:10018A0008F001500502F4CF0BF0F3CF0AF000504B
:10019A000502F3500926F4500A22E86A0B2201509C
:1001AA000402F3500926F4500A22E86A0B2208C016
:1001BA0000F009C001F00AC002F00BC003F01200FF
:1001CA0004012251010A0FE120C401F01F0E011699
:1001DA000150000A08E1498E2151030A03E1010E88
:1001EA002F6E01D02F6A2251000AD8A48BD020C4C6
:1001FA0001F01F0E01160150020AD8A483D024C4AC
:10020A0001F00F0E01160150000AD8B47BD0498EB6
:10021A0024BF16D024C403F00F0E031603C000F047
:10022A00000E016E0036009001362B0E0024E96E96
:10023A00000E0120EA6EEECF04F0EECF05F015D0E5
:10024A0024C403F00F0E031603C000F0000E016E63
:10025A00003600900136360E0024E96E000E0120A9
:10026A00EA6EEECF04F0EECF05F02151030A07E162
:10027A0004C0E1FF05C0E2FF840EE66E43D024C449
:10028A0000F00F0E0016700E026E0F0E036E005075
:10029A000226D8B0032A02C0E9FF03C0EAFFFE0E15
:1002AA00EE14006EEECF01F0FF0E011602C0E1FF60
:1002BA0003C0E2FF00C0E6FF01C0E6FF24AF11D091
:1002CA0004C0E1FF05C0E2FFE66A040E0418006EEE
:1002DA0000C004F004C0E1FF05C0E2FF400EE66E74
:1002EA0011D004C0E1FF05C0E2FF880EE66E040EDD
:1002FA000418006E00C004F004C0E1FF05C0E2FF6C
:06030A00C80EE66E1200B1
:1003100020C401F01F0E01160150010A01E08DD02A
:1003200004012451000A01E088D02151060A3FE16E
:1003300034D04E50010A17E1DA0E006E170E016E2E
:10034000000E026E120E0026000E0122022200C0D4
:1003500046F001C047F002C048F0090E4A6E000E98
:100360004B6EC00E496E23D04E50010A12E1030EAF
:10037000006E180E016E000E026E00C046F001C045
:1003800047F002C048F0210E4A6E000E4B6EC00EC0
:10039000496E0DD0800E496E0AD004012351210A06
:1003A000C8E02351220AE0E02351230AF3E020C4ED
:1003B00001F0600E0116050E006E005004E00132DF
:1003C000019EFF0FFBD70150010A01E036D022D079
:1003D00034D033D05B0E466E000E476E010E4A6E6F
:1003E000000E4B6EC10E496E28D0800E496E23C49C
:1003F0005BF023D0530E466E000E476E010E4A6E20
:10040000000E4B6E810E496E18D0800E496E22C4CC
:1004100053F013D004012151010ADAE02151090AF5
:10042000D8E02151020AD6E021510A0ADEE021512A
:0C043000030AE0E021510B0AE8E0120092
:10043C0004012051800AD8A471D0C00E496E64D03A
:10044C00240E006E180E016E000E026E00C046F0F7
:10045C0001C047F002C048F0120E4A6E000E4B6EFF
:10046C005DD0030E006E000E016E22C404F0000E6F
:10047C00056E7DDE430E0024E96E000E0120EA6E4F
:10048C00EECF46F0EECF47F0EECF48F0020E46240A
:10049C00F66E000E4720F76E000E4820F86E09002D
:1004AC00F5CF00F00900F5CF01F000C04AF001C013
:1004BC004BF034D02251315C23E3030E006E000E5E
:1004CC00016E22C404F0000E056E51DE3A0E0024BB
:1004DC00E96E000E0120EA6EEECF46F0EECF47F04B
:1004EC00EECF48F046C0F6FF47C0F7FF48C0F8FF14
:1004FC000900F5CF00F000C04AF0000E4B6E01D0A1
:10050C00496A0CD0496A0AD02351010A99E0235157
:0E051C00020AA7E02351030ACDE0F4D7120033
:10052A00498E716A0001676B22C44EF04E50000A70
:10053A0003E1100E306E03D0200E306EB6DD1200CD
:10054A000401286B296B42D0498E28812F50010A59
:10055A00D8B4288350D0498E4ED0498E24BF16D0A5
:10056A0024C403F00F0E031603C000F0000E016E40
:10057A000036009001362B0E0024E96E000E012091
:10058A00EA6EEECF04F0EECF05F015D024C403F0E6
:10059A000F0E031603C000F0000E016E0036009025
:1005AA000136360E0024E96E000E0120EA6EEECF07
:1005BA0004F0EECF05F004C0E9FF05C0EAFFEECF74
:1005CA0001F001A402D0010E286F15D020C401F059
:1005DA001F0E01160150000AB7E020C401F01F0ED9
:1005EA0001160150010AB7E020C401F01F0E0116DE
:1005FA000150020AB2E049AE07D0280E466E040E38
:0A060A00476E4980020E4A6E12008E
:10061400000E4B5C02E1080E4A5C10E24AC003F093
:100624004BC004F04D50000A03E1010E4D6E05D09D
:100634004D50010A02E1020E4D6E04D0080E036E05
:10064400000E046E36C0E1FF37C0E2FFE69236C00A
:10065400E1FF37C0E2FFE69036C0E9FF37C0EAFFAA
:10066400EECF00F036C0E1FF37C0E2FF04500010C7
:10067400E66E010E3624E16E000E3720E26E03C0F2
:10068400E6FF03504A5C006E04504B58016E00C0F4
:100694004AF001C04BF0280E0001696F040E6A6F26
:1006A40049B02FD0035004102BE046C0F6FF47C0DA
:1006B400F7FF48C0F8FF0900F5CF00F069C0E1FF7B
:1006C4006AC0E2FF00C0E6FF694B6A2B010E4624B4
:1006D400006E000E4720016E000E4820026E00C01E
:1006E40046F001C047F002C048F0010E035C006E02
:1006F400000E0458016E00C003F001C004F0D2D70C
:1007040024D00350041021E046C0E9FF47C0EAFFAB
:1007140069C0E1FF6AC0E2FFEECFE6FF694B6A2BD6
:10072400010E4624006E000E4720016E00C046F004
:1007340001C047F0010E035C006E000E0458016E08
:0C07440000C003F001C004F0DCD712007C
:100750004C6A36C0E1FF37C0E2FFE66A040E361885
:10076000E16E37C0E2FF000EE21AE66A000160AFF8
:0607700001D0609F1200A1
:100776006D9849BE4AD0000160AF28D0020E4C6E7B
:10078600010E3624E16E000E3720E26EE66A36C0B0
:10079600E1FF37C0E2FFC80EE66E010E5C24E16E93
:1007A600000E5D20E26E080EE66E020E5C24E16E1F
:1007B600000E5D20E26E280EE66E040EE66E5CC04C
:1007C600E1FF5DC0E2FFC80EE66E1ED0010E5C249E
:1007D600E16E000E5D20E26E080EE66E020E5C24EF
:1007E600E16E000E5D20E26E200EE66E040EE66EF1
:1007F6005CC0E1FF5DC0E2FF8C0EE66E36C0E1FF35
:1008060037C0E2FF840EE66E7FD0000160BF7CD069
:10081600040120AF52D04B50275D02E14A50265DBD
:1008260004E226C44AF027C44BF0F1DE010E4C6EFA
:10083600010E5C24E16E000E5D20E26E080EE66E8F
:10084600020E5C24E16E000E5D20E26E200EE66E66
:10085600040EE66E5CC0E1FF5DC0E2FF800EE66E50
:1008660000016B6B010E3424E16E000E3520E26E42
:10087600080EE66E020E3424E16E000E3520E26E9E
:10088600200EE66E040EE66E34C0E1FF35C0E2FFD0
:10089600840EE66E010E6B6F020E3624E16E000EBC
:1008A6003720E26E280EE66E040EE66E36C0E1FFD5
:1008B60037C0E2FFC80EE66E27D0020E4C6E010E60
:1008C6003624E16E000E3720E26EE66A36C0E1FF9E
:1008D60037C0E2FFC80EE66E010E5C24E16E000E24
:1008E6005D20E26E080EE66E020E5C24E16E000EDE
:1008F6005D20E26E280EE66E040EE66E5CC0E1FF39
:0A0906005DC0E2FFC80EE66E1200AD
:10091000010E3424E96E000E3520EA6EEECF00F0B1
:1009200000C002F0000E0001625D02E10250615D54
:1009300003E261C002F00AD00250615D006E000E59
:100940006259016E00C061F001C062F0036A02509A
:10095000035C1CE2280EE96E040EEA6E0350E926E1
:10096000D8B0EA2AEECF00F05EC0E1FF5FC0E2FF40
:1009700000C0E6FF010E5E24006E000E5F20016ED7
:1009800000C05EF001C05FF0032AE1D7000E006EE8
:100990006251005C02E16151000828E2010E5C2412
:1009A000E16E000E5D20E26E080EE66E020E5C2423
:1009B000E16E000E5D20E26E280EE66E040EE66E1D
:1009C00034C0E9FF35C0EAFFEECF00F000BC07D02D
:1009D0005CC0E1FF5DC0E2FFC80EE66E06D05CC001
:1009E000E1FF5DC0E2FF880EE66E19D0010E5C24C7
:1009F000E16E000E5D20E26E080EE66E020E5C24D3
:100A0000E16E000E5D20E26E200EE66E040EE66ED4
:100A10005CC0E1FF5DC0E2FF840EE66E609F1200E5
:0A0A20000001685301E074DC1200CD
:100A2A0020C401F0600E0116050E006E005004E0AD
:100A3A000132019EFF0FFBD70150000A01E059D095
:100A4A0035D0498E080E306E54D0F3DC52D068DDB2
:100A5A0050D04E0E466E000E476E4980010E4A6E09
:100A6A00498E47D06DDD45D0E5EC00F042D0670EE7
:100A7A00006E000E016E24510026D8B0012A00C073
:100A8A0046F001C047F04980010E4A6E498E31D0C6
:100A9A00498E670EE16E000EE26E2451E126D8B04F
:100AAA00E22A22C4E6FF25D024D023D00401215112
:100ABA00050AC7E02151060AC8E02151090AC7E020
:100ACA002151080AC6E02151000ACCE02151010A4D
:100ADA00CBE02151030AC8E021510A0AC8E021519A
:100AEA000B0AD6E02151070ADFE021510C0ADDE0AA
:040AFA00DCD7120033
:100AFE00DA0E436E170E446E000E456E4E0E3A6EB3
:100B0E00180E3B6E000E3C6E360E3D6E180E3E6E8F
:100B1E00000E3F6E440E406E180E416E000E426E79
:020B2E001200B3
:0E0B3000160E6F6E9F0E6B6E3B0E696E1200FE
:100B3E0070A01CD034C0E9FF35C0EAFFEECF01F043
:100B4E000150800A12E136C0E9FF37C0EAFFEECF4E
:100B5E0001F0000E000A02E1840E011806E134C015
:100B6E00E1FF35C0E2FF8C0EE66E7090DF0E681668
:020B7E00120063
:100B80006D92699468A403D0FB0E6816FBD712001F
:100B9000B6DF326A336A4F6A506A6A6A686AC8DFC7
:100BA0006D8C6E6A716A6D9C596A5A6A000E5A5C45
:100BB00002E1080E595C17E259C000F05AC001F07A
:100BC000003600900136003600900136000E0024F9
:100BD000E16E040E0120E26EE66AE66AE66AE66A03
:100BE000594A5A2AE3D7160E706E68A603D0F70E3C
:100BF0006816FBD7496A0001606B616B626B6D9888
:0E0C0000080E366E040E376E4E6A306A120011
:100C0E00040E3618006E00C036F03050080A0AE1A5
:100C1E0022C46EFF6E50000803E2100E306E02D03A
:100C2E00040E306E4C50010A3AE1020E3624E16E8B
:100C3E00000E3720E26E280EE66E040EE66EE3DC42
:100C4E004D50020A07E136C0E1FF37C0E2FF840EC5
:100C5E00E66E24D0040E3618006E00C036F036C094
:100C6E00E9FF37C0EAFFEECF00F000BC0CD0040E57
:100C7E003618006E00C036F036C0E1FF37C0E2FF16
:100C8E00C80EE66E0BD0040E3618006E00C036F09D
:100C9E0036C0E1FF37C0E2FF880EE66E01D051DDAF
:020CAE00120032
:100CB0004C50020A02E12CDE1ED04ADD6B51000AC4
:100CC00019E1010E5C24E16E000E5D20E26E080E5B
:100CD000E66E020E5C24E16E000E5D20E26E200ED8
:100CE000E66E040EE66E5CC0E1FF5DC0E2FF8C0EB6
:080CF000E66E01D06B6B1200EF
:100CF80036C0E9FF37C0EAFFEECF00F000AE05D0FE
:100D080036C0E1FF37C0E2FFE66A4D6A4C6A4A6ABC
:0C0D18004B6A496A86DE80DE2ADD12008C
:040D2400A19A12007E
:0A0D28006984EF0E68166D82120058
:100D32003050000A09E16D6A696AF9DE6DB602D0C7
:100D42006D86FCD7010E306E3050010A08E16DBA93
:100D520006D0686A696A69806988020E306E68A482
:100D620005D069A403D0FB0E681609DF6DA202D07C
:100D7200D8DFD6D068A018D069A016D008DF040E3C
:100D8200306E200E0401026F040E036F080E016F15
:100D9200000E0015006E00C000F48C0E0011006EF3
:100DA20000C000F4FE0E681668A805D069A803D03A
:100DB200BADFEF0E681668AC04D069AC02D0BF0E81
:100DC200681668AA03D069AA01D0B8DE68A202D068
:100DD20069B26A6A040E305C02E2A3DFA1D069A69E
:100DE2009ED00001826B040E825DD8B098D068A6B6
:100DF20092D06CCF54F0F70E6816780E5414016E30
:100E02000150000AD8A486D0FD0E5414016E026A65
:100E1200FF0E0216000E021802E1000E01186CE12C
:100E22007E0E5414016E01C003F00332039E03C010
:100E320000F0000E016E0036009001360036009080
:100E42000136000E0024026E040E0120036E02C061
:100E520034F003C035F002C05CF003C05DF0040E54
:100E62005C18006E00C05CF002C0E9FF03C0EAFF3C
:100E7200EECF00F000C001F03C0E01160132019EDF
:100E82000132019E01500D0A35E1020E3424E96E51
:100E9200000E3520EA6EEECF01F0EECF02F00250E6
:100EA200040A02E1280E011823E10001020E342493
:100EB200E16E000E3520E26E200EE66E040EE66E46
:100EC200816B080E815D14E2200EE16E040EE26E6B
:100ED2008151E126D8B0E22A280EE96E040EEA6EAC
:100EE2008151E926D8B0EA2AEECFE6FF812BE9D775
:100EF20002DF01D0DCDE0DD0FD0E5414016E026A59
:100F0200FF0E0216000E021802E1040E011801E1A2
:100F12007DDE00D001D003D00001822B64D701DF37
:020F22001200BB
:100F2400000E0001821902E1000E811902E1016A3A
:100F34000AD081C0E9FF82C0EAFFEECF00F0000EC4
:0C0F440000BE010E016E01C000F01200A2
:100F500000018251000A12E081C000F0000E016E13
:100F6000003600900136360E0024E96E000E012096
:100F7000EA6EEECF04F0EECF05F011D081C000F0A4
:100F8000000E016E0036009001362B0E0024E96E33
:100F9000000E0120EA6EEECF04F0EECF05F0020E57
:100FA0000424E16E000E0520E26E83C0E6FF84C0DB
:100FB000E6FF010E0424E16E000E0520E26E85C0FE
:100FC000E6FF04C0E9FF05C0EAFFEECF00F004C071
:100FD000E1FF05C0E2FF400E0014E66E04C0E9FF29
:100FE00005C0EAFFEECF00F0880E001204C0E1FF5A
:100FF00005C0E2FF00C0E6FF8251000A1BE081C08D
:1010000000F0000E016E003600900136360E00240E
:10101000026E000E0120036E02C0E9FF03C0EAFF6A
:10102000040EEE18006E02C0E1FF03C0E2FF00C034
:10103000E6FF1AD081C000F0000E016E003600906D
:1010400001362B0E0024026E000E0120036E02C03A
:10105000E9FF03C0EAFF040EEE18006E02C0E1FFD4
:1010600003C0E2FF00C0E6FF04C000F005C001F0CD
:0210700012006C
:10107200200E305C03E36DB201D002D0006A4ED084
:101082004FC081F050C082F04CDF005246E17EC07A
:1010920081F0010E826F7BC083F07CC084F07DC042
:1010A20085F055DF00C04FF001C050F0556A566A16
:1010B200576A586A4FC081F050C082F032DF005246
:1010C20016E0200E305C03E36DB201D002D0006A5C
:1010D20025D0010E016E0150000A01E129DE5550B2
:1010E20056105710581002E0006A18D0E3D74FC0CC
:1010F2007FF050C080F0000E501802E1000E4F1831
:101102000AE0010E00017F25E96E000E8021EA6EE1
:0E111200EECF00F003D0006A01D0006A120098
:0A112000D08EA28AA08AF28E12007F
:10112A000001776B786B796B020E7425F66E000EF0
:10113A007521F76E000E7621F86E0900F5CF05F0DD
:10114A00030E7425F66E000E7521F76E000E7621D9
:10115A00F86E0900F5CF00F000C003F0000E046E2F
:10116A0003C001F0006A05500024066E000E01203B
:10117A00076E74C008F075C009F076C00AF0010E57
:10118A000824F66E000E0920F76E000E0A20F86E8B
:10119A000900F5CF01F00150020A1BE1060E0824EE
:1011AA00F66E000E0920F76E000E0A20F86E09008E
:1011BA00F5CF01F00150775D0CE2060E0824F66EB9
:1011CA00000E0920F76E000E0A20F86E0900F5CF0E
:1011DA0077F0010E0824F66E000E0920F76E000E55
:1011EA000A20F86E0900F5CF01F00150040A1BE14C
:1011FA00080E0824F66E000E0920F76E000E0A206B
:10120A00F86E0900F5CF01F00150775D0CE2080E87
:10121A000824F66E000E0920F76E000E0A20F86EFA
:10122A000900F5CF77F008C0F6FF09C0F7FF0AC03A
:10123A00F8FF0900F5CF00F000507825016E000E86
:10124A007921026E01C078F002C079F00750025C81
:10125A0002E10650015C01E30FD008C0F6FF09C0A5
:10126A00F7FF0AC0F8FF0900F5CF00F00050082682
:0E127A00000E09220A2283D777C000F012006E
:1012880000017A6B200E305C03E36DB201D002D00E
:10129800006A2DD032C081F033C082F03FDE0052A8
:1012A80025E132C078F033C079F0000E331802E13E
:1012B800000E32180AE0010E7825E96E000E792139
:1012C800EA6EEECF00F000C07AF077C081F0826B52
:1012D80074C083F075C084F076C085F035DE00C038
:1012E80032F001C033F07AC000F001D0006A120079
:1012F80074C07BF075C07CF076C07DF0010E0001F3
:061308007E6FB3DE12004F
:10130E00240E006E180E016E000E026E0E0E0024DC
:10131E00F66E000E0120F76E000E0220F86E090028
:10132E00F5CF03F003C004F00F0E0024F66E000E8E
:10133E000120F76E000E0220F86E0900F5CF01F0C5
:10134E000150035C12E2240E006E180E016E000EA8
:10135E00026E0F0E0024F66E000E0120F76E000EC8
:10136E000220F86E0900F5CF04F0240E006E180E60
:10137E00016E000E026E100E0024F66E000E01209D
:10138E00F76E000E0220F86E0900F5CF01F0015045
:10139E00045C12E2240E006E180E016E000E026E38
:1013AE00100E0024F66E000E0120F76E000E0220C5
:0E13BE00F86E0900F5CF04F004C000F0120034
:0813CC008D908D928D941200AA
:1013D40029C074F02AC075F0400E0001766F010E2A
:0613E400776F50DF1200DC
:1013EA003050000A0BE16D6A696A98EC05F093DEE9
:0E13FA006DB602D06D86FCD7010E306E12006B
:1014080082DF00C072F0DA0E0001746F170E756F7C
:10141800000E766F86DE00C073F07251005C03E246
:0C14280072C000F002D073C000F012008F
:1014340072C040F5400E0001746F050E756F010E09
:06144400766F58DF120074
:10144A000001706B716B6F51715D02E16E51705DDD
:10145A0039E2BBDF00522AE005010051310A0AE1F4
:10146A00B0DF010E00016C6F000E6D6F590E726FC6
:10147A00DCDF28D005010051320A0AE1A2DF020EA0
:10148A0000016C6F000E6D6F550E726FCEDF1AD0B1
:10149A0005010051330A0AE194DF030E00016C6F63
:1014AA00000E6D6F4B0E726FC0DF0CD0070E0C6E04
:1014BA007D0E0D6E0D2EFED70C2EFCD70001704B43
:0614CA00712BC1D71200D6
:1014D0009BDF00C031F0010E686F6EC029F06FC055
:1014E0002AF070C051F071C052F0C8EC05F0010E46
:0C14F000016E0150010A01E178DF1200DA
:1014FC003050010A07E16DBA05D0686A69806988C5
:10150C00020E306E68A406D069A404D0FB0E6816D7
:10151C00C0EC05F06DA203D092EC06F0DED068A012
:10152C0019D069A017D0C8EC05F0040E306E200E4F
:10153C000401026F040E036F080E016F000E0015FC
:10154C00006E00C000F48C0E0011006E00C000F4A0
:10155C00FE0E681668A806D069A804D094EC06F0B4
:10156C00EF0E681668AC04D069AC02D0BF0E6816DA
:10157C0068AA04D069AA02D09FEC05F068A202D038
:10158C0069B26A6A040E305C03E292EC06F0A5D0F4
:10159C0069A6A1D00001876B040E875DD8B09BD0E3
:1015AC0068A695D06CCF54F0F70E6816780E5414CC
:1015BC00016E0150000AD8A489D0FD0E5414016E9E
:1015CC00026AFF0E0216000E021802E1000E01184C
:1015DC006EE17E0E5414016E01C003F00332039EC3
:1015EC0003C000F0000E016E00360090013600368C
:1015FC0000900136000E0024026E040E0120036ED2
:10160C0002C034F003C035F002C05CF003C05DF0E2
:10161C00040E5C18006E00C05CF002C0E9FF03C051
:10162C00EAFFEECF00F000C001F03C0E01160132D3
:10163C00019E0132019E01500D0A36E1020E342446
:10164C00E96E000E3520EA6EEECF01F0EECF02F01F
:10165C000250040A02E1280E011823E10001020ED7
:10166C003424E16E000E3520E26E200EE66E040E80
:10167C00E66E866B080E865D14E2200EE16E040E9B
:10168C00E26E8651E126D8B0E22A280EE96E040EED
:10169C00EA6E8651E926D8B0EA2AEECFE6FF862B11
:1016AC00E9D77CEC06F002D058EC06F00ED0FD0E1B
:1016BC005414016E026AFF0E0216000E021802E1AB
:1016CC00040E011802E107EC06F000D001D003D0A3
:0C16DC000001872B61D792EC06F0120091
:1016E8000F0EC112070EB412816A8A6A9380938220
:1016F8009384846A8D6A9690969296946F886F8484
:10170800000E00016E6F050E6F6F400E706F050EB4
:10171800716FDADEA19AA08AF28CF28E030E0B6E3C
:101728008A0E0C6E550E0D6E0D2EFED70C2EFCD7A4
:101738000B2EFAD70000000045DE030E00016C6F87
:06174800000E6D6F12009F
:10174E00000E00016D1902E1010E6C1907E18D808A
:10175E00640E6E6F000E6F6F71DE33D0000E0001DF
:10176E006D1902E1020E6C190EE18D82E80E6E6F9C
:10177E00030E6F6F63DE8D92E80E00016E6F030E27
:10178E006F6F5CDE1ED0000E00016D1902E1030EBC
:10179E006C1917E18D808D94880E6E6F130E6F6F1E
:1017AE004DDE8D828D90B80E00016E6F0B0E6F6F39
:1017BE0045DE8D928D84E80E00016E6F030E6F6F05
:0417CE003DDE1200EA
:0817D2008ADFBCDFFED7FFD760
:1017DA000902290001010080320904000002030005
:1017EA0000000921010100012221000705810340AF
:0917FA0000010705010340000194
:101803000600FF0901A10119012940150026FF0067
:101813007508950181021901294075089501910206
:01182300C004
:101824001201000200000008D804010000010102B6
:021834000001B1
:0E1836000E03740069006500730065006E000B
:0A1844000A03790075006B006900CB
:04184E000403090482
:020000040030CA
:0E000000240C1F1EFF8381FF0FC00FE00F4076
:00000001FF
