:1000000010EF03F00000000000EF00F0000000001F
:0A0010000000000000000000F3D71C
:0E001C00ACB202D00000FCD75AC0ADFF1200FB
:0A002A00000EACB2010E006E1200D1
:100034000B6A0A6A096A00500402F4CF09F0F3CF8C
:1000440008F001500502F4CF0BF0F3CF0AF0005092
:100054000502F3500926F4500A22E86A0B220150E3
:100064000402F3500926F4500A22E86A0B2208C05D
:1000740000F009C001F00AC002F00BC003F0120046
:0A008400000E9EBA010E006E12007D
:10008E00AECF01F0ABA202D0AB98AB8801C000F0AE
:02009E0012004E
:1000A000C4DF005201E117D0230E5824E96E000E80
:1000B0005920EA6EEECF5AF0B1DF030E0B6E8A0EB6
:1000C0000C6E550E0D6E0D2EFED70C2EFCD70B2E82
:0800D000FAD700000000120045
:1000D800040E0C6E3A0E0D6E0D2EFED70C2EFCD7AC
:0400E8000000120002
:1000EC00536A4FC001F0010E006E015004E000365F
:1000FC000090FF0FFBD700C052F04DC0E9FF4EC07F
:10010C00EAFF0050EE14016E0152010ED8A4000E4D
:10011C00006E5150001A18E05050000804E2D6DF6F
:10012C00D5DF5006F9D74DC0E9FF4EC0EAFF52505B
:10013C00EE14016E0152010ED8A4000E006E515047
:0E014C00001A02E0FF0E536E53C000F01200C6
:10015A004D6A4E6A800E4E18006E800E005C02E1F7
:10016A00060E4D5C21E289DF005201E1FCD74F0EF9
:10017A004D24566E000E4E20576E84DF56C0E1FFA6
:10018A0057C0E2FF00C0E6FF4F0E4D24E96E000E95
:10019A004E20EA6EEE50530A04E1FF0E4D6EFF0E3A
:1001AA004E6E4D4A4E2AD6D7556A4D6A4E6A800E11
:1001BA004E18006E800E005C02E1060E4D5C17E2DE
:1001CA004F0E4D24E96E000E4E20EA6E300EEE5CA4
:1001DA000AE34F0E4D24E96E000E4E20EA6EEE50F1
:1001EA00390801E301D04DD04D4A4E2AE0D7300EEE
:1001FA004F5C006E016A000E015A0A0E046E000E70
:10020A00056E13DF300E505C026E036A000E035A4D
:10021A00025000241B6E035001201C6E300E515CEC
:10022A00006E016A000E015A0A0E046E000E056E77
:10023A00FCDE300E525C026E036A000E035A025054
:10024A0000241D6E035001201E6E300E535C006E9A
:10025A00016A000E015A0A0E046E000E056EE5DEF2
:10026A00300E545C026E036A000E035A02500024D8
:10027A001F6E03500120206E0A0E586E000E596E32
:04028A000ADF120075
:10028E001C0E3F6E000E406E5A0E416E000E426EF8
:10029E008E0E3B6E000E3C6E000E3D6E000E3E6EE0
:1002AE00840E336E000E346E000E356E000E366EFA
:1002BE002A0E376E000E386E000E396E000E3A6E34
:1002CE00AC8A900EAB6E948E949C9EAA03D0AECF49
:0602DE0000F0FBD7120046
:0E02E400CFDE005202E1006A01D0CFDE120030
:1002F200816A4DC019F04EC01AF0010E4D5C586E65
:0A030200000E4E58596ECBDE1200BB
:10030C00B886020EB06E080EAF6EAC84BADF030E68
:10031C000B6E8A0E0C6E550E0D6E0D2EFED70C2E1E
:0C032C00FCD70B2EFAD7000000001200D6
:10033800496A4A6A44C000F045C001F00A0E046EDA
:10034800000E056E73DE800E4A18026E800E0118CC
:10035800025C02E10050495CD8B0CDD0BFDF00C0DC
:1003680048F000502E180EE117500108176E18506B
:10037800000E1856030E1724586E000E1820596EDA
:100388008BDE73D048502F180BE1156A166A000EE1
:100398001A1802E1030E191802E1816AACD065D07F
:1003A800485030180DE1010E156E000E166E000E45
:1003B8001A1802E1030E191802E1816A9CD055D07F
:1003C800485031181DE1010E195C586E000E1A587C
:1003D800596E62DE030E0B6E8A0E0C6E550E0D6E94
:1003E8000D2EFED70C2EFCD70B2EFAD700000000DE
:1003F800030E1724586E000E1820596E4DDE35D0A6
:10040800485032180AE1A5DE000E1A1802E1030E60
:10041800191802E1816A6FD028D0000E181802E17D
:10042800010E171822E1300E485C016E026A000EB8
:10043800025A01C046F002C047F0800E0218006E52
:10044800800E005C02E1010E015C0FE3800E006E7D
:10045800800E4718005C02E14650030806E346C0D8
:100468004DF047C04EF041DF46D04B6A4C6A800ED3
:100478004C18006E800E005C02E1030E4B5C2AE211
:10048800810E4D6E0F0E4E6E4BC04FF00A0E506E21
:10049800516A28DE00521BE0000E181802E1000E17
:1004A800171815E1810E4D6E0F0E4E6E4BC04FF0B2
:1004B8000A0E506E516A16DE005201E0F3D7010EA3
:1004C8004B244D6E000E4C204E6E0FDF14D04B4A5D
:1004D8004C2ACDD7030E0B6E8A0E0C6E550E0D6E80
:1004E8000D2EFED70C2EFCD70B2EFAD700000000DD
:0804F800494A4A2A1FD71200ED
:100500000900F5CFE6FF0006FBE10106F9E1120064
:100510000F0EC112070EB412070E936E816AF6DE3B
:020520001200C7
:10052200000E1A1802E1010E19180DE1080E816E73
:10053200050E586E000E596EB2DD1BC044F01CC091
:1005420045F0F9DE6BD0000E1A1802E1020E1918FE
:100552000BE0000E1A1802E1030E191804E11550FF
:10056200161001E001D01CD08178380E8114016E82
:10057200000E000A02E1100E011803E1060E436E9E
:1005820002D0070E436E43C058F0000E43BEFF0E6A
:10059200596E85DD21C044F022C045F0CCDE3ED04C
:1005A200000E1A1802E1030E191838E1380E8114F0
:1005B200016E000E000A02E1080E01180DE1100E94
:1005C200816E070E586E000E596E69DD1DC044F033
:1005D2001EC045F0B0DE22D0380E8114016E000E2E
:1005E200000A02E1100E01180DE1200E816E080EC4
:1005F200586E000E596E53DD1FC044F020C045F006
:100602009ADE0CD0080E816E050E586E000E596EE1
:0E06120046DD1BC044F01CC045F08DDE12001A
:0C06200028EC03F075DF7DDFFED7FFD76C
:1006500010EE15F01E0E006E010E016E2C0EF66EE1
:0E066000060EF76E000EF86E80EC02F012002F
:02062C000000CC
:02062E000000CA
:020630000300C5
:08063200050003000A000100AD
:0B063A003132334D41524F59474553B8
:0506450054444E49532E
:06064A0008001000200072
:020000040030CA
:0E000000240C1F1EFF8381FF0FC00FE00F4076
:00000001FF
