:10000000CFEF03F00000000000EF00F00000000060
:0A0010000000000000000000F3D71C
:10001C000134083609360450085E0550D8A0053C5A
:10002C00095E003601360F0E0C6E013408360936A7
:10003C00045000A006D0085E0550D8A0053C095E0F
:10004C0005D008260550D8B0053C092600360136E7
:10005C000C2EEBD700B006D0045008260550D8B0B3
:08006C00053C0926000012000A
:0E007400ACB202D00000FCD75BC0ADFF1200A2
:0A008200000EACB2010E006E120079
:0A008C00000E9EBA010E006E120075
:10009600AECF01F0ABA202D0AB98AB8801C000F0A6
:0200A600120046
:1000A8000450000A08E10550000A05E1FF0E006E41
:1000B8007F0E016E57D00D6A096A086A0150001058
:1000C800D8B4000C015005180A6E0ABE0D1E0B6A42
:1000D80005AE05D0041E051E042AD8B4052A01AEB3
:1000E80005D0001E011E002AD8B4012A01500510AF
:1000F8000A6E0ABE10D08EDF0BB020D00DAE000CF9
:10010800001E011E002AD8B4012A081E091E082A4A
:10011800D8B4092A000C05AE0DD001BE07D0015095
:10012800096E0050086E016A006AE8D7016A006A21
:10013800002A000C011E001E0B2ADDD7082AD8B49D
:10014800092A0450085CD8A4D9D70550095CD8A45A
:10015800D5D7096A086A002AD8B4012A01AECED7D1
:060168000000FF0C120074
:10016E0089DF005201E111D05AC05BF07CDF030E33
:10017E000B6E8A0E0C6E550E0D6E0D2EFED70C2EBE
:0C018E00FCD70B2EFAD700000000120076
:10019A00040E0C6E3A0E0D6E0D2EFED70C2EFCD7E9
:0401AA00000012003F
:1001AE000B6A0A6A096A00500402F4CF09F0F3CF11
:1001BE0008F001500502F4CF0BF0F3CF0AF0005017
:1001CE000502F3500926F4500A22E86A0B22015068
:1001DE000402F3500926F4500A22E86A0B2208C0E2
:1001EE0000F009C001F00AC002F00BC003F01200CB
:1001FE004F6A506A800E5018006E800E005C02E14D
:10020E00060E4F5C21E23BDF005201E1FCD7510E9E
:10021E004F24586E000E5020596E36DF58C0E1FF45
:10022E0059C0E2FF00C0E6FF510E4F24E96E000EEA
:10023E005020EA6EEE50530A04E1FF0E4F6EFF0E91
:10024E00506E4F4A502AD6D7576A4F6A506A800E60
:10025E005018006E800E005C02E1060E4F5C57E2F5
:10026E00020E046E000E056E4FC000F050C001F07D
:10027E0014DF08C000F009C001F0000E011802E101
:10028E00000E001817E1510E4F24E96E000E50209B
:10029E00EA6E300EEE5C0AE3510E4F24E96E000E4C
:1002AE005020EA6EEE50350801E304D022C05AF019
:1002BE0057DF75D0020E046E000E056E4FC000F0B3
:1002CE0050C001F0EADE08C000F009C001F0000ED7
:1002DE00011802E1010E001817E1510E4F24E96ECC
:1002EE00000E5020EA6E300EEE5C0AE3510E4F24E3
:1002FE00E96E000E5020EA6EEE50390801E304D08C
:10030E0022C05AF02DDF4BD04F4A502AA0D7300EC4
:10031E00515C006E016A000E015A0A0E046E000E48
:10032E00056E3EDF300E525C026E036A000E035AFB
:10033E00025000242D6E035001202E6E300E535CA1
:10034E00006E016A000E015A0A0E046E000E056E52
:10035E0027DF300E545C026E036A000E035A025001
:10036E0000242F6E03500120306E300E555C006E4F
:10037E00016A000E015A0A0E046E000E056E10DFA1
:10038E00300E565C026E036A000E035A02500024B1
:10039E00316E03500120326E23C05AF0E1DE12009E
:0E03AE006EDE005202E1006A01D06EDE120027
:1003BC00740E416E000E426E5B0E436E000E446E68
:1003CC00960E3D6E000E3E6E000E3F6E000E406EA1
:1003DC008C0E356E000E366E000E376E000E386EBB
:1003EC00820E396E000E3A6E000E3B6E000E3C6EA5
:1003FC00AC8A900EAB6E948E949C9EAA03D0AECF1A
:06040C0000F0FBD7120016
:10041200556A51C001F0010E006E015004E0003631
:100422000090FF0FFBD700C054F04FC0E9FF50C04F
:10043200EAFF0050EE14016E0152010ED8A4000E24
:10044200006E5350001A18E05250000804E2A4DE75
:10045200A3DE5206F9D74FC0E9FF50C0EAFF54505D
:10046200EE14016E0152010ED8A4000E006E53501C
:0E047200001A02E0FF0E556E55C000F0120099
:100480004FC017F050C018F0010E4F5C006E000E08
:100490005058016E190E0024E96E000E0120EA6E1C
:1004A000EECF5AF064DE816A030E0B6E8A0E0C6E7C
:1004B000550E0D6E0D2EFED70C2EFCD70B2EFAD737
:0604C00000000000120024
:1004C600B886020EB06E080EAF6EAC8474DF030EF3
:1004D6000B6E8A0E0C6E550E0D6E0D2EFED70C2E63
:0C04E600FCD70B2EFAD70000000012001B
:1004F2004B6A4C6A46C000F047C001F00A0E046E17
:10050200000E056E53DE800E4C18026E800E01182E
:10051200025C02E100504B5CD8B0B5D047DF00C0AE
:100522004AF00050241816E12B5001082B6E2C5073
:10053200000E2C56030E2B24006E000E2C20016E92
:10054200190E0024E96E000E0120EA6EEECF5AF079
:100552000DDE53D04A5025180BE1156A166A000EBB
:10056200181802E1030E171802E1816A8CD045D0F7
:100572004A5026180DE1010E156E000E166E000E81
:10058200181802E1030E171802E1816A7CD035D0F7
:100592004A5027180AE132DE000E181802E1030E53
:1005A200171802E1816A6FD028D0000E2C1802E1E0
:1005B200010E2B1822E1300E4A5C016E026A000E17
:1005C200025A01C048F002C049F0800E0218006EC3
:1005D200800E005C02E1010E015C0FE3800E006EF2
:1005E200800E4918005C02E14850030806E348C047
:1005F2004FF049C050F043DF46D04D6A4E6A800E3C
:100602004E18006E800E005C02E1030E4D5C2AE281
:10061200810E4F6E0F0E506E4DC051F00A0E526E8B
:10062200536AF6DE00521BE0000E2C1802E1000EA7
:100632002B1815E1810E4F6E0F0E506E4DC051F00A
:100642000A0E526E536AE4DE005201E0F3D7010E45
:100652004D244F6E000E4E20506E11DF14D04D4AC5
:100662004E2ACDD7030E0B6E8A0E0C6E550E0D6EF2
:100672000D2EFED70C2EFCD70B2EFAD70000000051
:080682004B4A4C2A37D7120045
:10068A000900F5CFE6FF0006FBE10106F9E11200D9
:10069A000F0EC112070EB412070E936E816A0EDF97
:0206AA0012003C
:1006AC00000E181802E1010E17180BE1200E816ED6
:1006BC001EC05AF056DD2DC046F02EC047F013DF99
:1006CC0067D0000E181802E1020E17180BE0000E8E
:1006DC00181802E1030E171804E11550161001E06A
:1006EC0001D01BD0817C81AC03D0070E456E02D0AB
:1006FC00060E456E190EE96E000EEA6E4550E9269F
:10070C00000E45BEFF0EEA22EECF5AF02ADD33C0B2
:10071C0046F034C047F0E7DE3BD0000E181802E17B
:10072C00030E171835E11550161032E1E00E811446
:10073C00016E000E000A02E1200E01180BE1400EC2
:10074C00816E20C05AF00DDD2FC046F030C047F04E
:10075C00CADE1ED0E00E8114016E000E000A02E10A
:10076C00400E01180BE1800E816E21C05AF0F9DCAD
:10077C0031C046F032C047F0B6DE0AD0200E816E92
:10078C001EC05AF0EEDC2DC046F02EC047F0ABDE9A
:02079C00120049
:0C079E00E8EC03F07BDF83DFFED7FFD721
:1007D00010EE15F0200E006E010E016EAA0EF66EE0
:0E07E000070EF76E000EF86E45EC03F01200E7
:0207AA0000004D
:0207AC00030048
:0B07AE003132334D41524F5947455343
:0707B90054444E5300000000
:0207C000000037
:0807C200050003000A0001001C
:0607CA0020004000800049
:020000040030CA
:0E000000240C1F1EFF8381FF0FC00FE00F4076
:00000001FF
