:040000000EEF0EF001
:1000080000C01EF001C01DF002C01CF003C01BF0B0
:1000180004C01AF005C019F008C018F009C017F09C
:100028000AC016F00BC015F0E1CF27F0E2CF28F098
:10003800E9CF25F0EACF26F0F3CF23F0F4CF24F070
:10004800F5CF22F0F8CF1FF0F7CF20F0F6CF21F050
:10005800A1AA03D0A19AA3EC0BF022C0F5FF1FC000
:10006800F8FF20C0F7FF21C0F6FF23C0F3FF24C02C
:10007800F4FF1EC000F01DC001F01CC002F01BC040
:1000880003F01AC004F019C005F018C008F017C032
:1000980009F016C00AF015C00BF025C0E9FF26C00C
:0C00A800EAFF27C0E1FF28C0E2FF1100C2
:1000B4001E0E716E100E506E040E516E50C0E1FF94
:1000C40051C0E2FFE69E50C0E1FF51C0E2FFE69C52
:1000D400040E5024E16E000E5120E26EE68C180EE0
:1000E4004C6E040E4D6E4CC0E1FF4DC0E2FFE69E27
:1000F4004CC0E1FF4DC0E2FFE69C040E4C24E16ECF
:10010400000E4D20E26EE68C020E5024E16E000ECD
:100114005120E26E48C0E6FF49C0E6FF010E5024BC
:10012400E16E000E5120E26E400EE66E50C0E9FF13
:1001340051C0EAFFEECF00F050C0E1FF51C0E2FF32
:10014400400E0014E66E50C0E9FF51C0EAFFEECF46
:1001540000F0880E001250C0E1FF51C0E2FF00C061
:10016400E6FF50C052F051C053F0040E5018006E18
:0601740000C050F0120073
:10017A000B6A0A6A096A00500402F4CF09F0F3CF45
:10018A0008F001500502F4CF0BF0F3CF0AF000504B
:10019A000502F3500926F4500A22E86A0B2201509C
:1001AA000402F3500926F4500A22E86A0B2208C016
:1001BA0000F009C001F00AC002F00BC003F01200FF
:1001CA0020C401F01F0E01160150010A01E094D06B
:1001DA0004012451000A01E08FD02151060A42E1AC
:1001EA0037D000016A51010A17E1560E006E1D0E42
:1001FA00016E000E026E120E0026000E012202226D
:10020A0000C063F001C064F002C065F0090E676FB8
:10021A00000E686FC00E666F25D000016A51010A90
:10022A0012E17F0E006E1D0E016E000E026E00C0FE
:10023A0063F001C064F002C065F0210E676F000E22
:10024A00686FC00E666F0ED00001800E666F0AD00E
:10025A0004012351210AC5E02351220ADEE0235179
:10026A00230AF2E020C401F0600E0116050E006EAA
:10027A00005004E00132019EFF0FFBD70150010A32
:10028A0001E03AD026D038D037D0870E0001636F0C
:10029A00000E646F010E676F000E686FC10E666F05
:1002AA002BD00001800E666F23C487F025D0000191
:1002BA006F0E636F000E646F010E676F000E686F3A
:1002CA00810E666F19D00001800E666F22C46FF02E
:1002DA0013D004012151010AD6E02151090AD4E0C0
:1002EA002151020AD2E021510A0ADBE02151030A14
:0A02FA00DEE021510B0AE7E01200DC
:1003040004012251010A11E120C401F01F0E01165B
:100314000150000A0AE10001668F04012151030A19
:1003240003E1010E566E01D0566A2251000AD8A488
:100334008DD020C401F01F0E01160150020AD8A46A
:1003440085D024C401F00F0E01160150000AD8B460
:100354007DD00001668F040124BF16D024C403F0AD
:100364000F0E031603C000F0000E016E003600905D
:1003740001364E0E0024E96E000E0120EA6EEECF27
:1003840004F0EECF05F015D024C403F00F0E0316CD
:1003940003C000F0000E016E0036009001364A0ED4
:1003A4000024E96E000E0120EA6EEECF04F0EECFD9
:1003B40005F02151030A07E104C0E1FF05C0E2FF93
:1003C400840EE66E43D024C400F00F0E0016700EA7
:1003D400026E0F0E036E00500226D8B0032A02C02C
:1003E400E9FF03C0EAFFFE0EEE14006EEECF01F04B
:1003F400FF0E011602C0E1FF03C0E2FF00C0E6FFEA
:1004040001C0E6FF24AF11D004C0E1FF05C0E2FF44
:10041400E66A040E0418006E00C004F004C0E1FF94
:1004240005C0E2FF400EE66E11D004C0E1FF05C036
:10043400E2FF880EE66E040E0418006E00C004F09D
:0E04440004C0E1FF05C0E2FFC80EE66E120024
:10045200000E0001685D02E1080E675D10E267C0F0
:1004620003F068C004F05550000A03E1010E556E16
:1004720005D05550010A02E1020E556E04D0080E55
:10048200036E000E046E4AC0E1FF4BC0E2FFE6922B
:100492004AC0E1FF4BC0E2FFE6904AC0E9FF4BC011
:1004A200EAFFEECF00F04AC0E1FF4BC0E2FF04508A
:1004B2000010E66E010E4A24E16E000E4B20E26E41
:1004C20003C0E6FF0350675D006E04506859016E79
:1004D20000C067F001C068F0280E826F040E836FBF
:1004E20066B12FD0035004102BE063C0F6FF64C046
:1004F200F7FF65C0F8FF0900F5CF00F082C0E1FF09
:1005020083C0E2FF00C0E6FF824B832B010E63250E
:10051200006E000E6421016E000E6521026E00C0A5
:1005220063F001C064F002C065F0010E035C006E6E
:10053200000E0458016E00C003F001C004F0D2D7CF
:1005420024D00350041021E063C0E9FF64C0EAFF35
:1005520082C0E1FF83C0E2FFEECFE6FF824B832B36
:10056200010E6325006E000E6421016E00C063F06F
:1005720001C064F0010E035C006E000E0458016EAF
:0C05820000C003F001C004F0DCD7120040
:10058E000401286B296B48D00001668F0401288175
:10059E005650010AD8B4288354D00001668F51D02A
:1005AE000001668F040124BF16D024C403F00F0E81
:1005BE00031603C000F0000E016E003600900136E7
:1005CE004E0E0024E96E000E0120EA6EEECF04F00E
:1005DE00EECF05F015D024C403F00F0E031603C0A2
:1005EE0000F0000E016E0036009001364A0E002417
:1005FE00E96E000E0120EA6EEECF04F0EECF05F0AC
:10060E0004C0E9FF05C0EAFFEECF01F001A403D05C
:10061E000401010E286F15D020C401F01F0E011623
:10062E000150000AB1E020C401F01F0E0116015066
:10063E00010AB3E020C401F01F0E01160150020A98
:10064E00AFE0000166AF07D0280E636F040E646F33
:08065E006681020E676F1200B5
:100666000001668F716A6B6B22C46AF06A51000AD8
:1006760003E1100E696F03D0200E696F18DD1200BA
:1006860004012051800AD8A478D0C00E0001666FFC
:1006960069D00001BF0E006E1D0E016E000E026EC7
:1006A60000C063F001C064F002C065F0120E676F0F
:1006B600000E686F62D00001030E006E000E016E20
:1006C60022C404F0000E056E55DD600E0024E96EAE
:1006D600000E0120EA6EEECF63F0EECF64F0EECFAF
:1006E60065F0020E6325F66E000E6421F76E000EAD
:1006F6006521F86E0900F5CF00F00900F5CF01F08D
:1007060000C067F001C068F038D004012251000132
:10071600845D23E3030E006E000E016E22C404F016
:10072600000E056E27DD570E0024E96E000E01202F
:10073600EA6EEECF63F0EECF64F0EECF65F063C005
:10074600F6FF64C0F7FF65C0F8FF0900F5CF00F0BB
:1007560000C067F0000E686F01D0666B0ED0000116
:10076600666B0BD004012351010A93E02351020A60
:0C077600A2E02351030AC9E0F2D71200F0
:10078200010E00018825E96E000E8921EA6EEECF86
:1007920000F000C002F0000E7D5D02E102507C5DBF
:1007A20003E27CC002F00AD002507C5D006E000EB3
:1007B2007D59016E00C07CF001C07DF0036A0250D9
:1007C200035C1CE2280EE96E040EEA6E0350E92671
:1007D200D8B0EA2AEECF00F079C0E1FF7AC0E2FF9A
:1007E20000C0E6FF010E7925006E000E7A21016E2F
:1007F20000C079F001C07AF0032AE1D7000E006E42
:100802007D51005C02E17C51000828E2010E852541
:10081200E16E000E8621E26E080EE66E020E85255E
:10082200E16E000E8621E26E280EE66E040EE66E82
:1008320088C0E9FF89C0EAFFEECF00F000BC07D014
:1008420085C0E1FF86C0E2FFC80EE66E06D085C015
:10085200E1FF86C0E2FF880EE66E19D0010E852503
:10086200E16E000E8621E26E080EE66E020E85250E
:10087200E16E000E8621E26E200EE66E040EE66E3A
:1008820085C0E1FF86C0E2FF840EE66E7B9F120008
:100892006D98000166BF49D07BAF28D0020E546E1E
:1008A200010E4A24E16E000E4B20E26EE66A4AC057
:1008B200E1FF4BC0E2FFC80EE66E010E8525E16E38
:1008C200000E8621E26E080EE66E020E8525E16EAE
:1008D200000E8621E26E280EE66E040EE66E85C0DC
:1008E200E1FF86C0E2FFC80EE66E1ED0010E85252E
:1008F200E16E000E8621E26E080EE66E020E85257E
:10090200E16E000E8621E26E200EE66E040EE66EA9
:1009120085C0E1FF86C0E2FF8C0EE66E4AC0E1FFB1
:100922004BC0E2FF840EE66E82D07BBF80D0040112
:1009320020AF55D0000168510401275D04E1000198
:1009420067510401265D04E226C467F027C468F0FB
:100952007FDD010E546E010E8525E16E000E8621AB
:10096200E26E080EE66E020E8525E16E000E86210D
:10097200E26E200EE66E040EE66E85C0E1FF86C0D2
:10098200E2FF800EE66E8A6B010E8825E16E000E94
:100992008921E26E080EE66E020E8825E16E000ED7
:1009A2008921E26E200EE66E040EE66E88C0E1FF3B
:1009B20089C0E2FF840EE66E010E8A6F020E4A249F
:1009C200E16E000E4B20E26E280EE66E040EE66E1D
:1009D2004AC0E1FF4BC0E2FFC80EE66E28D000011C
:1009E200020E546E010E4A24E16E000E4B20E26E9E
:1009F200E66A4AC0E1FF4BC0E2FFC80EE66E010E96
:100A02008525E16E000E8621E26E080EE66E020E6C
:100A12008525E16E000E8621E26E280EE66E040E3A
:100A2200E66E85C0E1FF86C0E2FFC80EE66E1200E8
:100A3200546A4AC0E1FF4BC0E2FFE66A040E4A185C
:100A4200E16E4BC0E2FF000EE21AE66A00017BAFE4
:060A520001D07B9F1200A1
:100A580020C401F0600E0116050E006E005004E07F
:100A68000132019EFF0FFBD70150000A01E05DD063
:100A780039D00001668F080E696F57D000DE55D057
:100A8800EEDD53D000016A0E636F000E646F66815D
:100A9800010E676F668F49D076DD47D02FDC45D0D1
:100AA8006B0E006E000E016E24510026D8B0012A8C
:100AB80000C063F001C064F000016681010E676F39
:100AC800668F33D00001668F6B0EE16E000EE26E0A
:100AD80004012451E126D8B0E22A22C4E6FF25D039
:100AE80024D023D004012151050AC3E02151060A6C
:100AF800C5E02151090AC4E02151080AC3E0215187
:100B0800000ACAE02151010AC9E02151030AC6E0DE
:100B180021510A0AC5E021510B0AD4E02151070AE4
:0C0B2800DFE021510C0ADDE0DCD71200F8
:100B3400560E0001606F1D0E616F000E626FE90EAC
:100B4400576E1D0E586E000E596ED10E5A6E1D0E44
:100B54005B6E000E5C6EDF0E5D6E1D0E5E6E000E33
:040B64005F6E1200AE
:0E0B6800160E6F6E9F0E6B6E3B0E696E1200C6
:0C0B760000016E5302E0E5EC00F01200FC
:0A0B82006984EF0E68166D82120000
:100B8C00040E4A18006E00C04AF000016951080AB0
:100B9C000AE122C46EFF6E50000803E2100E696F6A
:100BAC0002D0040E696F5450010A3AE1020E4A2435
:100BBC00E16E000E4B20E26E280EE66E040EE66E21
:100BCC0042DC5550020A07E14AC0E1FF4BC0E2FF8C
:100BDC00840EE66E24D0040E4A18006E00C04AF053
:100BEC004AC0E9FF4BC0EAFFEECF00F000BC0CD0CE
:100BFC00040E4A18006E00C04AF04AC0E1FF4BC018
:100C0C00E2FFC80EE66E0BD0040E4A18006E00C050
:100C1C004AF04AC0E1FF4BC0E2FF880EE66E01D0FD
:040C2C0002DF1200D1
:100C30006D92699468A403D0FB0E6816FBD712006E
:100C40005450020A02E19DDD1ED0F3DE8A51000AF3
:100C500019E1010E8525E16E000E8621E26E080E77
:100C6000E66E020E8525E16E000E8621E26E200EF4
:100C7000E66E040EE66E85C0E1FF86C0E2FF8C0ED4
:080C8000E66E01D08A6B120040
:100C880070A01CD088C0E9FF89C0EAFFEECF01F050
:100C98000150800A12E14AC0E9FF4BC0EAFFEECFDB
:100CA80001F0000E000A02E1840E011806E188C076
:100CB800E1FF89C0E2FF8C0EE66E7090DF0E6816C9
:020CC800120018
:100CCA004AC0E9FF4BC0EAFFEECF00F000AE05D004
:100CDA004AC0E1FF4BC0E2FFE66A556A546A000166
:0E0CEA00676B686B666BB3DE41DFCEDD120018
:040CF800A19A1200AB
:100CFC001BDF526A536A706B716B6A6A686A2EDF0B
:100D0C006D8C6E6A716A6D9C776B786B000E785D7A
:100D1C0002E1080E775D17E277C000F078C001F0B1
:100D2C00003600900136003600900136000E00248B
:100D3C00E16E040E0120E26EE66AE66AE66AE66A95
:100D4C00774B782BE3D7160E706E68A603D0F70E90
:100D5C006816FBD7666B7B6B7C6B7D6B6D98080E96
:0C0D6C004A6E040E4B6E6A6B696B12003D
:100D780000016951000A0AE16D6A696AF1DE6DB61F
:100D880002D06D86FCD70001010E696F6951010A16
:100D980008E16DBA06D0686A696A69806988020ED6
:100DA800696F68A405D069A403D0FB0E68163CDF00
:100DB8006DA202D09DDFD4D068A018D069A016D04B
:100DC80099DF040E696F200E0401026F040E036F91
:100DD800080E016F000E0015006E00C000F48C0EA6
:100DE8000011006E00C000F4FE0E681668A805D059
:100DF80069A803D0C2DEEF0E681668AC04D069ACEF
:100E080002D0BF0E681668AA03D069AA01D038DFDD
:100E180068A202D069B26A6A040E0001695D02E242
:100E280067DF9ED069A69BD0AE6B040EAE5DD8B0CE
:100E380096D068A691D06CCF72F0F70E6816780E2F
:100E48007215016E0150000AD8A485D0FD0E7215E6
:100E5800016E026AFF0E0216000E021802E1000E71
:100E680001186BE17E0E7215016E01C003F00332AA
:100E7800039E03C000F0000E016E0036009001369C
:100E8800003600900136000E0024026E040E012088
:100E9800036E02C088F003C089F002C085F003C069
:100EA80086F0040E8519006E00C085F002C0E9FFC7
:100EB80003C0EAFFEECF00F000C001F03C0E0116BF
:100EC8000132019E0132019E01500D0A34E1020EE9
:100ED8008825E96E000E8921EA6EEECF01F0EECF8B
:100EE80002F00250040A02E1280E011822E1020E63
:100EF8008825E16E000E8921E26E200EE66E040E52
:100F0800E66EAD6B080EAD5D14E2200EE16E040EC8
:100F1800E26EAD51E126D8B0E22A280EE96E040E41
:100F2800EA6EAD51E926D8B0EA2AEECFE6FFAD2B3E
:100F3800E9D7C7DE01D080DE0DD0FD0E7215016E37
:100F4800026AFF0E0216000E021802E1040E0118D2
:100F580001E118DE00D001D002D0AE2B66D7C8DE82
:020F6800120075
:100F6A000001AE51000A12E0ADC000F0000E016EA1
:100F7A000036009001364A0E0024E96E000E012068
:100F8A00EA6EEECF04F0EECF05F011D0ADC000F05E
:100F9A00000E016E0036009001364E0E0024E96EF6
:100FAA00000E0120EA6EEECF04F0EECF05F0020E3D
:100FBA000424E16E000E0520E26EAFC0E6FFB0C069
:100FCA00E6FF010E0424E16E000E0520E26EB1C0B8
:100FDA00E6FF04C0E9FF05C0EAFFEECF00F004C057
:100FEA00E1FF05C0E2FF400E0014E66E04C0E9FF0F
:100FFA0005C0EAFFEECF00F0880E001204C0E1FF40
:10100A0005C0E2FF00C0E6FFAE51000A1BE0ADC01A
:10101A0000F0000E016E0036009001364A0E0024E0
:10102A00026E000E0120036E02C0E9FF03C0EAFF50
:10103A00040EEE18006E02C0E1FF03C0E2FF00C01A
:10104A00E6FF1AD0ADC000F0000E016E0036009027
:10105A0001364E0E0024026E000E0120036E02C0FD
:10106A00E9FF03C0EAFF040EEE18006E02C0E1FFBA
:10107A0003C0E2FF00C0E6FF04C000F005C001F0B3
:02108A00120052
:10108C00000E0001AE1902E1000EAD1902E1016A79
:10109C000AD0ADC0E9FFAEC0EAFFEECF00F0000E03
:0C10AC0000BE010E016E01C000F0120039
:1010B800200E0001695D03E36DB201D002D0006A21
:1010C8004ED070C0ADF071C0AEF0DCDF005246E12A
:1010D800AAC0ADF0010EAE6FA7C0AFF0A8C0B0F0C7
:1010E800A9C0B1F03EDF00C070F001C071F0736BB1
:1010F800746B756B766B70C0ADF071C0AEF0C2DF0B
:10110800005217E0200E695D03E36DB201D002D0F2
:10111800006A25D0010E016E0150000A01E128DEA7
:101128000001735174117511761102E0006A17D02D
:10113800E2D770C0ABF071C0ACF0000E711902E1DB
:10114800000E701909E0010EAB25E96E000EAC2106
:10115800EA6EEECF00F003D0006A01D0006A1200F8
:101168000001A66B200E695D03E36DB201D002D0C9
:10117800006A2DD052C0ADF053C0AEF083DF0052EC
:1011880025E152C0A4F053C0A5F0000E531802E1A7
:10119800000E52180AE0010EA425E96E000EA521E2
:1011A800EA6EEECF00F000C0A6F0A3C0ADF0AE6BC3
:1011B800A0C0AFF0A1C0B0F0A2C0B1F0D2DE00C0B4
:1011C80052F001C053F0A6C000F001D0006A12002E
:1011D8000001A36BA46BA56B020EA025F66E000E92
:1011E800A121F76E000EA221F86E0900F5CF05F0D7
:1011F800030EA025F66E000EA121F76E000EA221A7
:10120800F86E0900F5CF00F000C003F0000E046E80
:1012180003C001F0006A05500024066E000E01208C
:10122800076EA0C008F0A1C009F0A2C00AF0010E24
:101238000824F66E000E0920F76E000E0A20F86EDC
:101248000900F5CF01F00150020A1BE1060E08243F
:10125800F66E000E0920F76E000E0A20F86E0900DF
:10126800F5CF01F00150A35D0CE2060E0824F66EDE
:10127800000E0920F76E000E0A20F86E0900F5CF5F
:10128800A3F0010E0824F66E000E0920F76E000E7A
:101298000A20F86E0900F5CF01F00150040A1BE19D
:1012A800080E0824F66E000E0920F76E000E0A20BC
:1012B800F86E0900F5CF01F00150A35D0CE2080EAD
:1012C8000824F66E000E0920F76E000E0A20F86E4C
:1012D8000900F5CFA3F008C0F6FF09C0F7FF0AC060
:1012E800F8FF0900F5CF00F00050A425016E000EAC
:1012F800A521026E01C0A4F002C0A5F00750025C4F
:1013080002E10650015C01E30FD008C0F6FF09C0F6
:10131800F7FF0AC0F8FF0900F5CF00F000500826D3
:0E132800000E09220A2283D7A3C000F0120093
:10133600BF0E006E1D0E016E000E026E0E0E002414
:10134600F66E000E0120F76E000E0220F86E090000
:10135600F5CF03F003C004F00F0E0024F66E000E66
:101366000120F76E000E0220F86E0900F5CF01F09D
:101376000150035C12E2BF0E006E1D0E016E000EE0
:10138600026E0F0E0024F66E000E0120F76E000EA0
:101396000220F86E0900F5CF04F0BF0E006E1D0E98
:1013A600016E000E026E100E0024F66E000E012075
:1013B600F76E000E0220F86E0900F5CF01F001501D
:1013C600045C12E2BF0E006E1D0E016E000E026E70
:1013D600100E0024F66E000E0120F76E000E02209D
:0E13E600F86E0900F5CF04F004C000F012000C
:0A13F400D08EA28AA08AF28E1200A9
:1013FE00A0C0A7F0A1C0A8F0A2C0A9F0010E0001E4
:06140E00AA6F53DE12007C
:10141400040E0C6E3A0E0D6E0D2EFED70C2EFCD75C
:0414240000001200B2
:1014280048C0A0F049C0A1F0400E0001A26F010E13
:06143800A36F96DE120016
:10143E009EC040F5400E0001A06F050EA16F070E75
:06144E00A26FD6DF1200C0
:1014540070DF00C09EF0560E0001A06F1D0EA16F3C
:10146400000EA26FB7DE00C09FF09E51005C03E245
:0C1474009EC000F002D09FC000F01200EB
:081480008D908D928D941200F5
:1014880000016951000A0BE16D6A696AB4EC05F064
:10149800ADDF6DB602D06D86FCD7010E696F120004
:1014A80000019C6B98C001F0010E006E015004E031
:1014B80000360090FF0FFBD700C09BF096C0E9FFF5
:1014C80097C0EAFF0050EE14016E0152010ED8A435
:1014D800000E006E9A51001A18E09951000804E2B3
:1014E80095DF94DF9907F9D796C0E9FF97C0EAFF1F
:1014F8009B51EE14016E0152010ED8A4000E006E2D
:101508009A51001A02E0FF0E9C6F9CC000F0120076
:101518009DDF00C084F0010E6E6F96C048F097C042
:1015280049F098C06CF099C06DF07EEC06F0010EA1
:0C153800016E0150010A01E1A3DF120066
:10154400300E0501015D006E016A000E015A0A0E9B
:10155400046E000E056EBDEC00F0300E025D026EEE
:10156400036A000E035A0250002400019C6F0350CA
:1015740001209D6F9CC096F09DC097F0300E050130
:10158400035D006E016A000E015A0A0E046E000E1D
:10159400056EBDEC00F0300E045D026E036A000EB1
:1015A400035A025000240001986F03500120996FE0
:1015B400300E0501055D006E016A000E015A0A0E27
:1015C400046E000E056EBDEC00F0300E065D026E7A
:1015D400036A000E035A0250002400019A6F03505C
:1015E40001209B6F800E006E800E9D19005C02E14D
:1015F4009C5163082EE3800E9719006E800E005CE8
:1016040002E1010E965D25E3800E006E800E9919AD
:10161400005C02E1985163081CE3800E9919006E86
:10162400800E005C02E1010E985D13E3800E006EF3
:10163400800E9B19005C02E19A5163080AE3800E54
:101644009B19006E800E005C02E1010E9A5D01E3BD
:1016540003D0006A016A4DD0300E0501015D006EB1
:10166400016A000E015A0A0E046E000E056EBDECEE
:1016740000F0300E025D026E036A000E035A02503F
:101684000024406E03500120416E300E035D006E55
:10169400016A000E015A0A0E046E000E056EBDECBE
:1016A40000F0300E045D026E036A000E035A02500D
:1016B4000024426E03500120436E300E055D006E1F
:1016C400016A000E015A0A0E046E000E056EBDEC8E
:1016D40000F0300E065D026E036A000E035A0250DB
:1016E4000024446E03500120456E010E006E000E6E
:0416F400016E120071
:1016F800C3DE96C029F097C02AF0010E0001965D5E
:10170800006E000E9759016E370E0024E96E000E28
:0C1718000120EA6EEECF9EF08EDE120083
:1017240081DE0050000A03E000C500F001D0006A29
:021734001200A1
:101736000900F5CFE6FF0006FBE10106F9E112001C
:1017460000016951010A07E16DBA05D0686A69802E
:101756006988020E696F68A406D069A404D0FB0EDE
:10176600681618EC06F06DA203D07CEC06F0DCD00F
:1017760068A019D069A017D07EEC06F0040E696F38
:10178600200E0401026F040E036F080E016F000E97
:101796000015006E00C000F48C0E0011006E00C033
:1017A60000F4FE0E681668A806D069A804D0C1EC3D
:1017B60005F0EF0E681668AC04D069AC02D0BF0E17
:1017C600681668AA04D069AA02D044EC06F068A29A
:1017D60002D069B26A6A040E0001695D03E27CEC1C
:1017E60006F0A2D069A69ED0B36B040EB35DD8B046
:1017F60099D068A694D06CCF72F0F70E6816780E62
:101806007215016E0150000AD8A488D0FD0E72151B
:10181600016E026AFF0E0216000E021802E1000EA9
:1018260001186DE17E0E7215016E01C003F00332E0
:10183600039E03C000F0000E016E003600900136D4
:10184600003600900136000E0024026E040E0120C0
:10185600036E02C088F003C089F002C085F003C0A1
:1018660086F0040E8519006E00C085F002C0E9FFFF
:1018760003C0EAFFEECF00F000C001F03C0E0116F7
:101886000132019E0132019E01500D0A35E1020E20
:101896008825E96E000E8921EA6EEECF01F0EECFC3
:1018A60002F00250040A02E1280E011822E1020E9B
:1018B6008825E16E000E8921E26E200EE66E040E8A
:1018C600E66EB26B080EB25D14E2200EE16E040EF7
:1018D600E26EB251E126D8B0E22A280EE96E040E75
:1018E600EA6EB251E926D8B0EA2AEECFE6FFB22B6D
:1018F600E9D765EC06F002D020EC06F00ED0FD0E1E
:101906007215016E026AFF0E0216000E021802E13F
:10191600040E011802E1C6EC05F000D001D002D099
:0A192600B32B63D77CEC06F012002F
:101930000001926B936B8BC000F08CC001F00A0E1B
:10194000046E000E056EBDEC00F0800E9319026E61
:10195000800E0118025C02E10050925DD8B04CD1BB
:10196000E1DE00C091F00050321816E12D50010860
:101970002D6E2E50000E2E56070E2D24006E000EDA
:101980002E20016E370E0024E96E000E0120EA6E53
:10199000EECF9EF054DDCED0915133181AE12B6A70
:1019A0002C6A000E2A1802E1030E291811E168DDE5
:1019B0008BC000F08CC001F00A0E046E000E056EA4
:1019C000BDEC00F0010E0024926F000E0120936F19
:1019D000B1D0915134181CE1010E2B6E000E2C6E0B
:1019E000000E2A1802E1030E291811E149DD8BC00F
:1019F00000F08CC001F00A0E046E000E056EBDEC06
:101A000000F0010E0024926F000E0120936F92D01F
:101A1000915135182DE1010E295C006E000E2A58F7
:101A2000016E370E0024E96E000E0120EA6EEECF43
:101A30009EF005DD030E0B6E8A0E0C6E550E0D6EBC
:101A40000D2EFED70C2EFCD70B2EFAD7000000006F
:101A5000070E2D24006E000E2E20016E370E00247E
:101A6000E96E000E0120EA6EEECF9EF0E8DC62D057
:101A70009151361821E166DD00C08DF001C08EF075
:101A8000000E2A1802E1030E291815E100018D51FC
:101A90008E1111E0F5DC8BC000F08CC001F00A0E55
:101AA000046E000E056EBDEC00F0010E0024926F76
:101AB000000E0120936F3ED0000E2E1802E1010EA1
:101AC0002D1838E10001300E915D016E026A000EA2
:101AD000025A01C08FF002C090F0800E0218006E12
:101AE000800E005C02E1010E015C24E3800E006EBA
:101AF000800E9019005C02E18F5103081BE39051A6
:101B00002A1802E129508F1915E08FC096F090C075
:101B100097F0F2DD8BC000F08CC001F00A0E046E6D
:101B2000000E056EBDEC00F0010E0024926F000E59
:101B30000120936F0001946B956B800E9519006ED8
:101B4000800E005C02E1030E945D45E2810E966F0B
:101B50000F0E976F94C098F00A0E996F9A6BA4DCE1
:101B6000005236E0000E2E1802E1000E2D1830E172
:101B7000810E966F0F0E976F94C098F00A0E996FB2
:101B80009A6B92DC005201E0F3D7010E9425016EAE
:101B9000000E9521026E02502A1802E12950011808
:101BA00017E0010E9425966F000E9521976FA4DD26
:101BB0008BC000F08CC001F00A0E046E000E056EA2
:101BC000BDEC00F0010E0024926F000E0120936F17
:101BD000944B952BB2D7030E0B6E8A0E0C6E550EDE
:101BE0000D6E0D2EFED70C2EFCD70B2EFAD7000053
:0A1BF0000000924B932B9FD61200C9
:101BFA006F886F84000E0001966F050E976F400E76
:101C0A00986F050E996F83DCA19AA08AF28EF28CE6
:021C1A001200B6
:101C1C00F7EC0EF00F0EC112070EB412816A8A6A2D
:101C2C00070E936E846A8D6A966AE1DF000E2A189D
:101C3C0002E1010E29180BE18D803AC09EF01FECD9
:101C4C000AF040C08BF041C08CF06CDE7CD0000EF2
:101C5C002A1802E1020E291823E1006A8DB2002A2B
:101C6C0000500108006E00B002D08D9201D08D8220
:101C7C00006A8DB2002A050E0026016A000E0122B0
:101C8C00370E0024E96E000E0120EA6EEECF9EF0B6
:101C9C001FEC0AF046C08BF047C08CF043DE53D0EB
:101CAC00000E2A1802E1030E29184DE12B502C10BE
:101CBC0023E0006A8DB2002A00500108006E00B0CB
:101CCC0002D08D9201D08D82006A8DB2002A050E51
:101CDC000026016A000E0122370E0024E96E000E68
:101CEC000120EA6EEECF9EF01FEC0AF046C08BF09E
:101CFC0047C08CF017DE27D08DA00CD08D908D8234
:101D0C003DC09EF01FEC0AF042C08BF043C08CF03B
:101D1C0009DE19D08DA20CD08D928D843BC09EF023
:101D2C001FEC0AF044C08BF045C08CF0FBDD0BD0EF
:101D3C008D948D803AC09EF01FEC0AF040C08BF061
:0A1D4C0041C08CF0EFDD72D7FFD725
:101DEE0010EE29F01F0E006E010E016EA00EF66EA3
:0E1DFE001D0EF76E000EF86E9BEC0BF012003F
:101D56000902290001010080320904000002030083
:101D6600000009210101000122210007058103402D
:091D760000010705010340000112
:101D7F000600FF0901A10119012940150026FF00E6
:101D8F007508950781021901294075089507910279
:011D9F00C083
:021DA00003003E
:021DA20000003F
:021DA40000003D
:081DA60031323354444E49531D
:091DAE004B5A4552474F594D4173
:081DB700050003000A00010011
:101DBF001201000200000008D80401000001010216
:021DCF00000111
:0E1DD1000E03740069006500730065006E006B
:0A1DDF000A03790075006B0069002B
:041DE90004030904E2
:020000040030CA
:0E000000240C3F1EFF8381FF0FC00FE00F4056
:00000001FF
