:04000000EBEF0DF025
:1000080000C01EF001C01DF002C01CF003C01BF0B0
:1000180004C01AF005C019F008C018F009C017F09C
:100028000AC016F00BC015F0E1CF27F0E2CF28F098
:10003800E9CF25F0EACF26F0F3CF23F0F4CF24F070
:10004800F5CF22F0F8CF1FF0F7CF20F0F6CF21F050
:10005800A1AA03D0A19A68EC0CF022C0F5FF1FC03A
:10006800F8FF20C0F7FF21C0F6FF23C0F3FF24C02C
:10007800F4FF1EC000F01DC001F01CC002F01BC040
:1000880003F01AC004F019C005F018C008F017C032
:1000980009F016C00AF015C00BF025C0E9FF26C00C
:0C00A800EAFF27C0E1FF28C0E2FF1100C2
:1000B4000B6A0A6A096A00500402F4CF09F0F3CF0C
:1000C40008F001500502F4CF0BF0F3CF0AF0005012
:1000D4000502F3500926F4500A22E86A0B22015063
:1000E4000402F3500926F4500A22E86A0B2208C0DD
:1000F40000F009C001F00AC002F00BC003F01200C6
:100104001E0E716E100E456E040E466E45C0E1FF64
:1001140046C0E2FFE69E45C0E1FF46C0E2FFE69C22
:10012400040E4524E16E000E4620E26EE68C180EA5
:100134003D6E040E3E6E3DC0E1FF3EC0E2FFE69E12
:100144003DC0E1FF3EC0E2FFE69C040E3D24E16EAB
:10015400000E3E20E26EE68C020E4524E16E000E97
:100164004620E26E39C0E6FF3AC0E6FF010E4524A0
:10017400E16E000E4620E26E400EE66E45C0E9FFD9
:1001840046C0EAFFEECF00F045C0E1FF46C0E2FF03
:10019400400E0014E66E45C0E9FF46C0EAFFEECF0C
:1001A40000F0880E001245C0E1FF46C0E2FF00C027
:1001B400E6FF45C037F046C038F0040E4518006E1F
:0601C40000C045F012002E
:1001CA0004012251010A0FE120C401F01F0E011699
:1001DA000150000A08E14E8E2151030A03E1010E83
:1001EA004A6E01D04A6A2251000AD8A48BD020C490
:1001FA0001F01F0E01160150020AD8A483D024C4AC
:10020A0001F00F0E01160150000AD8B47BD04E8EB1
:10021A0024BF16D024C403F00F0E031603C000F047
:10022A00000E016E003600900136430E0024E96E7E
:10023A00000E0120EA6EEECF04F0EECF05F015D0E5
:10024A0024C403F00F0E031603C000F0000E016E63
:10025A000036009001363B0E0024E96E000E0120A4
:10026A00EA6EEECF04F0EECF05F02151030A07E162
:10027A0004C0E1FF05C0E2FF840EE66E43D024C449
:10028A0000F00F0E0016700E026E0F0E036E005075
:10029A000226D8B0032A02C0E9FF03C0EAFFFE0E15
:1002AA00EE14006EEECF01F0FF0E011602C0E1FF60
:1002BA0003C0E2FF00C0E6FF01C0E6FF24AF11D091
:1002CA0004C0E1FF05C0E2FFE66A040E0418006EEE
:1002DA0000C004F004C0E1FF05C0E2FF400EE66E74
:1002EA0011D004C0E1FF05C0E2FF880EE66E040EDD
:1002FA000418006E00C004F004C0E1FF05C0E2FF6C
:06030A00C80EE66E1200B1
:1003100004012051800AD8A473D0C00E4E6E65D05F
:100320004E0E006E1C0E016E000E026E00C04BF0F1
:1003300001C04CF002C04DF0120E4F6E000E506E18
:100340005FD0030E006E000E016E22C404F0000E9A
:10035000056EB0DE470E0024E96E000E0120EA6E45
:10036000EECF4BF0EECF4CF0EECF4DF0020E4B2423
:10037000F66E000E4C20F76E000E4D20F86E090050
:10038000F5CF00F00900F5CF01F000C04FF001C03B
:1003900050F036D0225100016B5D23E3030E006E56
:1003A000000E016E22C404F0000E056E83DE510EB5
:1003B0000024E96E000E0120EA6EEECF4BF0EECF86
:1003C0004CF0EECF4DF04BC0F6FF4CC0F7FF4DC0E8
:1003D000F8FF0900F5CF00F000C04FF0000E506E9E
:1003E00001D04E6A0DD04E6A0BD004012351010A90
:1003F00097E02351020AA5E02351030ACBE0F3D78B
:020400001200E8
:10040200000E505C02E1080E4F5C10E24FC003F098
:1004120050C004F04050000A03E1010E406E05D0C6
:100422004050010A02E1020E406E04D0080E036E33
:10043200000E046E3BC0E1FF3CC0E2FFE6923BC00F
:10044200E1FF3CC0E2FFE6903BC0E9FF3CC0EAFFAF
:10045200EECF00F03BC0E1FF3CC0E2FF04500010D1
:10046200E66E010E3B24E16E000E3C20E26E03C0FC
:10047200E6FF03504F5C006E04505058016E00C0FE
:100482004FF001C050F0280E5C6E040E5D6E4EB04F
:100492002FD0035004102BE04BC0F6FF4CC0F7FFE7
:1004A2004DC0F8FF0900F5CF00F05CC0E1FF5DC070
:1004B200E2FF00C0E6FF5C4A5D2A010E4B24006E9B
:1004C200000E4C20016E000E4D20026E00C04BF05B
:1004D20001C04CF002C04DF0010E035C006E000E34
:1004E2000458016E00C003F001C004F0D2D724D03A
:1004F2000350041021E04BC0E9FF4CC0EAFF5CC08E
:10050200E1FF5DC0E2FFEECFE6FF5C4A5D2A010E2D
:100512004B24006E000E4C20016E00C04BF001C057
:100522004CF0010E035C006E000E0458016E00C018
:0A05320003F001C004F0DCD7120052
:10053C0020C401F01F0E01160150010A01E08DD0FC
:10054C0004012451000A01E088D02151060A3FE140
:10055C0034D04250010A17E1040E006E1C0E016EDD
:10056C00000E026E120E0026000E0122022200C0A6
:10057C004BF001C04CF002C04DF0090E4F6E000E56
:10058C00506EC00E4E6E23D04250010A12E12D0E59
:10059C00006E1C0E016E000E026E00C04BF001C00E
:1005AC004CF002C04DF0210E4F6E000E506EC00E7E
:1005BC004E6E0DD0800E4E6E0AD004012351210ACE
:1005CC00C8E02351220AE0E02351230AF3E020C4BF
:1005DC0001F0600E0116050E006E005004E00132B1
:1005EC00019EFF0FFBD70150010A01E036D022D04B
:1005FC0034D033D0760E4B6E000E4C6E010E4F6E17
:10060C00000E506EC10E4E6E28D0800E4E6E23C45E
:10061C0076F023D0600E4B6E000E4C6E010E4F6EBA
:10062C00000E506E810E4E6E18D0800E4E6E22C48F
:10063C0060F013D004012151010ADAE02151090ABA
:10064C00D8E02151020AD6E021510A0ADEE02151FC
:0C065C00030AE0E021510B0AE8E0120064
:100668000401286B296B42D04E8E28814A50010A1A
:10067800D8B4288350D04E8E4ED04E8E24BF16D07C
:1006880024C403F00F0E031603C000F0000E016E21
:10069800003600900136430E0024E96E000E01205A
:1006A800EA6EEECF04F0EECF05F015D024C403F0C7
:1006B8000F0E031603C000F0000E016E0036009006
:1006C80001363B0E0024E96E000E0120EA6EEECFE3
:1006D80004F0EECF05F004C0E9FF05C0EAFFEECF55
:1006E80001F001A402D0010E286F15D020C401F03A
:1006F8001F0E01160150000AB7E020C401F01F0EBA
:1007080001160150010AB7E020C401F01F0E0116BE
:100718000150020AB2E04EAE07D0280E4B6E040E0E
:0A0728004C6E4E80020E4F6E120060
:100732004E8E716A3F6A22C442F04250000A03E1BF
:0E074200100E416E03D0200E416EDBDC120063
:1007500000016C6B3BC0E1FF3CC0E2FFE66A040EA7
:100760003B18E16E3CC0E2FF000EE21AE66A6FAF92
:0607700001D06F9F120092
:10077600040E476E1C0E486E000E496E8E0E516EAC
:100786001C0E526E000E536E600E546E1C0E556E8D
:10079600000E566E790E576E1C0E586E000E596E70
:0207A60012003F
:1007A8006D984EBE4AD000016FAF28D0020E6C6F14
:1007B800010E3B24E16E000E3C20E26EE66A3BC06F
:1007C800E1FF3CC0E2FFC80EE66E010E7825E16E3F
:1007D800000E7921E26E080EE66E020E7825E16EB3
:1007E800000E7921E26E280EE66E040EE66E78C0E1
:1007F800E1FF79C0E2FFC80EE66E1ED0010E782533
:10080800E16E000E7921E26E080EE66E020E782582
:10081800E16E000E7921E26E200EE66E040EE66EA1
:1008280078C0E1FF79C0E2FF8C0EE66E3BC0E1FFC5
:100838003CC0E2FF840EE66E80D000016FBF7DD021
:10084800040120AF52D05050275D02E14F50265D81
:1008580004E226C44FF027C450F0CFDD010E00019A
:100868006C6F010E7825E16E000E7921E26E080E9C
:10087800E66E020E7825E16E000E7921E26E200EFA
:10088800E66E040EE66E78C0E1FF79C0E2FF800EE6
:10089800E66E776B010E6925E16E000E6A21E26E45
:1008A800080EE66E020E6925E16E000E6A21E26E00
:1008B800200EE66E040EE66E69C0E1FF6AC0E2FF34
:1008C800840EE66E010E776F020E3B24E16E000E79
:1008D8003C20E26E280EE66E040EE66E3BC0E1FF99
:1008E8003CC0E2FFC80EE66E28D00001020E6C6F15
:1008F800010E3B24E16E000E3C20E26EE66A3BC02E
:10090800E1FF3CC0E2FFC80EE66E010E7825E16EFD
:10091800000E7921E26E080EE66E020E7825E16E71
:10092800000E7921E26E280EE66E040EE66E78C09F
:0C093800E1FF79C0E2FFC80EE66E12007D
:1009440020C401F0600E0116050E006E005004E094
:100954000132019EFF0FFBD70150000A01E058D07D
:1009640034D04E8E080E416E53D0D0DC51D0DFDE31
:100974004FD0420E4B6E000E4C6E4E80010E4F6EE9
:100984004E8E46D06FDE44D01EDC42D03F0E006E49
:10099400000E016E24510026D8B0012A00C04BF08D
:1009A40001C04CF04E80010E4F6E4E8E31D04E8EF3
:1009B4003F0EE16E000EE26E2451E126D8B0E22A29
:1009C40022C4E6FF25D024D023D004012151050AF6
:1009D400C8E02151060AC9E02151090AC8E02151A1
:1009E400080AC7E02151000ACDE02151010ACCE0F8
:1009F4002151030AC9E021510A0AC8E021510B0A16
:100A0400D6E02151070ADFE021510C0ADDE0DCD7F2
:020A14001200CE
:100A1600010E00016925E96E000E6A21EA6EEECF2D
:100A260000F000C002F0000E715D02E10250705D40
:100A360003E270C002F00AD00250705D006E000E34
:100A46007159016E00C070F001C071F0036A025066
:100A5600035C1CE2280EE96E040EEA6E0350E926DA
:100A6600D8B0EA2AEECF00F06DC0E1FF6EC0E2FF1B
:100A760000C0E6FF010E6D25006E000E6E21016EB0
:100A860000C06DF001C06EF0032AE1D7000E006EC3
:100A96007151005C02E17051000828E2010E7825D0
:100AA600E16E000E7921E26E080EE66E020E7825E2
:100AB600E16E000E7921E26E280EE66E040EE66EF9
:100AC60069C0E9FF6AC0EAFFEECF00F000BC07D0BC
:100AD60078C0E1FF79C0E2FFC80EE66E06D078C0A6
:100AE600E1FF79C0E2FF880EE66E19D0010E782587
:100AF600E16E000E7921E26E080EE66E020E782592
:100B0600E16E000E7921E26E200EE66E040EE66EB0
:100B160078C0E1FF79C0E2FF840EE66E6F9F120097
:080B26005E5201E008DD12003F
:0E0B2E00160E6F6E9F0E6B6E3B0E696E120000
:100B3C001CDE376A386A0001616B626B6A6A686A2C
:100B4C00F0DF6D8C6E6A716A6D9C636B646B000E6A
:100B5C00645D02E1080E635D17E263C000F064C0DF
:100B6C0001F0003600900136003600900136000E80
:100B7C000024E16E040E0120E26EE66AE66AE66A83
:100B8C00E66A634B642BE3D7160E706E68A603D02F
:100B9C00F70E6816FBD74E6A6F6B706B716B6D98A6
:0E0BAC00080E3B6E040E3C6E426A416A120057
:040BBA00A19A1200EA
:100BBE006D92699468A403D0FB0E6816FBD71200E1
:0A0BCE006984EF0E68166D821200B4
:100BD80000016C51020A02E11ADF1ED0B5DD77511F
:100BE800000A19E1010E7825E16E000E7921E26E06
:100BF800080EE66E020E7825E16E000E7921E26E8F
:100C0800200EE66E040EE66E78C0E1FF79C0E2FFC2
:0A0C18008C0EE66E01D0776B12001F
:100C2200040E3B18006E00C03BF04150080A0AE176
:100C320022C46EFF6E50000803E2100E416E02D015
:100C4200040E416E00016C51010A3BE1020E3B248D
:100C5200E16E000E3C20E26E280EE66E040EE66E99
:100C620001EC02F04050020A07E13BC0E1FF3CC048
:100C7200E2FF840EE66E24D0040E3B18006E00C024
:100C82003BF03BC0E9FF3CC0EAFFEECF00F000BC06
:100C92000CD0040E3B18006E00C03BF03BC0E1FFDD
:100CA2003CC0E2FFC80EE66E0BD0040E3B18006E8D
:100CB20000C03BF03BC0E1FF3CC0E2FF880EE66EA5
:060CC20001D045DD120027
:100CC80070A01CD069C0E9FF6AC0EAFFEECF01F04E
:100CD8000150800A12E13BC0E9FF3CC0EAFFEECFB9
:100CE80001F0000E000A02E1840E011806E169C055
:100CF800E1FF6AC0E2FF8C0EE66E7090DF0E6816A8
:020D08001200D7
:100D0A003BC0E9FF3CC0EAFFEECF00F000AE05D0E1
:100D1A003BC0E1FF3CC0E2FFE66A406A00016C6B3F
:0E0D2A004F6A506A4E6A09DEF9DE39DD1200AA
:100D38004150000A09E16D6A696AF5DE6DB602D0B4
:100D48006D86FCD7010E416E4150010A08E16DBA6B
:100D580006D0686A696A69806988020E416E68A46B
:100D680005D069A403D0FB0E681625DF6DA202D05A
:100D780020DFD5D068A018D069A016D0DBDE040E1D
:100D8800416E200E0401026F040E036F080E016FFE
:100D9800000E0015006E00C000F48C0E0011006EED
:100DA80000C000F4FE0E681668A805D069A803D034
:100DB8000ADFEF0E681668AC04D069AC02D0BF0E2B
:100DC800681668AA03D069AA01D07ADF68A202D09F
:100DD80069B26A6A040E415C02E2EBDEA0D069A641
:100DE8009DD000019D6B040E9D5DD8B097D068A67C
:100DF80091D06CCF5FF0F70E6816780E5F14016E15
:100E08000150000AD8A485D0FD0E5F14016E026A55
:100E1800FF0E0216000E021802E1000E01186BE127
:100E28007E0E5F14016E01C003F00332039E03C0FF
:100E380000F0000E016E003600900136003600907A
:100E48000136000E0024026E040E0120036E02C05B
:100E580069F003C06AF002C078F003C079F0040EAC
:100E68007819006E00C078F002C0E9FF03C0EAFFFD
:100E7800EECF00F000C001F03C0E01160132019ED9
:100E88000132019E01500D0A34E1020E6925E96E16
:100E9800000E6A21EA6EEECF01F0EECF02F00250AA
:100EA800040A02E1280E011822E1020E6925E16E0A
:100EB800000E6A21E26E200EE66E040EE66E9C6B52
:100EC800080E9C5D14E2200EE16E040EE26E9C5149
:100ED800E126D8B0E22A280EE96E040EEA6E9C518B
:100EE800E926D8B0EA2AEECFE6FF9C2BE9D709DF3E
:100EF80001D06EDE0DD0FD0E5F14016E026AFF0E8A
:100F08000216000E021802E1040E011801E185DE46
:100F180000D001D003D000019D2B65D74ADE120016
:100F2800000E00019D1902E1000E9C1902E1016A00
:100F38000AD09CC0E9FF9DC0EAFFEECF00F0000E8A
:0C0F480000BE010E016E01C000F012009E
:100F540000019D51000A12E09CC000F0000E016ED9
:100F64000036009001363B0E0024E96E000E01208D
:100F7400EA6EEECF04F0EECF05F011D09CC000F085
:100F8400000E016E003600900136430E0024E96E17
:100F9400000E0120EA6EEECF04F0EECF05F0020E53
:100FA4000424E16E000E0520E26E9EC0E6FF9FC0A1
:100FB400E6FF010E0424E16E000E0520E26EA0C0DF
:100FC400E6FF04C0E9FF05C0EAFFEECF00F004C06D
:100FD400E1FF05C0E2FF400E0014E66E04C0E9FF25
:100FE40005C0EAFFEECF00F0880E001204C0E1FF56
:100FF40005C0E2FF00C0E6FF9D51000A1BE09CC053
:1010040000F0000E016E0036009001363B0E002405
:10101400026E000E0120036E02C0E9FF03C0EAFF66
:10102400040EEE18006E02C0E1FF03C0E2FF00C030
:10103400E6FF1AD09CC000F0000E016E003600904E
:101044000136430E0024026E000E0120036E02C01E
:10105400E9FF03C0EAFF040EEE18006E02C0E1FFD0
:1010640003C0E2FF00C0E6FF04C000F005C001F0C9
:02107400120068
:10107600200E415C03E36DB201D002D0006A4ED06F
:1010860061C09CF062C09DF04CDF005246E199C001
:101096009CF0010E9D6F96C09EF097C09FF098C081
:1010A600A0F055DF00C061F001C062F0656B666BB1
:1010B600676B686B61C09CF062C09DF032DF0052C6
:1010C60017E0200E415C03E36DB201D002D0006A46
:1010D60025D0010E016E0150000A01E12ADE000151
:1010E600655166116711681102E0006A17D0E2D7F0
:1010F60061C09AF062C09BF0000E621902E1000E18
:10110600611909E0010E9A25E96E000E9B21EA6E2F
:0E111600EECF00F003D0006A01D0006A120094
:101124008FC096F090C097F091C098F0010E000126
:06113400996F9FDF12001D
:10113A000001926B936B946B020E8F25F66E000E74
:10114A009021F76E000E9121F86E0900F5CF05F097
:10115A00030E8F25F66E000E9021F76E000E912178
:10116A00F86E0900F5CF00F000C003F0000E046E1F
:10117A0003C001F0006A05500024066E000E01202B
:10118A00076E8FC008F090C009F091C00AF0010EF6
:10119A000824F66E000E0920F76E000E0A20F86E7B
:1011AA000900F5CF01F00150020A1BE1060E0824DE
:1011BA00F66E000E0920F76E000E0A20F86E09007E
:1011CA00F5CF01F00150925D0CE2060E0824F66E8E
:1011DA00000E0920F76E000E0A20F86E0900F5CFFE
:1011EA0092F0010E0824F66E000E0920F76E000E2A
:1011FA000A20F86E0900F5CF01F00150040A1BE13C
:10120A00080E0824F66E000E0920F76E000E0A205A
:10121A00F86E0900F5CF01F00150925D0CE2080E5C
:10122A000824F66E000E0920F76E000E0A20F86EEA
:10123A000900F5CF92F008C0F6FF09C0F7FF0AC00F
:10124A00F8FF0900F5CF00F000509325016E000E5B
:10125A009421026E01C093F002C094F00750025C20
:10126A0002E10650015C01E30FD008C0F6FF09C095
:10127A00F7FF0AC0F8FF0900F5CF00F00050082672
:0E128A00000E09220A2283D792C000F0120043
:101298000001956B200E415C03E36DB201D002D0D2
:1012A800006A2DD037C09CF038C09DF039DE00525E
:1012B80025E137C093F038C094F0000E381802E1E9
:1012C800000E37180AE0010E9325E96E000E9421EE
:1012D800EA6EEECF00F000C095F092C09CF09D6BD6
:1012E8008FC09EF090C09FF091C0A0F02FDE00C08C
:1012F80037F001C038F095C000F001D0006A120044
:101308004E0E006E1C0E016E000E026E0E0E0024B4
:10131800F66E000E0120F76E000E0220F86E09002E
:10132800F5CF03F003C004F00F0E0024F66E000E94
:101338000120F76E000E0220F86E0900F5CF01F0CB
:101348000150035C12E24E0E006E1C0E016E000E80
:10135800026E0F0E0024F66E000E0120F76E000ECE
:101368000220F86E0900F5CF04F04E0E006E1C0E38
:10137800016E000E026E100E0024F66E000E0120A3
:10138800F76E000E0220F86E0900F5CF01F001504B
:10139800045C12E24E0E006E1C0E016E000E026E10
:1013A800100E0024F66E000E0120F76E000E0220CB
:0E13B800F86E0900F5CF04F004C000F012003A
:0A13C600D08EA28AA08AF28E1200D7
:1013D0009BDF00C08DF0040E00018F6F1C0E906F1C
:1013E000000E916FAADE00C08EF08D51005C03E20A
:0C13F0008DC000F002D08EC000F0120092
:1013FC006E0E00018D25F66E1C0E8E21F76E000E02
:10140C00F86E000E8EBFFF0EF8220900F5CF40F5E6
:10141C00400E8F6F050E906F070E916F7DDE030EE1
:10142C000B6E8A0E0C6E550E0D6E0D2EFED70C2EFD
:0C143C00FCD70B2EFAD7000000001200B5
:101448004150000A0BE16D6A696A97EC05F0B7DF55
:0E1458006DB602D06D86FCD7010E416E1200FB
:10146600040E0C6E3A0E0D6E0D2EFED70C2EFCD70A
:041476000000120060
:10147A0039C08FF03AC090F0400E0001916F010E12
:06148A00926F05DF120065
:1014900000018A6B86C001F0010E006E015004E06D
:1014A00000360090FF0FFBD700C089F084C0E9FF31
:1014B00085C0EAFF0050EE14016E0152010ED8A45F
:1014C000000E006E8851001A18E08751000804E2EF
:1014D000CADFC9DF8707F9D784C0E9FF85C0EAFF03
:1014E0008951EE14016E0152010ED8A4000E006E57
:1014F0008851001A02E0FF0E8A6F8AC000F01200C5
:101500000001846B856B800E8519006E800E005C77
:1015100002E1070E845D17E2860E8425E16E000E5F
:101520008521E26E010E8425006E000E8521016E7C
:10153000000E0024E96E050E0120EA6EEECFE6FFF4
:10154000844B852BE0D7846B856B800E8519006EEC
:10155000800E005C02E1060E845D17E2860E842593
:10156000E96E000E8521EA6E300EEE5C0AE3860E0F
:101570008425E96E000E8521EA6EEE50390801E3FC
:1015800001D050D0844B852BE0D7300E865D006EA5
:10159000016A000E015A0A0E046E000E056E5AEC26
:1015A00000F0300E875D026E036A000E035A02508F
:1015B00000242F6E03500120306E300E885D006EC7
:1015C000016A000E015A0A0E046E000E056E5AECF6
:1015D00000F0300E895D026E036A000E035A02505D
:1015E0000024316E03500120326E300E8A5D006E91
:1015F000016A000E015A0A0E046E000E056E5AECC6
:1016000000F0300E8B5D026E036A000E035A02502A
:101610000024336E03500120346E0A0E8D6F000ECD
:061620008E6FECDE1200EB
:101626002E500001851902E184512D1803E1006A4C
:10163600016A10D0816A84C02DF085C02EF0010E9B
:10164600845D8D6F000E85598E6FD5DE010E006E9E
:06165600000E016E1200FF
:10165C00B9DE00C06BF0010E5E6E84C039F085C03F
:10166C003AF086C05AF087C05BF09EEC05F0010E94
:0C167C00016E0150010A01E1E1DE1200E4
:10168800F8DE0050000A03E000C500F001D0006A4F
:0216980012003E
:10169A000001806B816B7BC000F07CC001F00A0EF8
:1016AA00046E000E056E5AEC00F0800E8119026E6F
:1016BA00800E0118025C02E10050805DD8B0DBD0D8
:1016CA00DEDF00C07FF00050540A0EE12B50010803
:1016DA002B6E2C50000E2C56030E2B248D6F000EF1
:1016EA002C208E6F86DE7CD000017F51440A0BE1EC
:1016FA00296A2A6A000E2E1802E1030E2D1802E149
:10170A00816AB9D06DD000017F514E0A0DE1010EF8
:10171A00296E000E2A6E000E2E1802E1030E2D18F5
:10172A0002E1816AA8D05CD000017F51490A1EE11A
:10173A00010E2D5C8D6F000E2E588E6F5ADE030E31
:10174A000B6E8A0E0C6E550E0D6E0D2EFED70C2EDC
:10175A00FCD70B2EFAD700000000030E2B24000141
:10176A008D6F000E2C208E6F44DE3AD000017F511F
:10177A00530A0AE1C0DE000E2E1802E1030E2D18EC
:10178A0002E1816A78D02CD0000E2C1802E1010EF9
:10179A002B1826E1300E00017F5D016E026A000EF1
:1017AA00025A01C07DF002C07EF0800E0218006E5F
:1017BA00800E005C02E1010E015C12E3800E006EF5
:1017CA00800E7E19005C02E17D51030809E37DC0A9
:1017DA0084F07EC085F022DF0050011001E04BD07A
:1017EA000001826B836B800E8319006E800E005C91
:1017FA0002E1030E825D2EE2810E846F0F0E856F69
:10180A0082C086F00A0E876F886B3DDE00521EE0AA
:10181A00000E2C1802E1000E2B1818E1810E846FBD
:10182A000F0E856F82C086F00A0E876F886B2BDEDB
:10183A00005201E0F3D7010E8225846F000E832146
:10184A00856FECDE0050011001E015D00001824BDB
:10185A00832BC9D7030E0B6E8A0E0C6E550E0D6EB6
:10186A000D2EFED70C2EFCD70B2EFAD70000000047
:08187A00804B812B10D71200F6
:101882006F886F84000E0001846F050E856F400E15
:10189200866F050E876FE1DEA19AA08AF28EF28C26
:1018A200030E0B6E8A0E0C6E550E0D6E0D2EFED7AC
:0E18B2000C2EFCD70B2EFAD7000000001200FF
:1018C0000900F5CFE6FF0006FBE10106F9E1120091
:1018D0004150010A07E16DBA05D0686A69806988DC
:1018E000020E416E68A406D069A404D0FB0E6816EF
:1018F000DFEC05F06DA203D0DDEC05F0DDD068A0D3
:1019000019D069A017D09EEC05F0040E416E200E90
:101910000401026F040E036F080E016F000E001524
:10192000006E00C000F48C0E0011006E00C000F4C8
:10193000FE0E681668A806D069A804D0E7EC05F08A
:10194000EF0E681668AC04D069AC02D0BF0E681602
:1019500068AA04D069AA02D064EC06F068A202D09A
:1019600069B26A6A040E415C03E2DDEC05F0A4D0C2
:1019700069A6A0D00001A26B040EA25DD8B09AD0D7
:1019800068A694D06CCF5FF0F70E6816780E5F14DF
:10199000016E0150000AD8A488D0FD0E5F14016EBC
:1019A000026AFF0E0216000E021802E1000E011874
:1019B0006DE17E0E5F14016E01C003F00332039EE1
:1019C00003C000F0000E016E0036009001360036B4
:1019D00000900136000E0024026E040E0120036EFA
:1019E00002C069F003C06AF002C078F003C079F069
:1019F000040E7819006E00C078F002C0E9FF03C041
:101A0000EAFFEECF00F000C001F03C0E01160132FB
:101A1000019E0132019E01500D0A35E1020E692539
:101A2000E96E000E6A21EA6EEECF01F0EECF02F011
:101A30000250040A02E1280E011822E1020E692573
:101A4000E16E000E6A21E26E200EE66E040EE66E76
:101A5000A16B080EA15D14E2200EE16E040EE26E91
:101A6000A151E126D8B0E22A280EE96E040EEA6EF2
:101A7000A151E926D8B0EA2AEECFE6FFA12BE9D79B
:101A800085EC06F002D0ECEC05F00ED0FD0E5F14F4
:101A9000016E026AFF0E0216000E021802E1040E29
:101AA000011802E111EC06F000D001D003D00001D2
:0A1AB000A22B62D7DDEC05F0120056
:101ABA00000E2E1802E1010E2D180EE1080E816E9D
:101ACA00050E00018D6F000E8E6F93DC2FC07BF028
:101ADA0030C07CF0DDDD70D0000E2E1802E1020E5F
:101AEA002D180BE0000E2E1802E1030E2D1804E14A
:101AFA0029502A1001E001D01ED08178380E8114B5
:101B0A00016E000E000A02E1100E011804E1070E30
:101B1A0000017A6F03D00001060E7A6F7AC08DF049
:101B2A00000E7ABFFF0E8E6F64DC35C07BF036C0C4
:101B3A007CF0AEDD41D0000E2E1802E1030E2D1806
:101B4A003BE1380E8114016E000E000A02E1080E14
:101B5A0001180EE1100E816E070E00018D6F000E46
:101B6A008E6F47DC31C07BF032C07CF091DD24D02F
:101B7A00380E8114016E000E000A02E1100E0118DF
:101B8A000EE1200E816E080E00018D6F000E8E6F21
:101B9A0030DC33C07BF034C07CF07ADD0DD0080E27
:101BAA00816E050E00018D6F000E8E6F22DC2FC034
:0A1BBA007BF030C07CF06CDD1200FF
:101BC4000F0EC112070EB412070E936E816A57DE10
:021BD4001200FD
:101BD600296A2A6A2B6A2C6A030E2D6E2E6A050E56
:101BE6002F6E306A030E316E326A0A0E336E346A15
:0E1BF600010E356E366AE3DF5DDFFED7FFD7E6
:101C040009022900010100803209040000020300D6
:101C14000000092101010001222100070581034080
:091C240000010705010340000165
:101C2D000600FF0901A10119012940150026FF0039
:101C3D0075089507810219012940750895079102CC
:011C4D00C0D6
:101C4E001201000200000008D80401000001010288
:021C5E00000183
:0E1C60000E03740069006500730065006E00DD
:0B1C6E003132334D41524F594745536E
:0A1C79000A03790075006B00690092
:061C830008001000200023
:051C890054444E4953D4
:041C8E00040309043E
:020000040030CA
:0E000000240C3F1EFF8381FF0FC00FE00F4056
:00000001FF
