:10000000F8EF01F00000000000EF00F00000000039
:0A0010000000000000000000F3D71C
:10001C00040E0C6E3A0E0D6E0D2EFED70C2EFCD768
:04002C0000001200BE
:0E003000ACB202D00000FCD731C0ADFF120010
:10003E00AECF01F0ABA202D0AB98AB8801C000F0FE
:02004E0012009E
:0A005000000E9EBA010E006E1200B1
:10005A00376A33C001F0010E006E015004E0003629
:10006A000090FF0FFBD700C036F031C0E9FF32C065
:10007A00EAFF0050EE14016E0152010ED8A4000EE0
:10008A00006E3550001A18E03450000804E2C1DF4F
:10009A00C0DF3406F9D731C0E9FF32C0EAFF365073
:1000AA00EE14016E0152010ED8A4000E006E3550F6
:0E00BA00001A02E0FF0E376E37C000F0120091
:1000C800810E316E0F0E326E336A0A0E346E356A47
:1000D800C0DF005206E0010E196E230E316EA4DF58
:1000E8003DD0810E316E0F0E326E010E336E0A0E48
:1000F800346E356AAEDF005213E0810E316E0F0E9A
:10010800326E010E336E0A0E346E356AA2DF00526B
:1001180001E0F3D7020E196E400E316E85DF1ED056
:10012800810E316E0F0E326E020E336E0A0E346E71
:10013800356A8FDF005212E0810E316E0F0E326E7B
:10014800020E336E0A0E346E356A83DF005201E008
:0E015800F3D7030E196E230E316E66DF120010
:100166002EC000F02FC001F0010E2E5E000E2F5A99
:100176000050011054E01C6A1D6A000E1D5C02E16D
:100186000A0E1C5C4BE2030E0B6E8A0E0C6E550EAD
:100196000D6E0D2EFED70C2EFCD70B2EFAD70000B7
:1001A600000053DF005237E047DF00C030F0005058
:1001B600310A2AE03050320A27E03050330A24E070
:1001C600810E316E0F0E326E336A0A0E346E356A48
:1001D60041DF005219E1810E316E0F0E326E010EB3
:1001E600336E0A0E346E356A35DF00520DE1810E2C
:1001F600316E0F0E326E020E336E0A0E346E356A93
:1002060029DF005201E107D08D908D928D94300E3A
:10021600305C196E04D01C4A1D2AAFD7A1D7120034
:10022600300E266E000E276E310E286E000E296ED9
:100236003E0E2A6E000E2B6E000E2C6E000E2D6EDC
:10024600500E1E6E000E1F6E000E206E000E216EEA
:10025600FF0E226EFF0E236E000E246E000E256E1C
:10026600AC8A900EAB6E948E949C9EAA03D0AECFB1
:0602760000F0FBD71200AE
:10027C00E9DE005247E0DDDE00C02EF00050310A0E
:10028C0014E1010E196E210E316ECCDE030E0B6ED5
:10029C008A0E0C6E550E0D6E0D2EFED70C2EFCD745
:1002AC000B2EFAD7000000002DD02E50320A14E18C
:1002BC00020E196E400E316EB5DE030E0B6E8A0EF9
:1002CC000C6E550E0D6E0D2EFED70C2EFCD70B2E74
:1002DC00FAD70000000016D02E50330A13E1030E9B
:1002EC00196E230E316E9EDE030E0B6E8A0E0C6E93
:1002FC00550E0D6E0D2EFED70C2EFCD70B2EFAD7ED
:06030C00000000001200D9
:100312000900F5CFE6FF0006FBE10106F9E1120054
:100322000F0EC112070EB412816A8A6A93809382F9
:100332009384846A8D6A969096929694B886020EF9
:10034200B06E080EAF6EAC846DDF030E0B6E8A0EBC
:100352000C6E550E0D6E0D2EFED70C2EFCD70B2EED
:08036200FAD7000000001200B0
:10036A0088DFADDE36D08D808D928D943BD01950CA
:10037A00020A11E18D908D828D94010E2E6E000E6F
:10038A002F6EECDE8D908D928D94010E2E6E000EE6
:10039A002F6EE4DEECD726D01950030A19E18D80BE
:1003AA008D928D941AC02EF01BC02FF0D7DE8D903F
:1003BA008D828D9415C02EF016C02FF0CFDE8D9051
:1003CA008D928D8417C02EF018C02FF0C7DEE4D7A7
:1003DA0009D01950010AC7E01950020AC8E0195099
:0603EA00030ADAE0120034
:1003F000030E156E166A0A0E176E186A030E196E32
:10040000050E1A6E1B6A1C6A1D6A8BDFAEDFFED7F3
:02041000FFD714
:020000040030CA
:0E000000240C1F1EFF8381FF0FC00FE00F4076
:00000001FF
