:10000000D4EF02F00000000000EF00F0000000005C
:0A0010000000000000000000F3D71C
:08001C000AAE029E000E120064
:100024000B840BAE1DEF00F0010E036E026A016A31
:0A003400006A0A360232FF0E1200C5
:0E003E00026A016A006A086A036A000E120074
:10004C000C6A0E6A0250D8A43FEF00F001C002F017
:10005C0000C001F0006A0E860250D8A43FEF00F0F9
:10006C0001C002F0016A0E960E880250D8B451EF0E
:10007C0000F00E50035ED8A4D8A056EF00F0D89034
:10008C0002BE5BEF00F0003601360236032E46EF5F
:10009C0000F056EF00F0010E0C6ECBDF5EEF00F0BF
:1000AC00020E0C6EB9DF5EEF00F0040E0C6EB0DFCA
:0200BC00120030
:1000BE000B820BAE69EF00F00368026801680068FE
:0800CE000A360232FF0E120097
:1000D600040E0C6E3A0E0D6E0D2EFED70C2EFCD7AE
:0400E6000000120004
:1000EA000A6A0350D8A40A800750D8A40A820A5080
:1000FA00D8B4D8EF00F0030AD8B491EF00F00AB0F0
:10010A008CEF00F006AED6EF00F0D4EF00F002AEAE
:10011A00D4EF00F0D6EF00F00250800B0A6E029E78
:10012A000650800B069E0A18D8B4A2EF00F00A50B7
:10013A00D8B4D4EF00F0D6EF00F00750035CD8B47F
:10014A00ACEF00F0D8A0C8EF00F0CEEF00F00650F8
:10015A00025CD8B4B6EF00F0D8A0C8EF00F0CEEF3A
:10016A0000F00550015CD8B4C0EF00F0D8A0C8EF89
:10017A0000F0CEEF00F00450005CD8B4D8EF00F0E5
:10018A00D8B0CEEF00F00A52D8B4D6EF00F0D4EFD0
:10019A0000F00A52D8B4D4EF00F0D6EF00F0D880BD
:0E01AA001200D8901200D880D88412001200E3
:0A01B800000E9EBA010E006E120048
:1001C2003B6A37C001F0010E006E015004E00036B8
:1001D2000090FF0FFBD700C03AF035C0E9FF36C0F0
:1001E200EAFF0050EE14016E0152010ED8A4000E77
:1001F200006E3950001A18E03850000804E26ADF35
:1002020069DF3806F9D735C0E9FF36C0EAFF3A5050
:10021200EE14016E0152010ED8A4000E006E395088
:0E022200001A02E0FF0E3B6E3BC000F012001F
:10023000086A096A000E076203649DEF01F002502C
:1002400006180A6E075003267E0ED8A02EEF01F086
:10025000035ED8B0A1EF01F032EF01F0035ED8A049
:10026000A5EF01F0028E068E02C00EF001C00BF069
:1002700000C00DF000500402F4CF0CF00150050254
:10028000F4CF00F0F3CF08F00402F3500C26F45042
:100290000822000E00220D500502F3500C26F450E7
:1002A0000822000E002202500402F3500826F450E7
:1002B000002202500502016A000E0122F3500026BE
:1002C000F45001220D500602F3500826F45000228B
:1002D000026A000E012202220B500602F350002691
:1002E000F4500122000E02220E500602F3500126A5
:1002F000F450022202BE85EF01F0083600360136C6
:1003000002360306D8B4A5EF01F098EF01F0D880CB
:10031000800E08640030000E002201220222D8A0C4
:1003200098EF01F0023201320032034AA1EF01F0EE
:100330000AAE029E000EA7EF01F0010E80DEA7EFCD
:1003400001F0020EBCDEA7EF01F0040E6BDE12001E
:1003500000C008F00150006E016A026A036A0B6A6D
:100360000C6A016A026A036A960E036E0A6A00AE9C
:10037000C0EF01F0081E001E082AD8B4002A0A8E19
:1003800000C001F008C000F0086A026A5FDE1200D7
:0E039000ACB202D00000FCD72FC0ADFF1200AF
:08039E008D908D928D941200E8
:1003A600276A286A2FC000F030C001F0CEDFCD0EDC
:1003B600046ECC0E056E4C0E066E7E0E076E35DF95
:1003C60000C031F001C032F002C033F003C034F097
:1003D60027C000F028C001F0B8DF31C004F032C0F9
:1003E60005F033C006F034C007F07CDE010ED8B04D
:1003F600000E006E005243E029502A1025E0810EBF
:10040600356E0F0E366E376A0A0E386E396AD6DECC
:10041600005219E1810E356E0F0E366E010E376EE3
:100426000A0E386E396ACADE00520DE1810E356E4B
:100436000F0E366E020E376E0A0E386E396ABEDE43
:10044600005201E101D00FD0B4DE00520BE02C5077
:10045600310A07E02C50320A04E02C50330A01E03E
:1004660001D001D001D00BD0070E0C6E7D0E0D6EA3
:100476000D2EFED70C2EFCD7274A282A93D712001A
:10048600AECF01F0ABA202D0AB98AB8801C000F0B2
:02049600120052
:10049800900E1F6E030E206E2F0E216E000E226E20
:1004A800860E156E040E166E000E176E000E186E70
:1004B800B80E196E010E1A6E000E1B6E000E1C6E21
:1004C800FF0E236EFF0E246E000E256E000E266EA4
:1004D800AC8A900EAB6E948E949C9EAA03D0AECF3D
:0604E80000F0FBD712003A
:1004EE0057DF1ED0010E1D6E000E1E6E210E2B6EDE
:1004FE00210E2F6E46DF26D0020E1D6E000E1E6ED2
:10050E00400E2B6E400E2F6E3CDF1CD0030E1D6E68
:10051E00000E1E6E230E2B6E230E2F6E32DF12D0A8
:10052E00000E2E1802E1010E2D18DCE0000E2E1822
:10053E0002E1020E2D18E0E0000E2E1802E1030E6D
:06054E002D18E4E012008C
:100554008D82E80E2F6E030E306E23DF8D92E80E2F
:0A0564002F6E030E306E1DDF120033
:10056E008D948D80880E2F6E130E306E15DF8D904C
:10057E008D82B80E2F6E0B0E306E0EDF8D928D8427
:0C058E00100E2F6E270E306E07DF1200DB
:0E059A008D80E80E2F6E030E306E00DF120013
:1005A8000F0EC112070EB412816A8A6A9380938271
:1005B8009384846A8D6A969096929694B886020E71
:1005C800B06E080EAF6EAC8463DF030E0B6E8A0E3E
:1005D8000C6E550E0D6E0D2EFED70C2EFCD70B2E65
:1005E800FAD700000000030E1D6E000E1E6E010EED
:1005F800296E000E2A6ECFDEDBDD005203E03FDFFE
:1006080000C02CF02C50590A0AE1010E296E000E88
:100618002A6E450E2B6E450E2F6EB6DE0AD02C5074
:100628004E0A07E1296A2A6A440E2B6E440E2F6E81
:10063800ABDE29502A10D8B46DD0810E356E0F0E5E
:10064800366E376A0A0E386E396AB7DD005218E01E
:10065800810E356E0F0E366E376A0A0E386E396A9D
:10066800ACDD005201E0F4D7000E1E1802E1010EC5
:100678001D1805E0010E2D6E000E2E6E34DF49D0D8
:10068800810E356E0F0E366E010E376E0A0E386EFD
:10069800396A93DD005219E0810E356E0F0E366E01
:1006A800010E376E0A0E386E396A87DD005201E096
:1006B800F3D7000E1E1802E1020E1D1805E0020E07
:1006C8002D6E000E2E6E0FDF24D0810E356E0F0EAC
:1006D800366E020E376E0A0E386E396A6EDD0052BB
:1006E80018E0810E356E0F0E366E020E376E0A0E4A
:1006F800386E396A62DD005201E0F3D7000E1E1829
:1007080002E1030E1D1805E0030E2D6E000E2E6E7D
:10071800EADE2CD02C50310A0CE1000E1E1802E142
:10072800010E1D1805E0010E2D6E000E2E6EDBDE8B
:100738001DD02C50320A0CE1000E1E1802E1020EE8
:100748001D1805E0020E2D6E000E2E6ECCDE0ED0AA
:100758002C50330A0BE1000E1E1802E1030E1D187F
:1007680005E0030E2D6E000E2E6EBDDE07D011DFE4
:1007780018D0ECDE16D0F7DE14D013D0000E1E18F9
:1007880002E1010E1D18F3E0000E1E1802E1020E30
:100798001D18EFE0000E1E1802E1030E1D18EBE015
:0607A800ECD72AD7FFD7B1
:020000040030CA
:0E000000240C1F1EFF8381FF0FC00FE00F4076
:00000001FF
