:10000000B5EF01F00000000000EF00F0000000007C
:0A0010000000000000000000F3D71C
:10001C00040E0C6E3A0E0D6E0D2EFED70C2EFCD768
:04002C0000001200BE
:100030003C6A38C001F0010E006E015004E0003649
:100040000090FF0FFBD700C03BF036C0E9FF37C080
:10005000EAFF0050EE14016E0152010ED8A4000E0A
:10006000006E3A50001A18E03950000804E2D6DF5A
:10007000D5DF3906F9D736C0E9FF37C0EAFF3B5074
:10008000EE14016E0152010ED8A4000E006E3A501B
:0E009000001A02E0FF0E3C6E3CC000F01200B1
:10009E00AECF01F0ABA202D0AB98AB8801C000F09E
:0200AE0012003E
:0A00B000000E9EBA010E006E120051
:1000BA00F1DF00C018F01B6A1C6A800E1C18006E63
:1000CA00800E3518005C02E134501B5C51E2195075
:1000DA001A1025E0810E366E0F0E376E386A0A0E38
:1000EA00396E3A6AA0DF005219E1810E366E0F0EA0
:1000FA00376E010E386E0A0E396E3A6A94DF005274
:10010A000DE1810E366E0F0E376E020E386E0A0E34
:10011A00396E3A6A88DF005201E101D01DD0C3DF8F
:10012A0000520EE019501A100BE11850310A07E07C
:10013A001850320A04E01850330A01E001D00CD0FA
:10014A00B2DF005208E018505A0A04E01850580A60
:10015A0001E001D001D001D00BD0070E0C6E7D0E4C
:10016A000D6E0D2EFED70C2EFCD71B4A1C2AA5D7C6
:02017A00120071
:0E017C00ACB202D00000FCD733C0ADFF1200C1
:10018A008D908D928D94640E346E000E356E90DFD4
:02019A00120051
:10019C00F6DF1ED0010E156E000E166E210E176EB8
:1001AC00210E336EE5DF26D0020E156E000E166E94
:1001BC00400E176E400E336EDBDF1CD0030E156E37
:1001CC00000E166E230E176E230E336ED1DF12D077
:1001DC00000E321802E1010E3118DCE0000E32186C
:1001EC0002E1020E3118E0E0000E321802E1030EBB
:1001FC003118E4E0640E346E000E356E58DF1200D8
:10020C0031C017F031C033F0B3DF640E346E000E22
:06021C00356E4DDF1200FB
:100222007C0E296E010E2A6E330E2B6E000E2C6E82
:100232009E0E256E000E266E000E276E000E286E94
:10024200B00E1D6E000E1E6E000E1F6E000E206E92
:10025200FF0E216EFF0E226E000E236E000E246E24
:10026200AC8A900EAB6E948E949C9EAA03D0AECFB5
:0602720000F0FBD71200B2
:1002780019501A1001E124D0810E366E0F0E376E18
:100288002DC038F00A0E396E3A6ACEDE005218E0F8
:10029800810E366E0F0E376E2DC038F00A0E396E8D
:1002A8003A6AC2DE005201E0F3D71650301802E174
:1002B8002F50151805E02FC031F030C032F06ADF3A
:0202C800120022
:1002CA003CD0520E316E9DDF8D80E80E346E030EE7
:1002DA00356EEEDE44D0590E316E93DF8D82E80E14
:1002EA00346E030E356EE4DE4F0E316E8ADF8D9268
:1002FA00E80E346E030E356EDBDE31D0520E316EEF
:10030A0080DF8D948D80880E346E130E356ED0DEAC
:10031A00590E316E76DF8D908D82B80E346E0B0ECB
:10032A00356EC6DE470E316E6CDF8D928D84100EEF
:10033A00346E270E356EBCDE12D0000E161802E19E
:10034A00010E1518BEE0000E161802E1020E15186D
:10035A00C2E0000E161802E1030E1518CFE01200D3
:10036A000F0EC112070EB412816A8A6A93809382B1
:10037A009384846A8D6A969096929694B886020EB1
:10038A00B06E080EAF6EAC8447DF030E0B6E8A0E9A
:10039A000C6E550E0D6E0D2EFED70C2EFCD70B2EA5
:1003AA00FAD700000000030E156E000E166E010E3D
:1003BA00196E000E1A6EE4DE76DE0052D8B471D0E1
:1003CA0069DE00C018F05ED0010E196E000E1A6EBA
:1003DA00450E176E450E336ECCDE030E0B6E8A0E7B
:1003EA000C6E550E0D6E0D2EFED70C2EFCD70B2E55
:1003FA00FAD70000000055D0196A1A6A440E176E1F
:10040A00440E336EB6DE030E0B6E8A0E0C6E550E5C
:10041A000D6E0D2EFED70C2EFCD70B2EFAD7000030
:10042A0000003FD019501A1001E03BD0000E1618F8
:10043A0002E1010E151805E0010E316E000E326E52
:10044A00A8DE2FD019501A1001E02BD0000E161872
:10045A0002E1020E151805E0020E316E000E326E30
:10046A0098DE1FD019501A1001E01BD0000E161882
:10047A0002E1030E151805E0030E316E000E326E0E
:10048A0088DE0FD018505A0A9FE01850580AB4E074
:10049A001850310AC7E01850320AD4E01850330A0B
:1004AA00E1E02D6A2E6A010E2F6E000E306EDFDE3D
:1004BA00010E2D6E000E2E6E020E2F6E000E306E85
:1004CA00D6DE020E2D6E000E2E6E030E2F6E000E5D
:0A04DA00306ECDDEF5DE70D7FFD7DF
:020000040030CA
:0E000000240C1F1EFF8381FF0FC00FE00F4076
:00000001FF
