:10000000D3EF01F00000000000EF00F0000000005E
:0A0010000000000000000000F3D71C
:0E001C00ACB202D00000FCD736C0ADFF12001F
:10002A00040E0C6E3A0E0D6E0D2EFED70C2EFCD75A
:04003A0000001200B0
:0C003E002FC018F02FC036F0EADF1200CF
:10004A00AECF01F0ABA202D0AB98AB8801C000F0F2
:02005A00120092
:10005C00356A31C001F0010E006E015004E000362B
:10006C000090FF0FFBD700C034F02FC0E9FF30C069
:10007C00EAFF0050EE14016E0152010ED8A4000EDE
:10008C00006E3350001A18E03250000804E2C7DF4B
:10009C00C6DF3206F9D72FC0E9FF30C0EAFF345073
:1000AC00EE14016E0152010ED8A4000E006E3350F6
:0E00BC00001A02E0FF0E356E35C000F0120093
:0800CA008D908D928D941200BF
:0A00D200000E9EBA010E006E12002F
:1000DC001C0E236E000E246E360E256E000E266E40
:1000EC004A0E276E000E286E000E296E000E2A6E28
:1000FC00D20E1B6E000E1C6E000E1D6E000E1E6EC0
:10010C00FF0E1F6EFF0E206E000E216E000E226E73
:10011C00AC8A900EAB6E948E949C9EAA03D0AECFFC
:06012C0000F0FBD71200F9
:100132002D6A2E6A2C502E5C02E12B502D5CD8B019
:10014200BCD0C6DF005243E07FDF00C017F0005092
:10015200540A13E115500108156E1650000E16567A
:10016200000E161802E1000E151804E14D0E2F6E56
:1001720065DF03D0410E2F6E61DF000E161802E11B
:10018200010E151824E11750310A09E1010E196E0A
:10019200000E1A6E99DF590E2F6E50DF8ED0175057
:1001A200320A09E1020E196E000E1A6E8DDF550E2B
:1001B2002F6E44DF82D01750330A09E1030E196E05
:1001C200000E1A6E81DF4B0E2F6E38DF76D0000ED6
:1001D200161802E1000E1518D8A464D0810E2F6EF5
:1001E2000F0E306E316A0A0E326E336A36DF0052FB
:1001F20015E0810E2F6E0F0E306E316A0A0E326ECE
:10020200336A2BDF005201E0F4D7010E196E000EA3
:100212001A6E5ADF590E2F6E11DF4FD0810E2F6EDC
:100222000F0E306E010E316E0A0E326E336A15DF1A
:10023200005216E0810E2F6E0F0E306E010E316EDF
:100242000A0E326E336A09DF005201E0F3D7020E62
:10025200196E000E1A6E38DF550E2F6EEFDE2DD09E
:10026200810E2F6E0F0E306E020E316E0A0E326E3E
:10027200336AF3DE005216E0810E2F6E0F0E306EDF
:10028200020E316E0A0E326E336AE7DE005201E070
:10029200F3D7030E196E000E1A6E16DF4B0E2F6E79
:1002A200CDDE0BD0070E0C6E7D0E0D6E0D2EFED721
:0C02B2000C2EFCD72D4A2E2A3DD712003E
:1002BE000F0EC112070EB412816A8A6A938093825E
:1002CE009384846A8D6A969096929694B886020E5E
:1002DE00B06E080EAF6EAC84FADE030E0B6E8A0E95
:1002EE000C6E550E0D6E0D2EFED70C2EFCD70B2E52
:1002FE00FAD700000000E2DE030E196E000E1A6E31
:02030E001200DB
:10031000000E1A1802E1010E191807E18D80010E76
:100320002B6E000E2C6E05DF3DD0000E1A1802E178
:10033000020E19180DE18D82E80E2B6E030E2C6E45
:10034000F8DE8D92E80E2B6E030E2C6EF2DE2AD0B4
:10035000000E1A1802E1030E191824E18DA008D02E
:100360008D908D82B80E2B6E0B0E2C6EE2DE1AD0A5
:100370008DA208D08D928D84100E2B6E270E2C6EC0
:10038000D8DE10D08DA408D08D948D80880E2B6E71
:10039000130E2C6ECEDE06D08D80880E2B6E130EC3
:0603A0002C6EC7DE120006
:0803A6008BDFB3DFFED7FFD7A8
:020000040030CA
:0E000000240C1F1EFF8381FF0FC00FE00F4076
:00000001FF
